{
  "address": "0x9fE46736679d2D9a65F0992F2272dE9f3c7fa6e0",
  "abi": [
    {
      "inputs": [],
      "stateMutability": "nonpayable",
      "type": "constructor"
    },
    {
      "inputs": [],
      "name": "ERC721EnumerableForbiddenBatchMint",
      "type": "error"
    },
    {
      "inputs": [
        {
          "internalType": "address",
          "name": "sender",
          "type": "address"
        },
        {
          "internalType": "uint256",
          "name": "tokenId",
          "type": "uint256"
        },
        {
          "internalType": "address",
          "name": "owner",
          "type": "address"
        }
      ],
      "name": "ERC721IncorrectOwner",
      "type": "error"
    },
    {
      "inputs": [
        {
          "internalType": "address",
          "name": "operator",
          "type": "address"
        },
        {
          "internalType": "uint256",
          "name": "tokenId",
          "type": "uint256"
        }
      ],
      "name": "ERC721InsufficientApproval",
      "type": "error"
    },
    {
      "inputs": [
        {
          "internalType": "address",
          "name": "approver",
          "type": "address"
        }
      ],
      "name": "ERC721InvalidApprover",
      "type": "error"
    },
    {
      "inputs": [
        {
          "internalType": "address",
          "name": "operator",
          "type": "address"
        }
      ],
      "name": "ERC721InvalidOperator",
      "type": "error"
    },
    {
      "inputs": [
        {
          "internalType": "address",
          "name": "owner",
          "type": "address"
        }
      ],
      "name": "ERC721InvalidOwner",
      "type": "error"
    },
    {
      "inputs": [
        {
          "internalType": "address",
          "name": "receiver",
          "type": "address"
        }
      ],
      "name": "ERC721InvalidReceiver",
      "type": "error"
    },
    {
      "inputs": [
        {
          "internalType": "address",
          "name": "sender",
          "type": "address"
        }
      ],
      "name": "ERC721InvalidSender",
      "type": "error"
    },
    {
      "inputs": [
        {
          "internalType": "uint256",
          "name": "tokenId",
          "type": "uint256"
        }
      ],
      "name": "ERC721NonexistentToken",
      "type": "error"
    },
    {
      "inputs": [
        {
          "internalType": "address",
          "name": "owner",
          "type": "address"
        },
        {
          "internalType": "uint256",
          "name": "index",
          "type": "uint256"
        }
      ],
      "name": "ERC721OutOfBoundsIndex",
      "type": "error"
    },
    {
      "inputs": [
        {
          "internalType": "address",
          "name": "owner",
          "type": "address"
        }
      ],
      "name": "OwnableInvalidOwner",
      "type": "error"
    },
    {
      "inputs": [
        {
          "internalType": "address",
          "name": "account",
          "type": "address"
        }
      ],
      "name": "OwnableUnauthorizedAccount",
      "type": "error"
    },
    {
      "inputs": [],
      "name": "ReentrancyGuardReentrantCall",
      "type": "error"
    },
    {
      "anonymous": false,
      "inputs": [
        {
          "indexed": true,
          "internalType": "address",
          "name": "owner",
          "type": "address"
        },
        {
          "indexed": true,
          "internalType": "address",
          "name": "approved",
          "type": "address"
        },
        {
          "indexed": true,
          "internalType": "uint256",
          "name": "tokenId",
          "type": "uint256"
        }
      ],
      "name": "Approval",
      "type": "event"
    },
    {
      "anonymous": false,
      "inputs": [
        {
          "indexed": true,
          "internalType": "address",
          "name": "owner",
          "type": "address"
        },
        {
          "indexed": true,
          "internalType": "address",
          "name": "operator",
          "type": "address"
        },
        {
          "indexed": false,
          "internalType": "bool",
          "name": "approved",
          "type": "bool"
        }
      ],
      "name": "ApprovalForAll",
      "type": "event"
    },
    {
      "anonymous": false,
      "inputs": [
        {
          "indexed": false,
          "internalType": "uint256",
          "name": "_fromTokenId",
          "type": "uint256"
        },
        {
          "indexed": false,
          "internalType": "uint256",
          "name": "_toTokenId",
          "type": "uint256"
        }
      ],
      "name": "BatchMetadataUpdate",
      "type": "event"
    },
    {
      "anonymous": false,
      "inputs": [
        {
          "indexed": true,
          "internalType": "uint256",
          "name": "eventId",
          "type": "uint256"
        },
        {
          "indexed": false,
          "internalType": "string",
          "name": "name",
          "type": "string"
        },
        {
          "indexed": true,
          "internalType": "address",
          "name": "organizer",
          "type": "address"
        }
      ],
      "name": "EventCreated",
      "type": "event"
    },
    {
      "anonymous": false,
      "inputs": [
        {
          "indexed": true,
          "internalType": "uint256",
          "name": "eventId",
          "type": "uint256"
        },
        {
          "indexed": false,
          "internalType": "bool",
          "name": "isActive",
          "type": "bool"
        }
      ],
      "name": "EventStatusChanged",
      "type": "event"
    },
    {
      "anonymous": false,
      "inputs": [
        {
          "indexed": false,
          "internalType": "uint256",
          "name": "_tokenId",
          "type": "uint256"
        }
      ],
      "name": "MetadataUpdate",
      "type": "event"
    },
    {
      "anonymous": false,
      "inputs": [
        {
          "indexed": true,
          "internalType": "address",
          "name": "previousOwner",
          "type": "address"
        },
        {
          "indexed": true,
          "internalType": "address",
          "name": "newOwner",
          "type": "address"
        }
      ],
      "name": "OwnershipTransferred",
      "type": "event"
    },
    {
      "anonymous": false,
      "inputs": [
        {
          "indexed": true,
          "internalType": "uint256",
          "name": "tokenId",
          "type": "uint256"
        },
        {
          "indexed": true,
          "internalType": "uint256",
          "name": "eventId",
          "type": "uint256"
        },
        {
          "indexed": true,
          "internalType": "address",
          "name": "to",
          "type": "address"
        }
      ],
      "name": "TicketMinted",
      "type": "event"
    },
    {
      "anonymous": false,
      "inputs": [
        {
          "indexed": true,
          "internalType": "address",
          "name": "from",
          "type": "address"
        },
        {
          "indexed": true,
          "internalType": "address",
          "name": "to",
          "type": "address"
        },
        {
          "indexed": true,
          "internalType": "uint256",
          "name": "tokenId",
          "type": "uint256"
        }
      ],
      "name": "Transfer",
      "type": "event"
    },
    {
      "inputs": [
        {
          "internalType": "address",
          "name": "organizer",
          "type": "address"
        }
      ],
      "name": "addOrganizer",
      "outputs": [],
      "stateMutability": "nonpayable",
      "type": "function"
    },
    {
      "inputs": [
        {
          "internalType": "address",
          "name": "to",
          "type": "address"
        },
        {
          "internalType": "uint256",
          "name": "tokenId",
          "type": "uint256"
        }
      ],
      "name": "approve",
      "outputs": [],
      "stateMutability": "nonpayable",
      "type": "function"
    },
    {
      "inputs": [
        {
          "internalType": "address",
          "name": "owner",
          "type": "address"
        }
      ],
      "name": "balanceOf",
      "outputs": [
        {
          "internalType": "uint256",
          "name": "",
          "type": "uint256"
        }
      ],
      "stateMutability": "view",
      "type": "function"
    },
    {
      "inputs": [
        {
          "internalType": "string",
          "name": "name",
          "type": "string"
        },
        {
          "internalType": "string",
          "name": "description",
          "type": "string"
        },
        {
          "internalType": "string",
          "name": "location",
          "type": "string"
        },
        {
          "internalType": "uint256",
          "name": "eventDate",
          "type": "uint256"
        },
        {
          "internalType": "uint256",
          "name": "ticketPrice",
          "type": "uint256"
        },
        {
          "internalType": "uint256",
          "name": "maxTickets",
          "type": "uint256"
        },
        {
          "internalType": "string",
          "name": "imageUri",
          "type": "string"
        }
      ],
      "name": "createEvent",
      "outputs": [
        {
          "internalType": "uint256",
          "name": "",
          "type": "uint256"
        }
      ],
      "stateMutability": "nonpayable",
      "type": "function"
    },
    {
      "inputs": [],
      "name": "eventIdCounter",
      "outputs": [
        {
          "internalType": "uint256",
          "name": "",
          "type": "uint256"
        }
      ],
      "stateMutability": "view",
      "type": "function"
    },
    {
      "inputs": [
        {
          "internalType": "address",
          "name": "",
          "type": "address"
        }
      ],
      "name": "eventOrganizers",
      "outputs": [
        {
          "internalType": "bool",
          "name": "",
          "type": "bool"
        }
      ],
      "stateMutability": "view",
      "type": "function"
    },
    {
      "inputs": [
        {
          "internalType": "uint256",
          "name": "",
          "type": "uint256"
        }
      ],
      "name": "events",
      "outputs": [
        {
          "internalType": "uint256",
          "name": "eventId",
          "type": "uint256"
        },
        {
          "internalType": "string",
          "name": "name",
          "type": "string"
        },
        {
          "internalType": "string",
          "name": "description",
          "type": "string"
        },
        {
          "internalType": "string",
          "name": "location",
          "type": "string"
        },
        {
          "internalType": "uint256",
          "name": "eventDate",
          "type": "uint256"
        },
        {
          "internalType": "uint256",
          "name": "ticketPrice",
          "type": "uint256"
        },
        {
          "internalType": "uint256",
          "name": "maxTickets",
          "type": "uint256"
        },
        {
          "internalType": "uint256",
          "name": "ticketsSold",
          "type": "uint256"
        },
        {
          "internalType": "address",
          "name": "organizer",
          "type": "address"
        },
        {
          "internalType": "bool",
          "name": "isActive",
          "type": "bool"
        },
        {
          "internalType": "string",
          "name": "imageUri",
          "type": "string"
        }
      ],
      "stateMutability": "view",
      "type": "function"
    },
    {
      "inputs": [
        {
          "internalType": "uint256",
          "name": "tokenId",
          "type": "uint256"
        }
      ],
      "name": "getApproved",
      "outputs": [
        {
          "internalType": "address",
          "name": "",
          "type": "address"
        }
      ],
      "stateMutability": "view",
      "type": "function"
    },
    {
      "inputs": [
        {
          "internalType": "uint256",
          "name": "eventId",
          "type": "uint256"
        }
      ],
      "name": "getAvailableTickets",
      "outputs": [
        {
          "internalType": "uint256",
          "name": "",
          "type": "uint256"
        }
      ],
      "stateMutability": "view",
      "type": "function"
    },
    {
      "inputs": [
        {
          "internalType": "uint256",
          "name": "eventId",
          "type": "uint256"
        }
      ],
      "name": "getEvent",
      "outputs": [
        {
          "components": [
            {
              "internalType": "uint256",
              "name": "eventId",
              "type": "uint256"
            },
            {
              "internalType": "string",
              "name": "name",
              "type": "string"
            },
            {
              "internalType": "string",
              "name": "description",
              "type": "string"
            },
            {
              "internalType": "string",
              "name": "location",
              "type": "string"
            },
            {
              "internalType": "uint256",
              "name": "eventDate",
              "type": "uint256"
            },
            {
              "internalType": "uint256",
              "name": "ticketPrice",
              "type": "uint256"
            },
            {
              "internalType": "uint256",
              "name": "maxTickets",
              "type": "uint256"
            },
            {
              "internalType": "uint256",
              "name": "ticketsSold",
              "type": "uint256"
            },
            {
              "internalType": "address",
              "name": "organizer",
              "type": "address"
            },
            {
              "internalType": "bool",
              "name": "isActive",
              "type": "bool"
            },
            {
              "internalType": "string",
              "name": "imageUri",
              "type": "string"
            }
          ],
          "internalType": "struct EventTicket.Event",
          "name": "",
          "type": "tuple"
        }
      ],
      "stateMutability": "view",
      "type": "function"
    },
    {
      "inputs": [
        {
          "internalType": "uint256",
          "name": "tokenId",
          "type": "uint256"
        }
      ],
      "name": "getEventByToken",
      "outputs": [
        {
          "components": [
            {
              "internalType": "uint256",
              "name": "eventId",
              "type": "uint256"
            },
            {
              "internalType": "string",
              "name": "name",
              "type": "string"
            },
            {
              "internalType": "string",
              "name": "description",
              "type": "string"
            },
            {
              "internalType": "string",
              "name": "location",
              "type": "string"
            },
            {
              "internalType": "uint256",
              "name": "eventDate",
              "type": "uint256"
            },
            {
              "internalType": "uint256",
              "name": "ticketPrice",
              "type": "uint256"
            },
            {
              "internalType": "uint256",
              "name": "maxTickets",
              "type": "uint256"
            },
            {
              "internalType": "uint256",
              "name": "ticketsSold",
              "type": "uint256"
            },
            {
              "internalType": "address",
              "name": "organizer",
              "type": "address"
            },
            {
              "internalType": "bool",
              "name": "isActive",
              "type": "bool"
            },
            {
              "internalType": "string",
              "name": "imageUri",
              "type": "string"
            }
          ],
          "internalType": "struct EventTicket.Event",
          "name": "",
          "type": "tuple"
        }
      ],
      "stateMutability": "view",
      "type": "function"
    },
    {
      "inputs": [
        {
          "internalType": "address",
          "name": "owner",
          "type": "address"
        },
        {
          "internalType": "address",
          "name": "operator",
          "type": "address"
        }
      ],
      "name": "isApprovedForAll",
      "outputs": [
        {
          "internalType": "bool",
          "name": "",
          "type": "bool"
        }
      ],
      "stateMutability": "view",
      "type": "function"
    },
    {
      "inputs": [
        {
          "internalType": "uint256",
          "name": "eventId",
          "type": "uint256"
        },
        {
          "internalType": "string",
          "name": "tokenUri",
          "type": "string"
        }
      ],
      "name": "mintTicket",
      "outputs": [
        {
          "internalType": "uint256",
          "name": "",
          "type": "uint256"
        }
      ],
      "stateMutability": "payable",
      "type": "function"
    },
    {
      "inputs": [],
      "name": "name",
      "outputs": [
        {
          "internalType": "string",
          "name": "",
          "type": "string"
        }
      ],
      "stateMutability": "view",
      "type": "function"
    },
    {
      "inputs": [],
      "name": "owner",
      "outputs": [
        {
          "internalType": "address",
          "name": "",
          "type": "address"
        }
      ],
      "stateMutability": "view",
      "type": "function"
    },
    {
      "inputs": [
        {
          "internalType": "uint256",
          "name": "tokenId",
          "type": "uint256"
        }
      ],
      "name": "ownerOf",
      "outputs": [
        {
          "internalType": "address",
          "name": "",
          "type": "address"
        }
      ],
      "stateMutability": "view",
      "type": "function"
    },
    {
      "inputs": [
        {
          "internalType": "address",
          "name": "organizer",
          "type": "address"
        }
      ],
      "name": "removeOrganizer",
      "outputs": [],
      "stateMutability": "nonpayable",
      "type": "function"
    },
    {
      "inputs": [],
      "name": "renounceOwnership",
      "outputs": [],
      "stateMutability": "nonpayable",
      "type": "function"
    },
    {
      "inputs": [
        {
          "internalType": "address",
          "name": "from",
          "type": "address"
        },
        {
          "internalType": "address",
          "name": "to",
          "type": "address"
        },
        {
          "internalType": "uint256",
          "name": "tokenId",
          "type": "uint256"
        }
      ],
      "name": "safeTransferFrom",
      "outputs": [],
      "stateMutability": "nonpayable",
      "type": "function"
    },
    {
      "inputs": [
        {
          "internalType": "address",
          "name": "from",
          "type": "address"
        },
        {
          "internalType": "address",
          "name": "to",
          "type": "address"
        },
        {
          "internalType": "uint256",
          "name": "tokenId",
          "type": "uint256"
        },
        {
          "internalType": "bytes",
          "name": "data",
          "type": "bytes"
        }
      ],
      "name": "safeTransferFrom",
      "outputs": [],
      "stateMutability": "nonpayable",
      "type": "function"
    },
    {
      "inputs": [
        {
          "internalType": "address",
          "name": "operator",
          "type": "address"
        },
        {
          "internalType": "bool",
          "name": "approved",
          "type": "bool"
        }
      ],
      "name": "setApprovalForAll",
      "outputs": [],
      "stateMutability": "nonpayable",
      "type": "function"
    },
    {
      "inputs": [
        {
          "internalType": "uint256",
          "name": "eventId",
          "type": "uint256"
        },
        {
          "internalType": "bool",
          "name": "isActive",
          "type": "bool"
        }
      ],
      "name": "setEventStatus",
      "outputs": [],
      "stateMutability": "nonpayable",
      "type": "function"
    },
    {
      "inputs": [
        {
          "internalType": "bytes4",
          "name": "interfaceId",
          "type": "bytes4"
        }
      ],
      "name": "supportsInterface",
      "outputs": [
        {
          "internalType": "bool",
          "name": "",
          "type": "bool"
        }
      ],
      "stateMutability": "view",
      "type": "function"
    },
    {
      "inputs": [],
      "name": "symbol",
      "outputs": [
        {
          "internalType": "string",
          "name": "",
          "type": "string"
        }
      ],
      "stateMutability": "view",
      "type": "function"
    },
    {
      "inputs": [
        {
          "internalType": "uint256",
          "name": "index",
          "type": "uint256"
        }
      ],
      "name": "tokenByIndex",
      "outputs": [
        {
          "internalType": "uint256",
          "name": "",
          "type": "uint256"
        }
      ],
      "stateMutability": "view",
      "type": "function"
    },
    {
      "inputs": [],
      "name": "tokenIdCounter",
      "outputs": [
        {
          "internalType": "uint256",
          "name": "",
          "type": "uint256"
        }
      ],
      "stateMutability": "view",
      "type": "function"
    },
    {
      "inputs": [
        {
          "internalType": "address",
          "name": "owner",
          "type": "address"
        },
        {
          "internalType": "uint256",
          "name": "index",
          "type": "uint256"
        }
      ],
      "name": "tokenOfOwnerByIndex",
      "outputs": [
        {
          "internalType": "uint256",
          "name": "",
          "type": "uint256"
        }
      ],
      "stateMutability": "view",
      "type": "function"
    },
    {
      "inputs": [
        {
          "internalType": "uint256",
          "name": "",
          "type": "uint256"
        }
      ],
      "name": "tokenToEvent",
      "outputs": [
        {
          "internalType": "uint256",
          "name": "",
          "type": "uint256"
        }
      ],
      "stateMutability": "view",
      "type": "function"
    },
    {
      "inputs": [
        {
          "internalType": "uint256",
          "name": "tokenId",
          "type": "uint256"
        }
      ],
      "name": "tokenURI",
      "outputs": [
        {
          "internalType": "string",
          "name": "",
          "type": "string"
        }
      ],
      "stateMutability": "view",
      "type": "function"
    },
    {
      "inputs": [],
      "name": "totalSupply",
      "outputs": [
        {
          "internalType": "uint256",
          "name": "",
          "type": "uint256"
        }
      ],
      "stateMutability": "view",
      "type": "function"
    },
    {
      "inputs": [
        {
          "internalType": "address",
          "name": "from",
          "type": "address"
        },
        {
          "internalType": "address",
          "name": "to",
          "type": "address"
        },
        {
          "internalType": "uint256",
          "name": "tokenId",
          "type": "uint256"
        }
      ],
      "name": "transferFrom",
      "outputs": [],
      "stateMutability": "nonpayable",
      "type": "function"
    },
    {
      "inputs": [
        {
          "internalType": "address",
          "name": "newOwner",
          "type": "address"
        }
      ],
      "name": "transferOwnership",
      "outputs": [],
      "stateMutability": "nonpayable",
      "type": "function"
    }
  ],
  "transactionHash": "0x48422d660480035bc530af563e0981edc870306831d842f52e5c1160c785c881",
  "args": [],
  "numDeployments": 1,
  "solcInputHash": "f22454494086efca649f893883304795",
  "bytecode": "0x60806040523480156200001157600080fd5b50336040518060400160405280600b81526020016a115d995b9d151a58dad95d60aa1b8152506040518060400160405280600381526020016245544b60e81b8152508160009081620000649190620001b3565b506001620000738282620001b3565b5050506001600160a01b038116620000a557604051631e4fbdf760e01b81526000600482015260240160405180910390fd5b620000b081620000bc565b506001600c556200027f565b600b80546001600160a01b038381166001600160a01b0319831681179093556040519116919082907f8be0079c531659141344cd1fd0a4f28419497f9722a3daafe3b4186f6b6457e090600090a35050565b634e487b7160e01b600052604160045260246000fd5b600181811c908216806200013957607f821691505b6020821081036200015a57634e487b7160e01b600052602260045260246000fd5b50919050565b601f821115620001ae57600081815260208120601f850160051c81016020861015620001895750805b601f850160051c820191505b81811015620001aa5782815560010162000195565b5050505b505050565b81516001600160401b03811115620001cf57620001cf6200010e565b620001e781620001e0845462000124565b8462000160565b602080601f8311600181146200021f5760008415620002065750858301515b600019600386901b1c1916600185901b178555620001aa565b600085815260208120601f198616915b8281101562000250578886015182559484019460019091019084016200022f565b50858210156200026f5787850151600019600388901b60f8161c191681555b5050505050600190811b01905550565b612fed806200028f6000396000f3fe6080604052600436106101e35760003560e01c8063715018a611610102578063c87b56dd11610095578063e1495fac11610064578063e1495fac14610594578063e4725f02146105c4578063e985e9c5146105e4578063f2fde38b1461060457600080fd5b8063c87b56dd14610511578063cc9d707114610531578063ddc120af1461055e578063e01a0ebe1461057e57600080fd5b806395d89b41116100d157806395d89b41146104a657806398bdf6f5146104bb578063a22cb465146104d1578063b88d4fde146104f157600080fd5b8063715018a614610433578063757a304914610448578063836b035a146104685780638da5cb5b1461048857600080fd5b806323b872dd1161017a5780634f6ccce7116101495780634f6ccce7146103a65780636352211e146103c65780636d1884e0146103e657806370a082311461041357600080fd5b806323b872dd146103265780632f745c591461034657806342842e0e1461036657806344ade56d1461038657600080fd5b80630b791430116101b65780630b791430146102995780630cc7b2a9146102d057806318160ddd146102fe57806319e2a2111461031357600080fd5b806301ffc9a7146101e857806306fdde031461021d578063081812fc1461023f578063095ea7b314610277575b600080fd5b3480156101f457600080fd5b50610208610203366004612801565b610624565b60405190151581526020015b60405180910390f35b34801561022957600080fd5b50610232610635565b604051610214919061286e565b34801561024b57600080fd5b5061025f61025a366004612881565b6106c7565b6040516001600160a01b039091168152602001610214565b34801561028357600080fd5b506102976102923660046128b6565b6106f0565b005b3480156102a557600080fd5b506102b96102b4366004612881565b6106ff565b6040516102149b9a999897969594939291906128e0565b3480156102dc57600080fd5b506102f06102eb366004612881565b610989565b604051908152602001610214565b34801561030a57600080fd5b506008546102f0565b6102f0610321366004612a25565b610c63565b34801561033257600080fd5b50610297610341366004612a6c565b610e97565b34801561035257600080fd5b506102f06103613660046128b6565b610f22565b34801561037257600080fd5b50610297610381366004612a6c565b610f87565b34801561039257600080fd5b506102976103a1366004612aa8565b610fa7565b3480156103b257600080fd5b506102f06103c1366004612881565b610fd0565b3480156103d257600080fd5b5061025f6103e1366004612881565b611029565b3480156103f257600080fd5b50610406610401366004612881565b611034565b6040516102149190612ac3565b34801561041f57600080fd5b506102f061042e366004612aa8565b611305565b34801561043f57600080fd5b5061029761134d565b34801561045457600080fd5b50610406610463366004612881565b611361565b34801561047457600080fd5b50610297610483366004612bbc565b61163c565b34801561049457600080fd5b50600b546001600160a01b031661025f565b3480156104b257600080fd5b5061023261177e565b3480156104c757600080fd5b506102f0600d5481565b3480156104dd57600080fd5b506102976104ec366004612be8565b61178d565b3480156104fd57600080fd5b5061029761050c366004612c12565b611798565b34801561051d57600080fd5b5061023261052c366004612881565b6117af565b34801561053d57600080fd5b506102f061054c366004612881565b600f6020526000908152604090205481565b34801561056a57600080fd5b506102f0610579366004612c8e565b6117ba565b34801561058a57600080fd5b506102f060115481565b3480156105a057600080fd5b506102086105af366004612aa8565b60106020526000908152604090205460ff1681565b3480156105d057600080fd5b506102976105df366004612aa8565b611a5d565b3480156105f057600080fd5b506102086105ff366004612d58565b611a89565b34801561061057600080fd5b5061029761061f366004612aa8565b611ab7565b600061062f82611af5565b92915050565b60606000805461064490612d82565b80601f016020809104026020016040519081016040528092919081815260200182805461067090612d82565b80156106bd5780601f10610692576101008083540402835291602001916106bd565b820191906000526020600020905b8154815290600101906020018083116106a057829003601f168201915b5050505050905090565b60006106d282611b1a565b506000828152600460205260409020546001600160a01b031661062f565b6106fb828233611b53565b5050565b600e602052600090815260409020805460018201805491929161072190612d82565b80601f016020809104026020016040519081016040528092919081815260200182805461074d90612d82565b801561079a5780601f1061076f5761010080835404028352916020019161079a565b820191906000526020600020905b81548152906001019060200180831161077d57829003601f168201915b5050505050908060020180546107af90612d82565b80601f01602080910402602001604051908101604052809291908181526020018280546107db90612d82565b80156108285780601f106107fd57610100808354040283529160200191610828565b820191906000526020600020905b81548152906001019060200180831161080b57829003601f168201915b50505050509080600301805461083d90612d82565b80601f016020809104026020016040519081016040528092919081815260200182805461086990612d82565b80156108b65780601f1061088b576101008083540402835291602001916108b6565b820191906000526020600020905b81548152906001019060200180831161089957829003601f168201915b505050506004830154600584015460068501546007860154600887015460098801805497989597949650929491936001600160a01b03821693600160a01b90920460ff1692919061090690612d82565b80601f016020809104026020016040519081016040528092919081815260200182805461093290612d82565b801561097f5780601f106109545761010080835404028352916020019161097f565b820191906000526020600020905b81548152906001019060200180831161096257829003601f168201915b505050505090508b565b6000818152600e6020908152604080832081516101608101909252805482526001810180548594840191906109bd90612d82565b80601f01602080910402602001604051908101604052809291908181526020018280546109e990612d82565b8015610a365780601f10610a0b57610100808354040283529160200191610a36565b820191906000526020600020905b815481529060010190602001808311610a1957829003601f168201915b50505050508152602001600282018054610a4f90612d82565b80601f0160208091040260200160405190810160405280929190818152602001828054610a7b90612d82565b8015610ac85780601f10610a9d57610100808354040283529160200191610ac8565b820191906000526020600020905b815481529060010190602001808311610aab57829003601f168201915b50505050508152602001600382018054610ae190612d82565b80601f0160208091040260200160405190810160405280929190818152602001828054610b0d90612d82565b8015610b5a5780601f10610b2f57610100808354040283529160200191610b5a565b820191906000526020600020905b815481529060010190602001808311610b3d57829003601f168201915b50505091835250506004820154602082015260058201546040820152600682015460608201526007820154608082015260088201546001600160a01b03811660a0830152600160a01b900460ff16151560c082015260098201805460e090920191610bc490612d82565b80601f0160208091040260200160405190810160405280929190818152602001828054610bf090612d82565b8015610c3d5780601f10610c1257610100808354040283529160200191610c3d565b820191906000526020600020905b815481529060010190602001808311610c2057829003601f168201915b50505050508152505090508060e001518160c00151610c5c9190612dd2565b9392505050565b6000610c6d611b60565b6000838152600e602052604090206008810154600160a01b900460ff16610cd15760405162461bcd60e51b81526020600482015260136024820152724576656e74206973206e6f742061637469766560681b60448201526064015b60405180910390fd5b8060060154816007015410610d1f5760405162461bcd60e51b81526020600482015260146024820152734e6f207469636b65747320617661696c61626c6560601b6044820152606401610cc8565b42816004015411610d725760405162461bcd60e51b815260206004820152601a60248201527f4576656e742068617320616c7265616479206f636375727265640000000000006044820152606401610cc8565b8060050154341015610dbd5760405162461bcd60e51b8152602060048201526014602482015273125b9cdd59999a58da595b9d081c185e5b595b9d60621b6044820152606401610cc8565b600d8054906000610dcd83612de5565b9091555050600d54610ddf3382611b8a565b610de98185611ba4565b6000818152600f6020526040812086905560078301805491610e0a83612de5565b9091555050600582015415610e5b57600882015460058301546040516001600160a01b039092169181156108fc0291906000818181858888f19350505050158015610e59573d6000803e3d6000fd5b505b6040513390869083907f085ec0eff4bf526b0dd054adffcd8bd8da42126a1133ce302042973f32029fb090600090a491505061062f6001600c55565b6001600160a01b038216610ec157604051633250574960e11b815260006004820152602401610cc8565b6000610ece838333611bf4565b9050836001600160a01b0316816001600160a01b031614610f1c576040516364283d7b60e01b81526001600160a01b0380861660048301526024820184905282166044820152606401610cc8565b50505050565b6000610f2d83611305565b8210610f5e5760405163295f44f760e21b81526001600160a01b038416600482015260248101839052604401610cc8565b506001600160a01b03919091166000908152600660209081526040808320938352929052205490565b610fa283838360405180602001604052806000815250611798565b505050565b610faf611c09565b6001600160a01b03166000908152601060205260409020805460ff19169055565b6000610fdb60085490565b82106110045760405163295f44f760e21b81526000600482015260248101839052604401610cc8565b6008828154811061101757611017612dfe565b90600052602060002001549050919050565b600061062f82611b1a565b61103c612786565b600e6000838152602001908152602001600020604051806101600160405290816000820154815260200160018201805461107590612d82565b80601f01602080910402602001604051908101604052809291908181526020018280546110a190612d82565b80156110ee5780601f106110c3576101008083540402835291602001916110ee565b820191906000526020600020905b8154815290600101906020018083116110d157829003601f168201915b5050505050815260200160028201805461110790612d82565b80601f016020809104026020016040519081016040528092919081815260200182805461113390612d82565b80156111805780601f1061115557610100808354040283529160200191611180565b820191906000526020600020905b81548152906001019060200180831161116357829003601f168201915b5050505050815260200160038201805461119990612d82565b80601f01602080910402602001604051908101604052809291908181526020018280546111c590612d82565b80156112125780601f106111e757610100808354040283529160200191611212565b820191906000526020600020905b8154815290600101906020018083116111f557829003601f168201915b50505091835250506004820154602082015260058201546040820152600682015460608201526007820154608082015260088201546001600160a01b03811660a0830152600160a01b900460ff16151560c082015260098201805460e09092019161127c90612d82565b80601f01602080910402602001604051908101604052809291908181526020018280546112a890612d82565b80156112f55780601f106112ca576101008083540402835291602001916112f5565b820191906000526020600020905b8154815290600101906020018083116112d857829003601f168201915b5050505050815250509050919050565b60006001600160a01b038216611331576040516322718ad960e21b815260006004820152602401610cc8565b506001600160a01b031660009081526003602052604090205490565b611355611c09565b61135f6000611c36565b565b611369612786565b6000828152600f6020908152604080832054808452600e835292819020815161016081019092528054825260018101805492939192918401916113ab90612d82565b80601f01602080910402602001604051908101604052809291908181526020018280546113d790612d82565b80156114245780601f106113f957610100808354040283529160200191611424565b820191906000526020600020905b81548152906001019060200180831161140757829003601f168201915b5050505050815260200160028201805461143d90612d82565b80601f016020809104026020016040519081016040528092919081815260200182805461146990612d82565b80156114b65780601f1061148b576101008083540402835291602001916114b6565b820191906000526020600020905b81548152906001019060200180831161149957829003601f168201915b505050505081526020016003820180546114cf90612d82565b80601f01602080910402602001604051908101604052809291908181526020018280546114fb90612d82565b80156115485780601f1061151d57610100808354040283529160200191611548565b820191906000526020600020905b81548152906001019060200180831161152b57829003601f168201915b50505091835250506004820154602082015260058201546040820152600682015460608201526007820154608082015260088201546001600160a01b03811660a0830152600160a01b900460ff16151560c082015260098201805460e0909201916115b290612d82565b80601f01602080910402602001604051908101604052809291908181526020018280546115de90612d82565b801561162b5780601f106116005761010080835404028352916020019161162b565b820191906000526020600020905b81548152906001019060200180831161160e57829003601f168201915b505050505081525050915050919050565b3360009081526010602052604090205460ff16806116645750600b546001600160a01b031633145b6116ab5760405162461bcd60e51b81526020600482015260186024820152772737ba1030baba3437b934bd32b21037b933b0b734bd32b960411b6044820152606401610cc8565b6000828152600e60205260409020600801546001600160a01b031633146117145760405162461bcd60e51b815260206004820152601760248201527f4e6f7420746865206576656e74206f7267616e697a65720000000000000000006044820152606401610cc8565b6000828152600e6020526040908190206008018054831515600160a01b0260ff60a01b199091161790555182907f69a1d308f60ea7e097a1ac547a3a0776b9c2e05d34084ce48e044df8f45e7cb29061177290841515815260200190565b60405180910390a25050565b60606001805461064490612d82565b6106fb338383611c88565b6117a3848484610e97565b610f1c84848484611d27565b606061062f82611e50565b3360009081526010602052604081205460ff16806117e25750600b546001600160a01b031633145b6118295760405162461bcd60e51b81526020600482015260186024820152772737ba1030baba3437b934bd32b21037b933b0b734bd32b960411b6044820152606401610cc8565b4285116118785760405162461bcd60e51b815260206004820181905260248201527f4576656e742064617465206d75737420626520696e20746865206675747572656044820152606401610cc8565b600083116118d35760405162461bcd60e51b815260206004820152602260248201527f4d6178207469636b657473206d7573742062652067726561746572207468616e604482015261020360f41b6064820152608401610cc8565b601180549060006118e383612de5565b9091555050601154604080516101608101825282815260208082018c81528284018c9052606083018b9052608083018a905260a0830189905260c08301889052600060e0840181905233610100850152600161012085018190526101408501899052868252600e90935293909320825181559251919291908201906119689082612e62565b506040820151600282019061197d9082612e62565b50606082015160038201906119929082612e62565b506080820151600482015560a0820151600582015560c0820151600682015560e082015160078201556101008201516008820180546101208501511515600160a01b026001600160a81b03199091166001600160a01b03909316929092179190911790556101408201516009820190611a0b9082612e62565b50905050336001600160a01b0316817f40fb05b814a900c99fa0a76d919dfdeaf3389540e4ca70f97ba40ca9a38f37978b604051611a49919061286e565b60405180910390a398975050505050505050565b611a65611c09565b6001600160a01b03166000908152601060205260409020805460ff19166001179055565b6001600160a01b03918216600090815260056020908152604080832093909416825291909152205460ff1690565b611abf611c09565b6001600160a01b038116611ae957604051631e4fbdf760e01b815260006004820152602401610cc8565b611af281611c36565b50565b60006001600160e01b03198216632483248360e11b148061062f575061062f82611f76565b6000818152600260205260408120546001600160a01b03168061062f57604051637e27328960e01b815260048101849052602401610cc8565b610fa28383836001611f9b565b6002600c5403611b8357604051633ee5aeb560e01b815260040160405180910390fd5b6002600c55565b6106fb8282604051806020016040528060008152506120a1565b6000828152600a60205260409020611bbc8282612e62565b506040518281527ff8e1a15aba9398e019f0b49df1a4fde98ee17ae345cb5f6b5e2c27f5033e8ce79060200160405180910390a15050565b6000611c018484846120b8565b949350505050565b600b546001600160a01b0316331461135f5760405163118cdaa760e01b8152336004820152602401610cc8565b600b80546001600160a01b038381166001600160a01b0319831681179093556040519116919082907f8be0079c531659141344cd1fd0a4f28419497f9722a3daafe3b4186f6b6457e090600090a35050565b6001600160a01b038216611cba57604051630b61174360e31b81526001600160a01b0383166004820152602401610cc8565b6001600160a01b03838116600081815260056020908152604080832094871680845294825291829020805460ff191686151590811790915591519182527f17307eab39ab6107e8899845ad3d59bd9653f200f220920489ca2b5937696c31910160405180910390a3505050565b6001600160a01b0383163b15610f1c57604051630a85bd0160e11b81526001600160a01b0384169063150b7a0290611d69903390889087908790600401612f22565b6020604051808303816000875af1925050508015611da4575060408051601f3d908101601f19168201909252611da191810190612f55565b60015b611e0d573d808015611dd2576040519150601f19603f3d011682016040523d82523d6000602084013e611dd7565b606091505b508051600003611e0557604051633250574960e11b81526001600160a01b0385166004820152602401610cc8565b805181602001fd5b6001600160e01b03198116630a85bd0160e11b14611e4957604051633250574960e11b81526001600160a01b0385166004820152602401610cc8565b5050505050565b6060611e5b82611b1a565b506000828152600a602052604081208054611e7590612d82565b80601f0160208091040260200160405190810160405280929190818152602001828054611ea190612d82565b8015611eee5780601f10611ec357610100808354040283529160200191611eee565b820191906000526020600020905b815481529060010190602001808311611ed157829003601f168201915b505050505090506000611f2960408051808201909152601581527468747470733a2f2f697066732e696f2f697066732f60581b602082015290565b90508051600003611f3b575092915050565b815115611f6d578082604051602001611f55929190612f72565b60405160208183030381529060405292505050919050565b611c0184612185565b60006001600160e01b0319821663780e9d6360e01b148061062f575061062f82612216565b8080611faf57506001600160a01b03821615155b15612071576000611fbf84611b1a565b90506001600160a01b03831615801590611feb5750826001600160a01b0316816001600160a01b031614155b8015611ffe5750611ffc8184611a89565b155b156120275760405163a9fbf51f60e01b81526001600160a01b0384166004820152602401610cc8565b811561206f5783856001600160a01b0316826001600160a01b03167f8c5be1e5ebec7d5bd14f71427d1e84f3dd0314c0f7b2291e5b200ac8c7c3b92560405160405180910390a45b505b5050600090815260046020526040902080546001600160a01b0319166001600160a01b0392909216919091179055565b6120ab8383612266565b610fa26000848484611d27565b6000806120c68585856122cb565b90506001600160a01b0381166121235761211e84600880546000838152600960205260408120829055600182018355919091527ff3f7a9fe364faab93b216da50a3214154f22a0a2b415b23a84c8169e8b636ee30155565b612146565b846001600160a01b0316816001600160a01b0316146121465761214681856123c4565b6001600160a01b0385166121625761215d84612455565b611c01565b846001600160a01b0316816001600160a01b031614611c0157611c018585612504565b606061219082611b1a565b5060006121c560408051808201909152601581527468747470733a2f2f697066732e696f2f697066732f60581b602082015290565b905060008151116121e55760405180602001604052806000815250610c5c565b806121ef84612554565b604051602001612200929190612f72565b6040516020818303038152906040529392505050565b60006001600160e01b031982166380ac58cd60e01b148061224757506001600160e01b03198216635b5e139f60e01b145b8061062f57506301ffc9a760e01b6001600160e01b031983161461062f565b6001600160a01b03821661229057604051633250574960e11b815260006004820152602401610cc8565b600061229e83836000611bf4565b90506001600160a01b03811615610fa2576040516339e3563760e11b815260006004820152602401610cc8565b6000828152600260205260408120546001600160a01b03908116908316156122f8576122f88184866125e7565b6001600160a01b0381161561233657612315600085600080611f9b565b6001600160a01b038116600090815260036020526040902080546000190190555b6001600160a01b03851615612365576001600160a01b0385166000908152600360205260409020805460010190555b60008481526002602052604080822080546001600160a01b0319166001600160a01b0389811691821790925591518793918516917fddf252ad1be2c89b69c2b068fc378daa952ba7f163c4a11628f55a4df523b3ef91a4949350505050565b60006123cf83611305565b600083815260076020526040902054909150808214612422576001600160a01b03841660009081526006602090815260408083208584528252808320548484528184208190558352600790915290208190555b5060009182526007602090815260408084208490556001600160a01b039094168352600681528383209183525290812055565b60085460009061246790600190612dd2565b6000838152600960205260408120546008805493945090928490811061248f5761248f612dfe565b9060005260206000200154905080600883815481106124b0576124b0612dfe565b60009182526020808320909101929092558281526009909152604080822084905585825281205560088054806124e8576124e8612fa1565b6001900381819060005260206000200160009055905550505050565b6000600161251184611305565b61251b9190612dd2565b6001600160a01b039093166000908152600660209081526040808320868452825280832085905593825260079052919091209190915550565b606060006125618361264b565b600101905060008167ffffffffffffffff81111561258157612581612979565b6040519080825280601f01601f1916602001820160405280156125ab576020820181803683370190505b5090508181016020015b600019016f181899199a1a9b1b9c1cb0b131b232b360811b600a86061a8153600a85049450846125b557509392505050565b6125f2838383612723565b610fa2576001600160a01b03831661262057604051637e27328960e01b815260048101829052602401610cc8565b60405163177e802f60e01b81526001600160a01b038316600482015260248101829052604401610cc8565b60008072184f03e93ff9f4daa797ed6e38ed64bf6a1f0160401b831061268a5772184f03e93ff9f4daa797ed6e38ed64bf6a1f0160401b830492506040015b6d04ee2d6d415b85acef810000000083106126b6576d04ee2d6d415b85acef8100000000830492506020015b662386f26fc1000083106126d457662386f26fc10000830492506010015b6305f5e10083106126ec576305f5e100830492506008015b612710831061270057612710830492506004015b60648310612712576064830492506002015b600a831061062f5760010192915050565b60006001600160a01b03831615801590611c015750826001600160a01b0316846001600160a01b0316148061275d575061275d8484611a89565b80611c015750506000908152600460205260409020546001600160a01b03908116911614919050565b604051806101600160405280600081526020016060815260200160608152602001606081526020016000815260200160008152602001600081526020016000815260200160006001600160a01b03168152602001600015158152602001606081525090565b6001600160e01b031981168114611af257600080fd5b60006020828403121561281357600080fd5b8135610c5c816127eb565b60005b83811015612839578181015183820152602001612821565b50506000910152565b6000815180845261285a81602086016020860161281e565b601f01601f19169290920160200192915050565b602081526000610c5c6020830184612842565b60006020828403121561289357600080fd5b5035919050565b80356001600160a01b03811681146128b157600080fd5b919050565b600080604083850312156128c957600080fd5b6128d28361289a565b946020939093013593505050565b60006101608d83528060208401526128fa8184018e612842565b9050828103604084015261290e818d612842565b90508281036060840152612922818c612842565b90508960808401528860a08401528760c08401528660e084015260018060a01b0386166101008401528415156101208401528281036101408401526129678185612842565b9e9d5050505050505050505050505050565b634e487b7160e01b600052604160045260246000fd5b600067ffffffffffffffff808411156129aa576129aa612979565b604051601f8501601f19908116603f011681019082821181831017156129d2576129d2612979565b816040528093508581528686860111156129eb57600080fd5b858560208301376000602087830101525050509392505050565b600082601f830112612a1657600080fd5b610c5c8383356020850161298f565b60008060408385031215612a3857600080fd5b82359150602083013567ffffffffffffffff811115612a5657600080fd5b612a6285828601612a05565b9150509250929050565b600080600060608486031215612a8157600080fd5b612a8a8461289a565b9250612a986020850161289a565b9150604084013590509250925092565b600060208284031215612aba57600080fd5b610c5c8261289a565b602081528151602082015260006020830151610160806040850152612aec610180850183612842565b91506040850151601f1980868503016060870152612b0a8483612842565b93506060870151915080868503016080870152612b278483612842565b9350608087015160a087015260a087015160c087015260c087015160e087015260e08701519150610100828188015280880151925050610120612b74818801846001600160a01b03169052565b8701519150610140612b898782018415159052565b870151868503909101838701529050612ba28382612842565b9695505050505050565b803580151581146128b157600080fd5b60008060408385031215612bcf57600080fd5b82359150612bdf60208401612bac565b90509250929050565b60008060408385031215612bfb57600080fd5b612c048361289a565b9150612bdf60208401612bac565b60008060008060808587031215612c2857600080fd5b612c318561289a565b9350612c3f6020860161289a565b925060408501359150606085013567ffffffffffffffff811115612c6257600080fd5b8501601f81018713612c7357600080fd5b612c828782356020840161298f565b91505092959194509250565b600080600080600080600060e0888a031215612ca957600080fd5b873567ffffffffffffffff80821115612cc157600080fd5b612ccd8b838c01612a05565b985060208a0135915080821115612ce357600080fd5b612cef8b838c01612a05565b975060408a0135915080821115612d0557600080fd5b612d118b838c01612a05565b965060608a0135955060808a0135945060a08a0135935060c08a0135915080821115612d3c57600080fd5b50612d498a828b01612a05565b91505092959891949750929550565b60008060408385031215612d6b57600080fd5b612d748361289a565b9150612bdf6020840161289a565b600181811c90821680612d9657607f821691505b602082108103612db657634e487b7160e01b600052602260045260246000fd5b50919050565b634e487b7160e01b600052601160045260246000fd5b8181038181111561062f5761062f612dbc565b600060018201612df757612df7612dbc565b5060010190565b634e487b7160e01b600052603260045260246000fd5b601f821115610fa257600081815260208120601f850160051c81016020861015612e3b5750805b601f850160051c820191505b81811015612e5a57828155600101612e47565b505050505050565b815167ffffffffffffffff811115612e7c57612e7c612979565b612e9081612e8a8454612d82565b84612e14565b602080601f831160018114612ec55760008415612ead5750858301515b600019600386901b1c1916600185901b178555612e5a565b600085815260208120601f198616915b82811015612ef457888601518255948401946001909101908401612ed5565b5085821015612f125787850151600019600388901b60f8161c191681555b5050505050600190811b01905550565b6001600160a01b0385811682528416602082015260408101839052608060608201819052600090612ba290830184612842565b600060208284031215612f6757600080fd5b8151610c5c816127eb565b60008351612f8481846020880161281e565b835190830190612f9881836020880161281e565b01949350505050565b634e487b7160e01b600052603160045260246000fdfea2646970667358221220c732f6f7028125a506049cc9f9e2ac0c3e76d028f4c9c1620654e3b4935d467764736f6c63430008140033",
  "devdoc": {
    "errors": {
      "ERC721EnumerableForbiddenBatchMint()": [
        {
          "details": "Batch mint is not allowed."
        }
      ],
      "ERC721IncorrectOwner(address,uint256,address)": [
        {
          "details": "Indicates an error related to the ownership over a particular token. Used in transfers.",
          "params": {
            "owner": "Address of the current owner of a token.",
            "sender": "Address whose tokens are being transferred.",
            "tokenId": "Identifier number of a token."
          }
        }
      ],
      "ERC721InsufficientApproval(address,uint256)": [
        {
          "details": "Indicates a failure with the `operator`s approval. Used in transfers.",
          "params": {
            "operator": "Address that may be allowed to operate on tokens without being their owner.",
            "tokenId": "Identifier number of a token."
          }
        }
      ],
      "ERC721InvalidApprover(address)": [
        {
          "details": "Indicates a failure with the `approver` of a token to be approved. Used in approvals.",
          "params": {
            "approver": "Address initiating an approval operation."
          }
        }
      ],
      "ERC721InvalidOperator(address)": [
        {
          "details": "Indicates a failure with the `operator` to be approved. Used in approvals.",
          "params": {
            "operator": "Address that may be allowed to operate on tokens without being their owner."
          }
        }
      ],
      "ERC721InvalidOwner(address)": [
        {
          "details": "Indicates that an address can't be an owner. For example, `address(0)` is a forbidden owner in EIP-20. Used in balance queries.",
          "params": {
            "owner": "Address of the current owner of a token."
          }
        }
      ],
      "ERC721InvalidReceiver(address)": [
        {
          "details": "Indicates a failure with the token `receiver`. Used in transfers.",
          "params": {
            "receiver": "Address to which tokens are being transferred."
          }
        }
      ],
      "ERC721InvalidSender(address)": [
        {
          "details": "Indicates a failure with the token `sender`. Used in transfers.",
          "params": {
            "sender": "Address whose tokens are being transferred."
          }
        }
      ],
      "ERC721NonexistentToken(uint256)": [
        {
          "details": "Indicates a `tokenId` whose `owner` is the zero address.",
          "params": {
            "tokenId": "Identifier number of a token."
          }
        }
      ],
      "ERC721OutOfBoundsIndex(address,uint256)": [
        {
          "details": "An `owner`'s token query was out of bounds for `index`. NOTE: The owner being `address(0)` indicates a global out of bounds index."
        }
      ],
      "OwnableInvalidOwner(address)": [
        {
          "details": "The owner is not a valid owner account. (eg. `address(0)`)"
        }
      ],
      "OwnableUnauthorizedAccount(address)": [
        {
          "details": "The caller account is not authorized to perform an operation."
        }
      ],
      "ReentrancyGuardReentrantCall()": [
        {
          "details": "Unauthorized reentrant call."
        }
      ]
    },
    "events": {
      "Approval(address,address,uint256)": {
        "details": "Emitted when `owner` enables `approved` to manage the `tokenId` token."
      },
      "ApprovalForAll(address,address,bool)": {
        "details": "Emitted when `owner` enables or disables (`approved`) `operator` to manage all of its assets."
      },
      "BatchMetadataUpdate(uint256,uint256)": {
        "details": "This event emits when the metadata of a range of tokens is changed. So that the third-party platforms such as NFT market could timely update the images and related attributes of the NFTs."
      },
      "MetadataUpdate(uint256)": {
        "details": "This event emits when the metadata of a token is changed. So that the third-party platforms such as NFT market could timely update the images and related attributes of the NFT."
      },
      "Transfer(address,address,uint256)": {
        "details": "Emitted when `tokenId` token is transferred from `from` to `to`."
      }
    },
    "kind": "dev",
    "methods": {
      "approve(address,uint256)": {
        "details": "See {IERC721-approve}."
      },
      "balanceOf(address)": {
        "details": "See {IERC721-balanceOf}."
      },
      "getApproved(uint256)": {
        "details": "See {IERC721-getApproved}."
      },
      "isApprovedForAll(address,address)": {
        "details": "See {IERC721-isApprovedForAll}."
      },
      "name()": {
        "details": "See {IERC721Metadata-name}."
      },
      "owner()": {
        "details": "Returns the address of the current owner."
      },
      "ownerOf(uint256)": {
        "details": "See {IERC721-ownerOf}."
      },
      "renounceOwnership()": {
        "details": "Leaves the contract without owner. It will not be possible to call `onlyOwner` functions. Can only be called by the current owner. NOTE: Renouncing ownership will leave the contract without an owner, thereby disabling any functionality that is only available to the owner."
      },
      "safeTransferFrom(address,address,uint256)": {
        "details": "See {IERC721-safeTransferFrom}."
      },
      "safeTransferFrom(address,address,uint256,bytes)": {
        "details": "See {IERC721-safeTransferFrom}."
      },
      "setApprovalForAll(address,bool)": {
        "details": "See {IERC721-setApprovalForAll}."
      },
      "symbol()": {
        "details": "See {IERC721Metadata-symbol}."
      },
      "tokenByIndex(uint256)": {
        "details": "See {IERC721Enumerable-tokenByIndex}."
      },
      "tokenOfOwnerByIndex(address,uint256)": {
        "details": "See {IERC721Enumerable-tokenOfOwnerByIndex}."
      },
      "totalSupply()": {
        "details": "See {IERC721Enumerable-totalSupply}."
      },
      "transferFrom(address,address,uint256)": {
        "details": "See {IERC721-transferFrom}."
      },
      "transferOwnership(address)": {
        "details": "Transfers ownership of the contract to a new account (`newOwner`). Can only be called by the current owner."
      }
    },
    "version": 1
  },
  "userdoc": {
    "kind": "user",
    "methods": {},
    "version": 1
  },
  "storageLayout": {
    "storage": [
      {
        "astId": 349,
        "contract": "contracts/EventTicket.sol:EventTicket",
        "label": "_name",
        "offset": 0,
        "slot": "0",
        "type": "t_string_storage"
      },
      {
        "astId": 351,
        "contract": "contracts/EventTicket.sol:EventTicket",
        "label": "_symbol",
        "offset": 0,
        "slot": "1",
        "type": "t_string_storage"
      },
      {
        "astId": 355,
        "contract": "contracts/EventTicket.sol:EventTicket",
        "label": "_owners",
        "offset": 0,
        "slot": "2",
        "type": "t_mapping(t_uint256,t_address)"
      },
      {
        "astId": 359,
        "contract": "contracts/EventTicket.sol:EventTicket",
        "label": "_balances",
        "offset": 0,
        "slot": "3",
        "type": "t_mapping(t_address,t_uint256)"
      },
      {
        "astId": 363,
        "contract": "contracts/EventTicket.sol:EventTicket",
        "label": "_tokenApprovals",
        "offset": 0,
        "slot": "4",
        "type": "t_mapping(t_uint256,t_address)"
      },
      {
        "astId": 369,
        "contract": "contracts/EventTicket.sol:EventTicket",
        "label": "_operatorApprovals",
        "offset": 0,
        "slot": "5",
        "type": "t_mapping(t_address,t_mapping(t_address,t_bool))"
      },
      {
        "astId": 1479,
        "contract": "contracts/EventTicket.sol:EventTicket",
        "label": "_ownedTokens",
        "offset": 0,
        "slot": "6",
        "type": "t_mapping(t_address,t_mapping(t_uint256,t_uint256))"
      },
      {
        "astId": 1483,
        "contract": "contracts/EventTicket.sol:EventTicket",
        "label": "_ownedTokensIndex",
        "offset": 0,
        "slot": "7",
        "type": "t_mapping(t_uint256,t_uint256)"
      },
      {
        "astId": 1486,
        "contract": "contracts/EventTicket.sol:EventTicket",
        "label": "_allTokens",
        "offset": 0,
        "slot": "8",
        "type": "t_array(t_uint256)dyn_storage"
      },
      {
        "astId": 1490,
        "contract": "contracts/EventTicket.sol:EventTicket",
        "label": "_allTokensIndex",
        "offset": 0,
        "slot": "9",
        "type": "t_mapping(t_uint256,t_uint256)"
      },
      {
        "astId": 1872,
        "contract": "contracts/EventTicket.sol:EventTicket",
        "label": "_tokenURIs",
        "offset": 0,
        "slot": "10",
        "type": "t_mapping(t_uint256,t_string_storage)"
      },
      {
        "astId": 8,
        "contract": "contracts/EventTicket.sol:EventTicket",
        "label": "_owner",
        "offset": 0,
        "slot": "11",
        "type": "t_address"
      },
      {
        "astId": 2071,
        "contract": "contracts/EventTicket.sol:EventTicket",
        "label": "_status",
        "offset": 0,
        "slot": "12",
        "type": "t_uint256"
      },
      {
        "astId": 3598,
        "contract": "contracts/EventTicket.sol:EventTicket",
        "label": "tokenIdCounter",
        "offset": 0,
        "slot": "13",
        "type": "t_uint256"
      },
      {
        "astId": 3626,
        "contract": "contracts/EventTicket.sol:EventTicket",
        "label": "events",
        "offset": 0,
        "slot": "14",
        "type": "t_mapping(t_uint256,t_struct(Event)3621_storage)"
      },
      {
        "astId": 3630,
        "contract": "contracts/EventTicket.sol:EventTicket",
        "label": "tokenToEvent",
        "offset": 0,
        "slot": "15",
        "type": "t_mapping(t_uint256,t_uint256)"
      },
      {
        "astId": 3634,
        "contract": "contracts/EventTicket.sol:EventTicket",
        "label": "eventOrganizers",
        "offset": 0,
        "slot": "16",
        "type": "t_mapping(t_address,t_bool)"
      },
      {
        "astId": 3636,
        "contract": "contracts/EventTicket.sol:EventTicket",
        "label": "eventIdCounter",
        "offset": 0,
        "slot": "17",
        "type": "t_uint256"
      }
    ],
    "types": {
      "t_address": {
        "encoding": "inplace",
        "label": "address",
        "numberOfBytes": "20"
      },
      "t_array(t_uint256)dyn_storage": {
        "base": "t_uint256",
        "encoding": "dynamic_array",
        "label": "uint256[]",
        "numberOfBytes": "32"
      },
      "t_bool": {
        "encoding": "inplace",
        "label": "bool",
        "numberOfBytes": "1"
      },
      "t_mapping(t_address,t_bool)": {
        "encoding": "mapping",
        "key": "t_address",
        "label": "mapping(address => bool)",
        "numberOfBytes": "32",
        "value": "t_bool"
      },
      "t_mapping(t_address,t_mapping(t_address,t_bool))": {
        "encoding": "mapping",
        "key": "t_address",
        "label": "mapping(address => mapping(address => bool))",
        "numberOfBytes": "32",
        "value": "t_mapping(t_address,t_bool)"
      },
      "t_mapping(t_address,t_mapping(t_uint256,t_uint256))": {
        "encoding": "mapping",
        "key": "t_address",
        "label": "mapping(address => mapping(uint256 => uint256))",
        "numberOfBytes": "32",
        "value": "t_mapping(t_uint256,t_uint256)"
      },
      "t_mapping(t_address,t_uint256)": {
        "encoding": "mapping",
        "key": "t_address",
        "label": "mapping(address => uint256)",
        "numberOfBytes": "32",
        "value": "t_uint256"
      },
      "t_mapping(t_uint256,t_address)": {
        "encoding": "mapping",
        "key": "t_uint256",
        "label": "mapping(uint256 => address)",
        "numberOfBytes": "32",
        "value": "t_address"
      },
      "t_mapping(t_uint256,t_string_storage)": {
        "encoding": "mapping",
        "key": "t_uint256",
        "label": "mapping(uint256 => string)",
        "numberOfBytes": "32",
        "value": "t_string_storage"
      },
      "t_mapping(t_uint256,t_struct(Event)3621_storage)": {
        "encoding": "mapping",
        "key": "t_uint256",
        "label": "mapping(uint256 => struct EventTicket.Event)",
        "numberOfBytes": "32",
        "value": "t_struct(Event)3621_storage"
      },
      "t_mapping(t_uint256,t_uint256)": {
        "encoding": "mapping",
        "key": "t_uint256",
        "label": "mapping(uint256 => uint256)",
        "numberOfBytes": "32",
        "value": "t_uint256"
      },
      "t_string_storage": {
        "encoding": "bytes",
        "label": "string",
        "numberOfBytes": "32"
      },
      "t_struct(Event)3621_storage": {
        "encoding": "inplace",
        "label": "struct EventTicket.Event",
        "members": [
          {
            "astId": 3600,
            "contract": "contracts/EventTicket.sol:EventTicket",
            "label": "eventId",
            "offset": 0,
            "slot": "0",
            "type": "t_uint256"
          },
          {
            "astId": 3602,
            "contract": "contracts/EventTicket.sol:EventTicket",
            "label": "name",
            "offset": 0,
            "slot": "1",
            "type": "t_string_storage"
          },
          {
            "astId": 3604,
            "contract": "contracts/EventTicket.sol:EventTicket",
            "label": "description",
            "offset": 0,
            "slot": "2",
            "type": "t_string_storage"
          },
          {
            "astId": 3606,
            "contract": "contracts/EventTicket.sol:EventTicket",
            "label": "location",
            "offset": 0,
            "slot": "3",
            "type": "t_string_storage"
          },
          {
            "astId": 3608,
            "contract": "contracts/EventTicket.sol:EventTicket",
            "label": "eventDate",
            "offset": 0,
            "slot": "4",
            "type": "t_uint256"
          },
          {
            "astId": 3610,
            "contract": "contracts/EventTicket.sol:EventTicket",
            "label": "ticketPrice",
            "offset": 0,
            "slot": "5",
            "type": "t_uint256"
          },
          {
            "astId": 3612,
            "contract": "contracts/EventTicket.sol:EventTicket",
            "label": "maxTickets",
            "offset": 0,
            "slot": "6",
            "type": "t_uint256"
          },
          {
            "astId": 3614,
            "contract": "contracts/EventTicket.sol:EventTicket",
            "label": "ticketsSold",
            "offset": 0,
            "slot": "7",
            "type": "t_uint256"
          },
          {
            "astId": 3616,
            "contract": "contracts/EventTicket.sol:EventTicket",
            "label": "organizer",
            "offset": 0,
            "slot": "8",
            "type": "t_address"
          },
          {
            "astId": 3618,
            "contract": "contracts/EventTicket.sol:EventTicket",
            "label": "isActive",
            "offset": 20,
            "slot": "8",
            "type": "t_bool"
          },
          {
            "astId": 3620,
            "contract": "contracts/EventTicket.sol:EventTicket",
            "label": "imageUri",
            "offset": 0,
            "slot": "9",
            "type": "t_string_storage"
          }
        ],
        "numberOfBytes": "320"
      },
      "t_uint256": {
        "encoding": "inplace",
        "label": "uint256",
        "numberOfBytes": "32"
      }
    }
  }
}