{
  "_format": "hh-sol-artifact-1",
  "contractName": "YourCollectible",
  "sourceName": "contracts/YourCollectible.sol",
  "abi": [
    {
      "inputs": [],
      "stateMutability": "nonpayable",
      "type": "constructor"
    },
    {
      "inputs": [],
      "name": "ERC721EnumerableForbiddenBatchMint",
      "type": "error"
    },
    {
      "inputs": [
        {
          "internalType": "address",
          "name": "sender",
          "type": "address"
        },
        {
          "internalType": "uint256",
          "name": "tokenId",
          "type": "uint256"
        },
        {
          "internalType": "address",
          "name": "owner",
          "type": "address"
        }
      ],
      "name": "ERC721IncorrectOwner",
      "type": "error"
    },
    {
      "inputs": [
        {
          "internalType": "address",
          "name": "operator",
          "type": "address"
        },
        {
          "internalType": "uint256",
          "name": "tokenId",
          "type": "uint256"
        }
      ],
      "name": "ERC721InsufficientApproval",
      "type": "error"
    },
    {
      "inputs": [
        {
          "internalType": "address",
          "name": "approver",
          "type": "address"
        }
      ],
      "name": "ERC721InvalidApprover",
      "type": "error"
    },
    {
      "inputs": [
        {
          "internalType": "address",
          "name": "operator",
          "type": "address"
        }
      ],
      "name": "ERC721InvalidOperator",
      "type": "error"
    },
    {
      "inputs": [
        {
          "internalType": "address",
          "name": "owner",
          "type": "address"
        }
      ],
      "name": "ERC721InvalidOwner",
      "type": "error"
    },
    {
      "inputs": [
        {
          "internalType": "address",
          "name": "receiver",
          "type": "address"
        }
      ],
      "name": "ERC721InvalidReceiver",
      "type": "error"
    },
    {
      "inputs": [
        {
          "internalType": "address",
          "name": "sender",
          "type": "address"
        }
      ],
      "name": "ERC721InvalidSender",
      "type": "error"
    },
    {
      "inputs": [
        {
          "internalType": "uint256",
          "name": "tokenId",
          "type": "uint256"
        }
      ],
      "name": "ERC721NonexistentToken",
      "type": "error"
    },
    {
      "inputs": [
        {
          "internalType": "address",
          "name": "owner",
          "type": "address"
        },
        {
          "internalType": "uint256",
          "name": "index",
          "type": "uint256"
        }
      ],
      "name": "ERC721OutOfBoundsIndex",
      "type": "error"
    },
    {
      "inputs": [
        {
          "internalType": "address",
          "name": "owner",
          "type": "address"
        }
      ],
      "name": "OwnableInvalidOwner",
      "type": "error"
    },
    {
      "inputs": [
        {
          "internalType": "address",
          "name": "account",
          "type": "address"
        }
      ],
      "name": "OwnableUnauthorizedAccount",
      "type": "error"
    },
    {
      "anonymous": false,
      "inputs": [
        {
          "indexed": true,
          "internalType": "address",
          "name": "owner",
          "type": "address"
        },
        {
          "indexed": true,
          "internalType": "address",
          "name": "approved",
          "type": "address"
        },
        {
          "indexed": true,
          "internalType": "uint256",
          "name": "tokenId",
          "type": "uint256"
        }
      ],
      "name": "Approval",
      "type": "event"
    },
    {
      "anonymous": false,
      "inputs": [
        {
          "indexed": true,
          "internalType": "address",
          "name": "owner",
          "type": "address"
        },
        {
          "indexed": true,
          "internalType": "address",
          "name": "operator",
          "type": "address"
        },
        {
          "indexed": false,
          "internalType": "bool",
          "name": "approved",
          "type": "bool"
        }
      ],
      "name": "ApprovalForAll",
      "type": "event"
    },
    {
      "anonymous": false,
      "inputs": [
        {
          "indexed": false,
          "internalType": "uint256",
          "name": "_fromTokenId",
          "type": "uint256"
        },
        {
          "indexed": false,
          "internalType": "uint256",
          "name": "_toTokenId",
          "type": "uint256"
        }
      ],
      "name": "BatchMetadataUpdate",
      "type": "event"
    },
    {
      "anonymous": false,
      "inputs": [
        {
          "indexed": false,
          "internalType": "uint256",
          "name": "_tokenId",
          "type": "uint256"
        }
      ],
      "name": "MetadataUpdate",
      "type": "event"
    },
    {
      "anonymous": false,
      "inputs": [
        {
          "indexed": true,
          "internalType": "address",
          "name": "previousOwner",
          "type": "address"
        },
        {
          "indexed": true,
          "internalType": "address",
          "name": "newOwner",
          "type": "address"
        }
      ],
      "name": "OwnershipTransferred",
      "type": "event"
    },
    {
      "anonymous": false,
      "inputs": [
        {
          "indexed": true,
          "internalType": "address",
          "name": "from",
          "type": "address"
        },
        {
          "indexed": true,
          "internalType": "address",
          "name": "to",
          "type": "address"
        },
        {
          "indexed": true,
          "internalType": "uint256",
          "name": "tokenId",
          "type": "uint256"
        }
      ],
      "name": "Transfer",
      "type": "event"
    },
    {
      "inputs": [
        {
          "internalType": "address",
          "name": "to",
          "type": "address"
        },
        {
          "internalType": "uint256",
          "name": "tokenId",
          "type": "uint256"
        }
      ],
      "name": "approve",
      "outputs": [],
      "stateMutability": "nonpayable",
      "type": "function"
    },
    {
      "inputs": [
        {
          "internalType": "address",
          "name": "owner",
          "type": "address"
        }
      ],
      "name": "balanceOf",
      "outputs": [
        {
          "internalType": "uint256",
          "name": "",
          "type": "uint256"
        }
      ],
      "stateMutability": "view",
      "type": "function"
    },
    {
      "inputs": [
        {
          "internalType": "uint256",
          "name": "tokenId",
          "type": "uint256"
        }
      ],
      "name": "getApproved",
      "outputs": [
        {
          "internalType": "address",
          "name": "",
          "type": "address"
        }
      ],
      "stateMutability": "view",
      "type": "function"
    },
    {
      "inputs": [
        {
          "internalType": "address",
          "name": "owner",
          "type": "address"
        },
        {
          "internalType": "address",
          "name": "operator",
          "type": "address"
        }
      ],
      "name": "isApprovedForAll",
      "outputs": [
        {
          "internalType": "bool",
          "name": "",
          "type": "bool"
        }
      ],
      "stateMutability": "view",
      "type": "function"
    },
    {
      "inputs": [
        {
          "internalType": "address",
          "name": "to",
          "type": "address"
        },
        {
          "internalType": "string",
          "name": "uri",
          "type": "string"
        }
      ],
      "name": "mintItem",
      "outputs": [
        {
          "internalType": "uint256",
          "name": "",
          "type": "uint256"
        }
      ],
      "stateMutability": "nonpayable",
      "type": "function"
    },
    {
      "inputs": [],
      "name": "name",
      "outputs": [
        {
          "internalType": "string",
          "name": "",
          "type": "string"
        }
      ],
      "stateMutability": "view",
      "type": "function"
    },
    {
      "inputs": [],
      "name": "owner",
      "outputs": [
        {
          "internalType": "address",
          "name": "",
          "type": "address"
        }
      ],
      "stateMutability": "view",
      "type": "function"
    },
    {
      "inputs": [
        {
          "internalType": "uint256",
          "name": "tokenId",
          "type": "uint256"
        }
      ],
      "name": "ownerOf",
      "outputs": [
        {
          "internalType": "address",
          "name": "",
          "type": "address"
        }
      ],
      "stateMutability": "view",
      "type": "function"
    },
    {
      "inputs": [],
      "name": "renounceOwnership",
      "outputs": [],
      "stateMutability": "nonpayable",
      "type": "function"
    },
    {
      "inputs": [
        {
          "internalType": "address",
          "name": "from",
          "type": "address"
        },
        {
          "internalType": "address",
          "name": "to",
          "type": "address"
        },
        {
          "internalType": "uint256",
          "name": "tokenId",
          "type": "uint256"
        }
      ],
      "name": "safeTransferFrom",
      "outputs": [],
      "stateMutability": "nonpayable",
      "type": "function"
    },
    {
      "inputs": [
        {
          "internalType": "address",
          "name": "from",
          "type": "address"
        },
        {
          "internalType": "address",
          "name": "to",
          "type": "address"
        },
        {
          "internalType": "uint256",
          "name": "tokenId",
          "type": "uint256"
        },
        {
          "internalType": "bytes",
          "name": "data",
          "type": "bytes"
        }
      ],
      "name": "safeTransferFrom",
      "outputs": [],
      "stateMutability": "nonpayable",
      "type": "function"
    },
    {
      "inputs": [
        {
          "internalType": "address",
          "name": "operator",
          "type": "address"
        },
        {
          "internalType": "bool",
          "name": "approved",
          "type": "bool"
        }
      ],
      "name": "setApprovalForAll",
      "outputs": [],
      "stateMutability": "nonpayable",
      "type": "function"
    },
    {
      "inputs": [
        {
          "internalType": "bytes4",
          "name": "interfaceId",
          "type": "bytes4"
        }
      ],
      "name": "supportsInterface",
      "outputs": [
        {
          "internalType": "bool",
          "name": "",
          "type": "bool"
        }
      ],
      "stateMutability": "view",
      "type": "function"
    },
    {
      "inputs": [],
      "name": "symbol",
      "outputs": [
        {
          "internalType": "string",
          "name": "",
          "type": "string"
        }
      ],
      "stateMutability": "view",
      "type": "function"
    },
    {
      "inputs": [
        {
          "internalType": "uint256",
          "name": "index",
          "type": "uint256"
        }
      ],
      "name": "tokenByIndex",
      "outputs": [
        {
          "internalType": "uint256",
          "name": "",
          "type": "uint256"
        }
      ],
      "stateMutability": "view",
      "type": "function"
    },
    {
      "inputs": [],
      "name": "tokenIdCounter",
      "outputs": [
        {
          "internalType": "uint256",
          "name": "",
          "type": "uint256"
        }
      ],
      "stateMutability": "view",
      "type": "function"
    },
    {
      "inputs": [
        {
          "internalType": "address",
          "name": "owner",
          "type": "address"
        },
        {
          "internalType": "uint256",
          "name": "index",
          "type": "uint256"
        }
      ],
      "name": "tokenOfOwnerByIndex",
      "outputs": [
        {
          "internalType": "uint256",
          "name": "",
          "type": "uint256"
        }
      ],
      "stateMutability": "view",
      "type": "function"
    },
    {
      "inputs": [
        {
          "internalType": "uint256",
          "name": "tokenId",
          "type": "uint256"
        }
      ],
      "name": "tokenURI",
      "outputs": [
        {
          "internalType": "string",
          "name": "",
          "type": "string"
        }
      ],
      "stateMutability": "view",
      "type": "function"
    },
    {
      "inputs": [],
      "name": "totalSupply",
      "outputs": [
        {
          "internalType": "uint256",
          "name": "",
          "type": "uint256"
        }
      ],
      "stateMutability": "view",
      "type": "function"
    },
    {
      "inputs": [
        {
          "internalType": "address",
          "name": "from",
          "type": "address"
        },
        {
          "internalType": "address",
          "name": "to",
          "type": "address"
        },
        {
          "internalType": "uint256",
          "name": "tokenId",
          "type": "uint256"
        }
      ],
      "name": "transferFrom",
      "outputs": [],
      "stateMutability": "nonpayable",
      "type": "function"
    },
    {
      "inputs": [
        {
          "internalType": "address",
          "name": "newOwner",
          "type": "address"
        }
      ],
      "name": "transferOwnership",
      "outputs": [],
      "stateMutability": "nonpayable",
      "type": "function"
    }
  ],
  "bytecode": "0x60806040523480156200001157600080fd5b50336040518060400160405280600f81526020016e596f7572436f6c6c65637469626c6560881b815250604051806040016040528060038152602001622ca1a160e91b8152508160009081620000689190620001b2565b506001620000778282620001b2565b5050506001600160a01b038116620000a957604051631e4fbdf760e01b81526000600482015260240160405180910390fd5b620000b481620000bb565b506200027e565b600b80546001600160a01b038381166001600160a01b0319831681179093556040519116919082907f8be0079c531659141344cd1fd0a4f28419497f9722a3daafe3b4186f6b6457e090600090a35050565b634e487b7160e01b600052604160045260246000fd5b600181811c908216806200013857607f821691505b6020821081036200015957634e487b7160e01b600052602260045260246000fd5b50919050565b601f821115620001ad57600081815260208120601f850160051c81016020861015620001885750805b601f850160051c820191505b81811015620001a95782815560010162000194565b5050505b505050565b81516001600160401b03811115620001ce57620001ce6200010d565b620001e681620001df845462000123565b846200015f565b602080601f8311600181146200021e5760008415620002055750858301515b600019600386901b1c1916600185901b178555620001a9565b600085815260208120601f198616915b828110156200024f578886015182559484019460019091019084016200022e565b50858210156200026e5787850151600019600388901b60f8161c191681555b5050505050600190811b01905550565b611856806200028e6000396000f3fe608060405234801561001057600080fd5b50600436106101375760003560e01c80636352211e116100b857806398bdf6f51161007c57806398bdf6f514610275578063a22cb4651461027e578063b88d4fde14610291578063c87b56dd146102a4578063e985e9c5146102b7578063f2fde38b146102ca57600080fd5b80636352211e1461022e57806370a0823114610241578063715018a6146102545780638da5cb5b1461025c57806395d89b411461026d57600080fd5b806318160ddd116100ff57806318160ddd146101da57806323b872dd146101e25780632f745c59146101f557806342842e0e146102085780634f6ccce71461021b57600080fd5b806301ffc9a71461013c57806306fdde0314610164578063081812fc14610179578063095ea7b3146101a4578063110bcd45146101b9575b600080fd5b61014f61014a3660046112da565b6102dd565b60405190151581526020015b60405180910390f35b61016c6102ee565b60405161015b9190611347565b61018c61018736600461135a565b610380565b6040516001600160a01b03909116815260200161015b565b6101b76101b236600461138f565b6103a9565b005b6101cc6101c7366004611445565b6103b8565b60405190815260200161015b565b6008546101cc565b6101b76101f03660046114a7565b6103ec565b6101cc61020336600461138f565b61047c565b6101b76102163660046114a7565b6104e1565b6101cc61022936600461135a565b610501565b61018c61023c36600461135a565b61055a565b6101cc61024f3660046114e3565b610565565b6101b76105ad565b600b546001600160a01b031661018c565b61016c6105c1565b6101cc600c5481565b6101b761028c3660046114fe565b6105d0565b6101b761029f36600461153a565b6105db565b61016c6102b236600461135a565b6105f3565b61014f6102c53660046115b6565b6105fe565b6101b76102d83660046114e3565b61062c565b60006102e88261066a565b92915050565b6060600080546102fd906115e9565b80601f0160208091040260200160405190810160405280929190818152602001828054610329906115e9565b80156103765780601f1061034b57610100808354040283529160200191610376565b820191906000526020600020905b81548152906001019060200180831161035957829003601f168201915b5050505050905090565b600061038b8261068f565b506000828152600460205260409020546001600160a01b03166102e8565b6103b48282336106c8565b5050565b600c8054600091826103c983611639565b9091555050600c546103db84826106d5565b6103e581846106ef565b9392505050565b6001600160a01b03821661041b57604051633250574960e11b8152600060048201526024015b60405180910390fd5b600061042883833361073f565b9050836001600160a01b0316816001600160a01b031614610476576040516364283d7b60e01b81526001600160a01b0380861660048301526024820184905282166044820152606401610412565b50505050565b600061048783610565565b82106104b85760405163295f44f760e21b81526001600160a01b038416600482015260248101839052604401610412565b506001600160a01b03919091166000908152600660209081526040808320938352929052205490565b6104fc838383604051806020016040528060008152506105db565b505050565b600061050c60085490565b82106105355760405163295f44f760e21b81526000600482015260248101839052604401610412565b6008828154811061054857610548611652565b90600052602060002001549050919050565b60006102e88261068f565b60006001600160a01b038216610591576040516322718ad960e21b815260006004820152602401610412565b506001600160a01b031660009081526003602052604090205490565b6105b5610754565b6105bf6000610781565b565b6060600180546102fd906115e9565b6103b43383836107d3565b6105e68484846103ec565b6104763385858585610872565b60606102e88261099d565b6001600160a01b03918216600090815260056020908152604080832093909416825291909152205460ff1690565b610634610754565b6001600160a01b03811661065e57604051631e4fbdf760e01b815260006004820152602401610412565b61066781610781565b50565b60006001600160e01b03198216632483248360e11b14806102e857506102e882610ac3565b6000818152600260205260408120546001600160a01b0316806102e857604051637e27328960e01b815260048101849052602401610412565b6104fc8383836001610ae8565b6103b4828260405180602001604052806000815250610bee565b6000828152600a6020526040902061070782826116ae565b506040518281527ff8e1a15aba9398e019f0b49df1a4fde98ee17ae345cb5f6b5e2c27f5033e8ce79060200160405180910390a15050565b600061074c848484610c06565b949350505050565b600b546001600160a01b031633146105bf5760405163118cdaa760e01b8152336004820152602401610412565b600b80546001600160a01b038381166001600160a01b0319831681179093556040519116919082907f8be0079c531659141344cd1fd0a4f28419497f9722a3daafe3b4186f6b6457e090600090a35050565b6001600160a01b03821661080557604051630b61174360e31b81526001600160a01b0383166004820152602401610412565b6001600160a01b03838116600081815260056020908152604080832094871680845294825291829020805460ff191686151590811790915591519182527f17307eab39ab6107e8899845ad3d59bd9653f200f220920489ca2b5937696c31910160405180910390a3505050565b6001600160a01b0383163b1561099657604051630a85bd0160e11b81526001600160a01b0384169063150b7a02906108b490889088908790879060040161176e565b6020604051808303816000875af19250505080156108ef575060408051601f3d908101601f191682019092526108ec918101906117ab565b60015b610958573d80801561091d576040519150601f19603f3d011682016040523d82523d6000602084013e610922565b606091505b50805160000361095057604051633250574960e11b81526001600160a01b0385166004820152602401610412565b805160208201fd5b6001600160e01b03198116630a85bd0160e11b1461099457604051633250574960e11b81526001600160a01b0385166004820152602401610412565b505b5050505050565b60606109a88261068f565b506000828152600a6020526040812080546109c2906115e9565b80601f01602080910402602001604051908101604052809291908181526020018280546109ee906115e9565b8015610a3b5780601f10610a1057610100808354040283529160200191610a3b565b820191906000526020600020905b815481529060010190602001808311610a1e57829003601f168201915b505050505090506000610a7660408051808201909152601581527468747470733a2f2f697066732e696f2f697066732f60581b602082015290565b90508051600003610a88575092915050565b815115610aba578082604051602001610aa29291906117c8565b60405160208183030381529060405292505050919050565b61074c84610cd3565b60006001600160e01b0319821663780e9d6360e01b14806102e857506102e882610d64565b8080610afc57506001600160a01b03821615155b15610bbe576000610b0c8461068f565b90506001600160a01b03831615801590610b385750826001600160a01b0316816001600160a01b031614155b8015610b4b5750610b4981846105fe565b155b15610b745760405163a9fbf51f60e01b81526001600160a01b0384166004820152602401610412565b8115610bbc5783856001600160a01b0316826001600160a01b03167f8c5be1e5ebec7d5bd14f71427d1e84f3dd0314c0f7b2291e5b200ac8c7c3b92560405160405180910390a45b505b5050600090815260046020526040902080546001600160a01b0319166001600160a01b0392909216919091179055565b610bf88383610db4565b6104fc336000858585610872565b600080610c14858585610e19565b90506001600160a01b038116610c7157610c6c84600880546000838152600960205260408120829055600182018355919091527ff3f7a9fe364faab93b216da50a3214154f22a0a2b415b23a84c8169e8b636ee30155565b610c94565b846001600160a01b0316816001600160a01b031614610c9457610c948185610f12565b6001600160a01b038516610cb057610cab84610f93565b61074c565b846001600160a01b0316816001600160a01b03161461074c5761074c8585611042565b6060610cde8261068f565b506000610d1360408051808201909152601581527468747470733a2f2f697066732e696f2f697066732f60581b602082015290565b90506000815111610d3357604051806020016040528060008152506103e5565b80610d3d84611092565b604051602001610d4e9291906117c8565b6040516020818303038152906040529392505050565b60006001600160e01b031982166380ac58cd60e01b1480610d9557506001600160e01b03198216635b5e139f60e01b145b806102e857506301ffc9a760e01b6001600160e01b03198316146102e8565b6001600160a01b038216610dde57604051633250574960e11b815260006004820152602401610412565b6000610dec8383600061073f565b90506001600160a01b038116156104fc576040516339e3563760e11b815260006004820152602401610412565b6000828152600260205260408120546001600160a01b0390811690831615610e4657610e46818486611125565b6001600160a01b03811615610e8457610e63600085600080610ae8565b6001600160a01b038116600090815260036020526040902080546000190190555b6001600160a01b03851615610eb3576001600160a01b0385166000908152600360205260409020805460010190555b60008481526002602052604080822080546001600160a01b0319166001600160a01b0389811691821790925591518793918516917fddf252ad1be2c89b69c2b068fc378daa952ba7f163c4a11628f55a4df523b3ef91a4949350505050565b6000610f1d83610565565b6000838152600760209081526040808320546001600160a01b0388168452600690925290912091925090818314610f7457600083815260208281526040808320548584528184208190558352600790915290208290555b6000938452600760209081526040808620869055938552525081205550565b600854600090610fa5906001906117f7565b60008381526009602052604081205460088054939450909284908110610fcd57610fcd611652565b906000526020600020015490508060088381548110610fee57610fee611652565b60009182526020808320909101929092558281526009909152604080822084905585825281205560088054806110265761102661180a565b6001900381819060005260206000200160009055905550505050565b6000600161104f84610565565b61105991906117f7565b6001600160a01b039093166000908152600660209081526040808320868452825280832085905593825260079052919091209190915550565b6060600061109f83611189565b600101905060008167ffffffffffffffff8111156110bf576110bf6113b9565b6040519080825280601f01601f1916602001820160405280156110e9576020820181803683370190505b5090508181016020015b600019016f181899199a1a9b1b9c1cb0b131b232b360811b600a86061a8153600a85049450846110f357509392505050565b611130838383611261565b6104fc576001600160a01b03831661115e57604051637e27328960e01b815260048101829052602401610412565b60405163177e802f60e01b81526001600160a01b038316600482015260248101829052604401610412565b60008072184f03e93ff9f4daa797ed6e38ed64bf6a1f0160401b83106111c85772184f03e93ff9f4daa797ed6e38ed64bf6a1f0160401b830492506040015b6d04ee2d6d415b85acef810000000083106111f4576d04ee2d6d415b85acef8100000000830492506020015b662386f26fc10000831061121257662386f26fc10000830492506010015b6305f5e100831061122a576305f5e100830492506008015b612710831061123e57612710830492506004015b60648310611250576064830492506002015b600a83106102e85760010192915050565b60006001600160a01b0383161580159061074c5750826001600160a01b0316846001600160a01b0316148061129b575061129b84846105fe565b8061074c5750506000908152600460205260409020546001600160a01b03908116911614919050565b6001600160e01b03198116811461066757600080fd5b6000602082840312156112ec57600080fd5b81356103e5816112c4565b60005b838110156113125781810151838201526020016112fa565b50506000910152565b600081518084526113338160208601602086016112f7565b601f01601f19169290920160200192915050565b6020815260006103e5602083018461131b565b60006020828403121561136c57600080fd5b5035919050565b80356001600160a01b038116811461138a57600080fd5b919050565b600080604083850312156113a257600080fd5b6113ab83611373565b946020939093013593505050565b634e487b7160e01b600052604160045260246000fd5b600067ffffffffffffffff808411156113ea576113ea6113b9565b604051601f8501601f19908116603f01168101908282118183101715611412576114126113b9565b8160405280935085815286868601111561142b57600080fd5b858560208301376000602087830101525050509392505050565b6000806040838503121561145857600080fd5b61146183611373565b9150602083013567ffffffffffffffff81111561147d57600080fd5b8301601f8101851361148e57600080fd5b61149d858235602084016113cf565b9150509250929050565b6000806000606084860312156114bc57600080fd5b6114c584611373565b92506114d360208501611373565b9150604084013590509250925092565b6000602082840312156114f557600080fd5b6103e582611373565b6000806040838503121561151157600080fd5b61151a83611373565b91506020830135801515811461152f57600080fd5b809150509250929050565b6000806000806080858703121561155057600080fd5b61155985611373565b935061156760208601611373565b925060408501359150606085013567ffffffffffffffff81111561158a57600080fd5b8501601f8101871361159b57600080fd5b6115aa878235602084016113cf565b91505092959194509250565b600080604083850312156115c957600080fd5b6115d283611373565b91506115e060208401611373565b90509250929050565b600181811c908216806115fd57607f821691505b60208210810361161d57634e487b7160e01b600052602260045260246000fd5b50919050565b634e487b7160e01b600052601160045260246000fd5b60006001820161164b5761164b611623565b5060010190565b634e487b7160e01b600052603260045260246000fd5b601f8211156104fc57600081815260208120601f850160051c8101602086101561168f5750805b601f850160051c820191505b818110156109945782815560010161169b565b815167ffffffffffffffff8111156116c8576116c86113b9565b6116dc816116d684546115e9565b84611668565b602080601f83116001811461171157600084156116f95750858301515b600019600386901b1c1916600185901b178555610994565b600085815260208120601f198616915b8281101561174057888601518255948401946001909101908401611721565b508582101561175e5787850151600019600388901b60f8161c191681555b5050505050600190811b01905550565b6001600160a01b03858116825284166020820152604081018390526080606082018190526000906117a19083018461131b565b9695505050505050565b6000602082840312156117bd57600080fd5b81516103e5816112c4565b600083516117da8184602088016112f7565b8351908301906117ee8183602088016112f7565b01949350505050565b818103818111156102e8576102e8611623565b634e487b7160e01b600052603160045260246000fdfea26469706673582212201ea86d78d39b60bf562d71aa59d8bc79adbc4ecd09e53d976ceaa418397bc85a64736f6c63430008140033",
  "linkReferences": {},
  "deployedLinkReferences": {}
}