{
  "_format": "hh-sol-artifact-1",
  "contractName": "EventTicket",
  "sourceName": "contracts/EventTicket.sol",
  "abi": [
    {
      "inputs": [],
      "stateMutability": "nonpayable",
      "type": "constructor"
    },
    {
      "inputs": [],
      "name": "ERC721EnumerableForbiddenBatchMint",
      "type": "error"
    },
    {
      "inputs": [
        {
          "internalType": "address",
          "name": "sender",
          "type": "address"
        },
        {
          "internalType": "uint256",
          "name": "tokenId",
          "type": "uint256"
        },
        {
          "internalType": "address",
          "name": "owner",
          "type": "address"
        }
      ],
      "name": "ERC721IncorrectOwner",
      "type": "error"
    },
    {
      "inputs": [
        {
          "internalType": "address",
          "name": "operator",
          "type": "address"
        },
        {
          "internalType": "uint256",
          "name": "tokenId",
          "type": "uint256"
        }
      ],
      "name": "ERC721InsufficientApproval",
      "type": "error"
    },
    {
      "inputs": [
        {
          "internalType": "address",
          "name": "approver",
          "type": "address"
        }
      ],
      "name": "ERC721InvalidApprover",
      "type": "error"
    },
    {
      "inputs": [
        {
          "internalType": "address",
          "name": "operator",
          "type": "address"
        }
      ],
      "name": "ERC721InvalidOperator",
      "type": "error"
    },
    {
      "inputs": [
        {
          "internalType": "address",
          "name": "owner",
          "type": "address"
        }
      ],
      "name": "ERC721InvalidOwner",
      "type": "error"
    },
    {
      "inputs": [
        {
          "internalType": "address",
          "name": "receiver",
          "type": "address"
        }
      ],
      "name": "ERC721InvalidReceiver",
      "type": "error"
    },
    {
      "inputs": [
        {
          "internalType": "address",
          "name": "sender",
          "type": "address"
        }
      ],
      "name": "ERC721InvalidSender",
      "type": "error"
    },
    {
      "inputs": [
        {
          "internalType": "uint256",
          "name": "tokenId",
          "type": "uint256"
        }
      ],
      "name": "ERC721NonexistentToken",
      "type": "error"
    },
    {
      "inputs": [
        {
          "internalType": "address",
          "name": "owner",
          "type": "address"
        },
        {
          "internalType": "uint256",
          "name": "index",
          "type": "uint256"
        }
      ],
      "name": "ERC721OutOfBoundsIndex",
      "type": "error"
    },
    {
      "inputs": [
        {
          "internalType": "address",
          "name": "owner",
          "type": "address"
        }
      ],
      "name": "OwnableInvalidOwner",
      "type": "error"
    },
    {
      "inputs": [
        {
          "internalType": "address",
          "name": "account",
          "type": "address"
        }
      ],
      "name": "OwnableUnauthorizedAccount",
      "type": "error"
    },
    {
      "inputs": [],
      "name": "ReentrancyGuardReentrantCall",
      "type": "error"
    },
    {
      "anonymous": false,
      "inputs": [
        {
          "indexed": true,
          "internalType": "address",
          "name": "owner",
          "type": "address"
        },
        {
          "indexed": true,
          "internalType": "address",
          "name": "approved",
          "type": "address"
        },
        {
          "indexed": true,
          "internalType": "uint256",
          "name": "tokenId",
          "type": "uint256"
        }
      ],
      "name": "Approval",
      "type": "event"
    },
    {
      "anonymous": false,
      "inputs": [
        {
          "indexed": true,
          "internalType": "address",
          "name": "owner",
          "type": "address"
        },
        {
          "indexed": true,
          "internalType": "address",
          "name": "operator",
          "type": "address"
        },
        {
          "indexed": false,
          "internalType": "bool",
          "name": "approved",
          "type": "bool"
        }
      ],
      "name": "ApprovalForAll",
      "type": "event"
    },
    {
      "anonymous": false,
      "inputs": [
        {
          "indexed": false,
          "internalType": "uint256",
          "name": "_fromTokenId",
          "type": "uint256"
        },
        {
          "indexed": false,
          "internalType": "uint256",
          "name": "_toTokenId",
          "type": "uint256"
        }
      ],
      "name": "BatchMetadataUpdate",
      "type": "event"
    },
    {
      "anonymous": false,
      "inputs": [
        {
          "indexed": true,
          "internalType": "uint256",
          "name": "eventId",
          "type": "uint256"
        },
        {
          "indexed": false,
          "internalType": "string",
          "name": "name",
          "type": "string"
        },
        {
          "indexed": true,
          "internalType": "address",
          "name": "organizer",
          "type": "address"
        }
      ],
      "name": "EventCreated",
      "type": "event"
    },
    {
      "anonymous": false,
      "inputs": [
        {
          "indexed": true,
          "internalType": "uint256",
          "name": "eventId",
          "type": "uint256"
        },
        {
          "indexed": false,
          "internalType": "bool",
          "name": "isActive",
          "type": "bool"
        }
      ],
      "name": "EventStatusChanged",
      "type": "event"
    },
    {
      "anonymous": false,
      "inputs": [
        {
          "indexed": false,
          "internalType": "uint256",
          "name": "_tokenId",
          "type": "uint256"
        }
      ],
      "name": "MetadataUpdate",
      "type": "event"
    },
    {
      "anonymous": false,
      "inputs": [
        {
          "indexed": true,
          "internalType": "address",
          "name": "previousOwner",
          "type": "address"
        },
        {
          "indexed": true,
          "internalType": "address",
          "name": "newOwner",
          "type": "address"
        }
      ],
      "name": "OwnershipTransferred",
      "type": "event"
    },
    {
      "anonymous": false,
      "inputs": [
        {
          "indexed": true,
          "internalType": "uint256",
          "name": "tokenId",
          "type": "uint256"
        },
        {
          "indexed": true,
          "internalType": "uint256",
          "name": "eventId",
          "type": "uint256"
        },
        {
          "indexed": true,
          "internalType": "address",
          "name": "to",
          "type": "address"
        }
      ],
      "name": "TicketMinted",
      "type": "event"
    },
    {
      "anonymous": false,
      "inputs": [
        {
          "indexed": true,
          "internalType": "address",
          "name": "from",
          "type": "address"
        },
        {
          "indexed": true,
          "internalType": "address",
          "name": "to",
          "type": "address"
        },
        {
          "indexed": true,
          "internalType": "uint256",
          "name": "tokenId",
          "type": "uint256"
        }
      ],
      "name": "Transfer",
      "type": "event"
    },
    {
      "inputs": [
        {
          "internalType": "address",
          "name": "organizer",
          "type": "address"
        }
      ],
      "name": "addOrganizer",
      "outputs": [],
      "stateMutability": "nonpayable",
      "type": "function"
    },
    {
      "inputs": [
        {
          "internalType": "address",
          "name": "to",
          "type": "address"
        },
        {
          "internalType": "uint256",
          "name": "tokenId",
          "type": "uint256"
        }
      ],
      "name": "approve",
      "outputs": [],
      "stateMutability": "nonpayable",
      "type": "function"
    },
    {
      "inputs": [
        {
          "internalType": "address",
          "name": "owner",
          "type": "address"
        }
      ],
      "name": "balanceOf",
      "outputs": [
        {
          "internalType": "uint256",
          "name": "",
          "type": "uint256"
        }
      ],
      "stateMutability": "view",
      "type": "function"
    },
    {
      "inputs": [
        {
          "internalType": "string",
          "name": "name",
          "type": "string"
        },
        {
          "internalType": "string",
          "name": "description",
          "type": "string"
        },
        {
          "internalType": "string",
          "name": "location",
          "type": "string"
        },
        {
          "internalType": "uint256",
          "name": "eventDate",
          "type": "uint256"
        },
        {
          "internalType": "uint256",
          "name": "ticketPrice",
          "type": "uint256"
        },
        {
          "internalType": "uint256",
          "name": "maxTickets",
          "type": "uint256"
        },
        {
          "internalType": "string",
          "name": "imageUri",
          "type": "string"
        }
      ],
      "name": "createEvent",
      "outputs": [
        {
          "internalType": "uint256",
          "name": "",
          "type": "uint256"
        }
      ],
      "stateMutability": "nonpayable",
      "type": "function"
    },
    {
      "inputs": [],
      "name": "eventIdCounter",
      "outputs": [
        {
          "internalType": "uint256",
          "name": "",
          "type": "uint256"
        }
      ],
      "stateMutability": "view",
      "type": "function"
    },
    {
      "inputs": [
        {
          "internalType": "address",
          "name": "",
          "type": "address"
        }
      ],
      "name": "eventOrganizers",
      "outputs": [
        {
          "internalType": "bool",
          "name": "",
          "type": "bool"
        }
      ],
      "stateMutability": "view",
      "type": "function"
    },
    {
      "inputs": [
        {
          "internalType": "uint256",
          "name": "",
          "type": "uint256"
        }
      ],
      "name": "events",
      "outputs": [
        {
          "internalType": "uint256",
          "name": "eventId",
          "type": "uint256"
        },
        {
          "internalType": "string",
          "name": "name",
          "type": "string"
        },
        {
          "internalType": "string",
          "name": "description",
          "type": "string"
        },
        {
          "internalType": "string",
          "name": "location",
          "type": "string"
        },
        {
          "internalType": "uint256",
          "name": "eventDate",
          "type": "uint256"
        },
        {
          "internalType": "uint256",
          "name": "ticketPrice",
          "type": "uint256"
        },
        {
          "internalType": "uint256",
          "name": "maxTickets",
          "type": "uint256"
        },
        {
          "internalType": "uint256",
          "name": "ticketsSold",
          "type": "uint256"
        },
        {
          "internalType": "address",
          "name": "organizer",
          "type": "address"
        },
        {
          "internalType": "bool",
          "name": "isActive",
          "type": "bool"
        },
        {
          "internalType": "string",
          "name": "imageUri",
          "type": "string"
        }
      ],
      "stateMutability": "view",
      "type": "function"
    },
    {
      "inputs": [
        {
          "internalType": "uint256",
          "name": "tokenId",
          "type": "uint256"
        }
      ],
      "name": "getApproved",
      "outputs": [
        {
          "internalType": "address",
          "name": "",
          "type": "address"
        }
      ],
      "stateMutability": "view",
      "type": "function"
    },
    {
      "inputs": [
        {
          "internalType": "uint256",
          "name": "eventId",
          "type": "uint256"
        }
      ],
      "name": "getAvailableTickets",
      "outputs": [
        {
          "internalType": "uint256",
          "name": "",
          "type": "uint256"
        }
      ],
      "stateMutability": "view",
      "type": "function"
    },
    {
      "inputs": [
        {
          "internalType": "uint256",
          "name": "eventId",
          "type": "uint256"
        }
      ],
      "name": "getEvent",
      "outputs": [
        {
          "components": [
            {
              "internalType": "uint256",
              "name": "eventId",
              "type": "uint256"
            },
            {
              "internalType": "string",
              "name": "name",
              "type": "string"
            },
            {
              "internalType": "string",
              "name": "description",
              "type": "string"
            },
            {
              "internalType": "string",
              "name": "location",
              "type": "string"
            },
            {
              "internalType": "uint256",
              "name": "eventDate",
              "type": "uint256"
            },
            {
              "internalType": "uint256",
              "name": "ticketPrice",
              "type": "uint256"
            },
            {
              "internalType": "uint256",
              "name": "maxTickets",
              "type": "uint256"
            },
            {
              "internalType": "uint256",
              "name": "ticketsSold",
              "type": "uint256"
            },
            {
              "internalType": "address",
              "name": "organizer",
              "type": "address"
            },
            {
              "internalType": "bool",
              "name": "isActive",
              "type": "bool"
            },
            {
              "internalType": "string",
              "name": "imageUri",
              "type": "string"
            }
          ],
          "internalType": "struct EventTicket.Event",
          "name": "",
          "type": "tuple"
        }
      ],
      "stateMutability": "view",
      "type": "function"
    },
    {
      "inputs": [
        {
          "internalType": "uint256",
          "name": "tokenId",
          "type": "uint256"
        }
      ],
      "name": "getEventByToken",
      "outputs": [
        {
          "components": [
            {
              "internalType": "uint256",
              "name": "eventId",
              "type": "uint256"
            },
            {
              "internalType": "string",
              "name": "name",
              "type": "string"
            },
            {
              "internalType": "string",
              "name": "description",
              "type": "string"
            },
            {
              "internalType": "string",
              "name": "location",
              "type": "string"
            },
            {
              "internalType": "uint256",
              "name": "eventDate",
              "type": "uint256"
            },
            {
              "internalType": "uint256",
              "name": "ticketPrice",
              "type": "uint256"
            },
            {
              "internalType": "uint256",
              "name": "maxTickets",
              "type": "uint256"
            },
            {
              "internalType": "uint256",
              "name": "ticketsSold",
              "type": "uint256"
            },
            {
              "internalType": "address",
              "name": "organizer",
              "type": "address"
            },
            {
              "internalType": "bool",
              "name": "isActive",
              "type": "bool"
            },
            {
              "internalType": "string",
              "name": "imageUri",
              "type": "string"
            }
          ],
          "internalType": "struct EventTicket.Event",
          "name": "",
          "type": "tuple"
        }
      ],
      "stateMutability": "view",
      "type": "function"
    },
    {
      "inputs": [
        {
          "internalType": "address",
          "name": "owner",
          "type": "address"
        },
        {
          "internalType": "address",
          "name": "operator",
          "type": "address"
        }
      ],
      "name": "isApprovedForAll",
      "outputs": [
        {
          "internalType": "bool",
          "name": "",
          "type": "bool"
        }
      ],
      "stateMutability": "view",
      "type": "function"
    },
    {
      "inputs": [
        {
          "internalType": "uint256",
          "name": "eventId",
          "type": "uint256"
        },
        {
          "internalType": "string",
          "name": "tokenUri",
          "type": "string"
        }
      ],
      "name": "mintTicket",
      "outputs": [
        {
          "internalType": "uint256",
          "name": "",
          "type": "uint256"
        }
      ],
      "stateMutability": "payable",
      "type": "function"
    },
    {
      "inputs": [],
      "name": "name",
      "outputs": [
        {
          "internalType": "string",
          "name": "",
          "type": "string"
        }
      ],
      "stateMutability": "view",
      "type": "function"
    },
    {
      "inputs": [],
      "name": "owner",
      "outputs": [
        {
          "internalType": "address",
          "name": "",
          "type": "address"
        }
      ],
      "stateMutability": "view",
      "type": "function"
    },
    {
      "inputs": [
        {
          "internalType": "uint256",
          "name": "tokenId",
          "type": "uint256"
        }
      ],
      "name": "ownerOf",
      "outputs": [
        {
          "internalType": "address",
          "name": "",
          "type": "address"
        }
      ],
      "stateMutability": "view",
      "type": "function"
    },
    {
      "inputs": [
        {
          "internalType": "address",
          "name": "organizer",
          "type": "address"
        }
      ],
      "name": "removeOrganizer",
      "outputs": [],
      "stateMutability": "nonpayable",
      "type": "function"
    },
    {
      "inputs": [],
      "name": "renounceOwnership",
      "outputs": [],
      "stateMutability": "nonpayable",
      "type": "function"
    },
    {
      "inputs": [
        {
          "internalType": "address",
          "name": "from",
          "type": "address"
        },
        {
          "internalType": "address",
          "name": "to",
          "type": "address"
        },
        {
          "internalType": "uint256",
          "name": "tokenId",
          "type": "uint256"
        }
      ],
      "name": "safeTransferFrom",
      "outputs": [],
      "stateMutability": "nonpayable",
      "type": "function"
    },
    {
      "inputs": [
        {
          "internalType": "address",
          "name": "from",
          "type": "address"
        },
        {
          "internalType": "address",
          "name": "to",
          "type": "address"
        },
        {
          "internalType": "uint256",
          "name": "tokenId",
          "type": "uint256"
        },
        {
          "internalType": "bytes",
          "name": "data",
          "type": "bytes"
        }
      ],
      "name": "safeTransferFrom",
      "outputs": [],
      "stateMutability": "nonpayable",
      "type": "function"
    },
    {
      "inputs": [
        {
          "internalType": "address",
          "name": "operator",
          "type": "address"
        },
        {
          "internalType": "bool",
          "name": "approved",
          "type": "bool"
        }
      ],
      "name": "setApprovalForAll",
      "outputs": [],
      "stateMutability": "nonpayable",
      "type": "function"
    },
    {
      "inputs": [
        {
          "internalType": "uint256",
          "name": "eventId",
          "type": "uint256"
        },
        {
          "internalType": "bool",
          "name": "isActive",
          "type": "bool"
        }
      ],
      "name": "setEventStatus",
      "outputs": [],
      "stateMutability": "nonpayable",
      "type": "function"
    },
    {
      "inputs": [
        {
          "internalType": "bytes4",
          "name": "interfaceId",
          "type": "bytes4"
        }
      ],
      "name": "supportsInterface",
      "outputs": [
        {
          "internalType": "bool",
          "name": "",
          "type": "bool"
        }
      ],
      "stateMutability": "view",
      "type": "function"
    },
    {
      "inputs": [],
      "name": "symbol",
      "outputs": [
        {
          "internalType": "string",
          "name": "",
          "type": "string"
        }
      ],
      "stateMutability": "view",
      "type": "function"
    },
    {
      "inputs": [
        {
          "internalType": "uint256",
          "name": "index",
          "type": "uint256"
        }
      ],
      "name": "tokenByIndex",
      "outputs": [
        {
          "internalType": "uint256",
          "name": "",
          "type": "uint256"
        }
      ],
      "stateMutability": "view",
      "type": "function"
    },
    {
      "inputs": [],
      "name": "tokenIdCounter",
      "outputs": [
        {
          "internalType": "uint256",
          "name": "",
          "type": "uint256"
        }
      ],
      "stateMutability": "view",
      "type": "function"
    },
    {
      "inputs": [
        {
          "internalType": "address",
          "name": "owner",
          "type": "address"
        },
        {
          "internalType": "uint256",
          "name": "index",
          "type": "uint256"
        }
      ],
      "name": "tokenOfOwnerByIndex",
      "outputs": [
        {
          "internalType": "uint256",
          "name": "",
          "type": "uint256"
        }
      ],
      "stateMutability": "view",
      "type": "function"
    },
    {
      "inputs": [
        {
          "internalType": "uint256",
          "name": "",
          "type": "uint256"
        }
      ],
      "name": "tokenToEvent",
      "outputs": [
        {
          "internalType": "uint256",
          "name": "",
          "type": "uint256"
        }
      ],
      "stateMutability": "view",
      "type": "function"
    },
    {
      "inputs": [
        {
          "internalType": "uint256",
          "name": "tokenId",
          "type": "uint256"
        }
      ],
      "name": "tokenURI",
      "outputs": [
        {
          "internalType": "string",
          "name": "",
          "type": "string"
        }
      ],
      "stateMutability": "view",
      "type": "function"
    },
    {
      "inputs": [],
      "name": "totalSupply",
      "outputs": [
        {
          "internalType": "uint256",
          "name": "",
          "type": "uint256"
        }
      ],
      "stateMutability": "view",
      "type": "function"
    },
    {
      "inputs": [
        {
          "internalType": "address",
          "name": "from",
          "type": "address"
        },
        {
          "internalType": "address",
          "name": "to",
          "type": "address"
        },
        {
          "internalType": "uint256",
          "name": "tokenId",
          "type": "uint256"
        }
      ],
      "name": "transferFrom",
      "outputs": [],
      "stateMutability": "nonpayable",
      "type": "function"
    },
    {
      "inputs": [
        {
          "internalType": "address",
          "name": "newOwner",
          "type": "address"
        }
      ],
      "name": "transferOwnership",
      "outputs": [],
      "stateMutability": "nonpayable",
      "type": "function"
    }
  ],
  "bytecode": "0x60806040523480156200001157600080fd5b50336040518060400160405280600b81526020016a115d995b9d151a58dad95d60aa1b8152506040518060400160405280600381526020016245544b60e81b8152508160009081620000649190620001b3565b506001620000738282620001b3565b5050506001600160a01b038116620000a557604051631e4fbdf760e01b81526000600482015260240160405180910390fd5b620000b081620000bc565b506001600c556200027f565b600b80546001600160a01b038381166001600160a01b0319831681179093556040519116919082907f8be0079c531659141344cd1fd0a4f28419497f9722a3daafe3b4186f6b6457e090600090a35050565b634e487b7160e01b600052604160045260246000fd5b600181811c908216806200013957607f821691505b6020821081036200015a57634e487b7160e01b600052602260045260246000fd5b50919050565b601f821115620001ae57600081815260208120601f850160051c81016020861015620001895750805b601f850160051c820191505b81811015620001aa5782815560010162000195565b5050505b505050565b81516001600160401b03811115620001cf57620001cf6200010e565b620001e781620001e0845462000124565b8462000160565b602080601f8311600181146200021f5760008415620002065750858301515b600019600386901b1c1916600185901b178555620001aa565b600085815260208120601f198616915b8281101562000250578886015182559484019460019091019084016200022f565b50858210156200026f5787850151600019600388901b60f8161c191681555b5050505050600190811b01905550565b612fd9806200028f6000396000f3fe6080604052600436106101e35760003560e01c8063715018a611610102578063c87b56dd11610095578063e1495fac11610064578063e1495fac14610594578063e4725f02146105c4578063e985e9c5146105e4578063f2fde38b1461060457600080fd5b8063c87b56dd14610511578063cc9d707114610531578063ddc120af1461055e578063e01a0ebe1461057e57600080fd5b806395d89b41116100d157806395d89b41146104a657806398bdf6f5146104bb578063a22cb465146104d1578063b88d4fde146104f157600080fd5b8063715018a614610433578063757a304914610448578063836b035a146104685780638da5cb5b1461048857600080fd5b806323b872dd1161017a5780634f6ccce7116101495780634f6ccce7146103a65780636352211e146103c65780636d1884e0146103e657806370a082311461041357600080fd5b806323b872dd146103265780632f745c591461034657806342842e0e1461036657806344ade56d1461038657600080fd5b80630b791430116101b65780630b791430146102995780630cc7b2a9146102d057806318160ddd146102fe57806319e2a2111461031357600080fd5b806301ffc9a7146101e857806306fdde031461021d578063081812fc1461023f578063095ea7b314610277575b600080fd5b3480156101f457600080fd5b506102086102033660046127f5565b610624565b60405190151581526020015b60405180910390f35b34801561022957600080fd5b50610232610635565b6040516102149190612862565b34801561024b57600080fd5b5061025f61025a366004612875565b6106c7565b6040516001600160a01b039091168152602001610214565b34801561028357600080fd5b506102976102923660046128aa565b6106f0565b005b3480156102a557600080fd5b506102b96102b4366004612875565b6106ff565b6040516102149b9a999897969594939291906128d4565b3480156102dc57600080fd5b506102f06102eb366004612875565b610989565b604051908152602001610214565b34801561030a57600080fd5b506008546102f0565b6102f0610321366004612a19565b610c63565b34801561033257600080fd5b50610297610341366004612a60565b610e97565b34801561035257600080fd5b506102f06103613660046128aa565b610f22565b34801561037257600080fd5b50610297610381366004612a60565b610f87565b34801561039257600080fd5b506102976103a1366004612a9c565b610fa7565b3480156103b257600080fd5b506102f06103c1366004612875565b610fd0565b3480156103d257600080fd5b5061025f6103e1366004612875565b611029565b3480156103f257600080fd5b50610406610401366004612875565b611034565b6040516102149190612ab7565b34801561041f57600080fd5b506102f061042e366004612a9c565b611305565b34801561043f57600080fd5b5061029761134d565b34801561045457600080fd5b50610406610463366004612875565b611361565b34801561047457600080fd5b50610297610483366004612bb0565b61163c565b34801561049457600080fd5b50600b546001600160a01b031661025f565b3480156104b257600080fd5b5061023261177e565b3480156104c757600080fd5b506102f0600d5481565b3480156104dd57600080fd5b506102976104ec366004612bdc565b61178d565b3480156104fd57600080fd5b5061029761050c366004612c06565b611798565b34801561051d57600080fd5b5061023261052c366004612875565b6117b0565b34801561053d57600080fd5b506102f061054c366004612875565b600f6020526000908152604090205481565b34801561056a57600080fd5b506102f0610579366004612c82565b6117bb565b34801561058a57600080fd5b506102f060115481565b3480156105a057600080fd5b506102086105af366004612a9c565b60106020526000908152604090205460ff1681565b3480156105d057600080fd5b506102976105df366004612a9c565b611a5e565b3480156105f057600080fd5b506102086105ff366004612d4c565b611a8a565b34801561061057600080fd5b5061029761061f366004612a9c565b611ab8565b600061062f82611af6565b92915050565b60606000805461064490612d76565b80601f016020809104026020016040519081016040528092919081815260200182805461067090612d76565b80156106bd5780601f10610692576101008083540402835291602001916106bd565b820191906000526020600020905b8154815290600101906020018083116106a057829003601f168201915b5050505050905090565b60006106d282611b1b565b506000828152600460205260409020546001600160a01b031661062f565b6106fb828233611b54565b5050565b600e602052600090815260409020805460018201805491929161072190612d76565b80601f016020809104026020016040519081016040528092919081815260200182805461074d90612d76565b801561079a5780601f1061076f5761010080835404028352916020019161079a565b820191906000526020600020905b81548152906001019060200180831161077d57829003601f168201915b5050505050908060020180546107af90612d76565b80601f01602080910402602001604051908101604052809291908181526020018280546107db90612d76565b80156108285780601f106107fd57610100808354040283529160200191610828565b820191906000526020600020905b81548152906001019060200180831161080b57829003601f168201915b50505050509080600301805461083d90612d76565b80601f016020809104026020016040519081016040528092919081815260200182805461086990612d76565b80156108b65780601f1061088b576101008083540402835291602001916108b6565b820191906000526020600020905b81548152906001019060200180831161089957829003601f168201915b505050506004830154600584015460068501546007860154600887015460098801805497989597949650929491936001600160a01b03821693600160a01b90920460ff1692919061090690612d76565b80601f016020809104026020016040519081016040528092919081815260200182805461093290612d76565b801561097f5780601f106109545761010080835404028352916020019161097f565b820191906000526020600020905b81548152906001019060200180831161096257829003601f168201915b505050505090508b565b6000818152600e6020908152604080832081516101608101909252805482526001810180548594840191906109bd90612d76565b80601f01602080910402602001604051908101604052809291908181526020018280546109e990612d76565b8015610a365780601f10610a0b57610100808354040283529160200191610a36565b820191906000526020600020905b815481529060010190602001808311610a1957829003601f168201915b50505050508152602001600282018054610a4f90612d76565b80601f0160208091040260200160405190810160405280929190818152602001828054610a7b90612d76565b8015610ac85780601f10610a9d57610100808354040283529160200191610ac8565b820191906000526020600020905b815481529060010190602001808311610aab57829003601f168201915b50505050508152602001600382018054610ae190612d76565b80601f0160208091040260200160405190810160405280929190818152602001828054610b0d90612d76565b8015610b5a5780601f10610b2f57610100808354040283529160200191610b5a565b820191906000526020600020905b815481529060010190602001808311610b3d57829003601f168201915b50505091835250506004820154602082015260058201546040820152600682015460608201526007820154608082015260088201546001600160a01b03811660a0830152600160a01b900460ff16151560c082015260098201805460e090920191610bc490612d76565b80601f0160208091040260200160405190810160405280929190818152602001828054610bf090612d76565b8015610c3d5780601f10610c1257610100808354040283529160200191610c3d565b820191906000526020600020905b815481529060010190602001808311610c2057829003601f168201915b50505050508152505090508060e001518160c00151610c5c9190612dc6565b9392505050565b6000610c6d611b61565b6000838152600e602052604090206008810154600160a01b900460ff16610cd15760405162461bcd60e51b81526020600482015260136024820152724576656e74206973206e6f742061637469766560681b60448201526064015b60405180910390fd5b8060060154816007015410610d1f5760405162461bcd60e51b81526020600482015260146024820152734e6f207469636b65747320617661696c61626c6560601b6044820152606401610cc8565b42816004015411610d725760405162461bcd60e51b815260206004820152601a60248201527f4576656e742068617320616c7265616479206f636375727265640000000000006044820152606401610cc8565b8060050154341015610dbd5760405162461bcd60e51b8152602060048201526014602482015273125b9cdd59999a58da595b9d081c185e5b595b9d60621b6044820152606401610cc8565b600d8054906000610dcd83612dd9565b9091555050600d54610ddf3382611b8b565b610de98185611ba5565b6000818152600f6020526040812086905560078301805491610e0a83612dd9565b9091555050600582015415610e5b57600882015460058301546040516001600160a01b039092169181156108fc0291906000818181858888f19350505050158015610e59573d6000803e3d6000fd5b505b6040513390869083907f085ec0eff4bf526b0dd054adffcd8bd8da42126a1133ce302042973f32029fb090600090a491505061062f6001600c55565b6001600160a01b038216610ec157604051633250574960e11b815260006004820152602401610cc8565b6000610ece838333611bf5565b9050836001600160a01b0316816001600160a01b031614610f1c576040516364283d7b60e01b81526001600160a01b0380861660048301526024820184905282166044820152606401610cc8565b50505050565b6000610f2d83611305565b8210610f5e5760405163295f44f760e21b81526001600160a01b038416600482015260248101839052604401610cc8565b506001600160a01b03919091166000908152600660209081526040808320938352929052205490565b610fa283838360405180602001604052806000815250611798565b505050565b610faf611c0a565b6001600160a01b03166000908152601060205260409020805460ff19169055565b6000610fdb60085490565b82106110045760405163295f44f760e21b81526000600482015260248101839052604401610cc8565b6008828154811061101757611017612df2565b90600052602060002001549050919050565b600061062f82611b1b565b61103c61277a565b600e6000838152602001908152602001600020604051806101600160405290816000820154815260200160018201805461107590612d76565b80601f01602080910402602001604051908101604052809291908181526020018280546110a190612d76565b80156110ee5780601f106110c3576101008083540402835291602001916110ee565b820191906000526020600020905b8154815290600101906020018083116110d157829003601f168201915b5050505050815260200160028201805461110790612d76565b80601f016020809104026020016040519081016040528092919081815260200182805461113390612d76565b80156111805780601f1061115557610100808354040283529160200191611180565b820191906000526020600020905b81548152906001019060200180831161116357829003601f168201915b5050505050815260200160038201805461119990612d76565b80601f01602080910402602001604051908101604052809291908181526020018280546111c590612d76565b80156112125780601f106111e757610100808354040283529160200191611212565b820191906000526020600020905b8154815290600101906020018083116111f557829003601f168201915b50505091835250506004820154602082015260058201546040820152600682015460608201526007820154608082015260088201546001600160a01b03811660a0830152600160a01b900460ff16151560c082015260098201805460e09092019161127c90612d76565b80601f01602080910402602001604051908101604052809291908181526020018280546112a890612d76565b80156112f55780601f106112ca576101008083540402835291602001916112f5565b820191906000526020600020905b8154815290600101906020018083116112d857829003601f168201915b5050505050815250509050919050565b60006001600160a01b038216611331576040516322718ad960e21b815260006004820152602401610cc8565b506001600160a01b031660009081526003602052604090205490565b611355611c0a565b61135f6000611c37565b565b61136961277a565b6000828152600f6020908152604080832054808452600e835292819020815161016081019092528054825260018101805492939192918401916113ab90612d76565b80601f01602080910402602001604051908101604052809291908181526020018280546113d790612d76565b80156114245780601f106113f957610100808354040283529160200191611424565b820191906000526020600020905b81548152906001019060200180831161140757829003601f168201915b5050505050815260200160028201805461143d90612d76565b80601f016020809104026020016040519081016040528092919081815260200182805461146990612d76565b80156114b65780601f1061148b576101008083540402835291602001916114b6565b820191906000526020600020905b81548152906001019060200180831161149957829003601f168201915b505050505081526020016003820180546114cf90612d76565b80601f01602080910402602001604051908101604052809291908181526020018280546114fb90612d76565b80156115485780601f1061151d57610100808354040283529160200191611548565b820191906000526020600020905b81548152906001019060200180831161152b57829003601f168201915b50505091835250506004820154602082015260058201546040820152600682015460608201526007820154608082015260088201546001600160a01b03811660a0830152600160a01b900460ff16151560c082015260098201805460e0909201916115b290612d76565b80601f01602080910402602001604051908101604052809291908181526020018280546115de90612d76565b801561162b5780601f106116005761010080835404028352916020019161162b565b820191906000526020600020905b81548152906001019060200180831161160e57829003601f168201915b505050505081525050915050919050565b3360009081526010602052604090205460ff16806116645750600b546001600160a01b031633145b6116ab5760405162461bcd60e51b81526020600482015260186024820152772737ba1030baba3437b934bd32b21037b933b0b734bd32b960411b6044820152606401610cc8565b6000828152600e60205260409020600801546001600160a01b031633146117145760405162461bcd60e51b815260206004820152601760248201527f4e6f7420746865206576656e74206f7267616e697a65720000000000000000006044820152606401610cc8565b6000828152600e6020526040908190206008018054831515600160a01b0260ff60a01b199091161790555182907f69a1d308f60ea7e097a1ac547a3a0776b9c2e05d34084ce48e044df8f45e7cb29061177290841515815260200190565b60405180910390a25050565b60606001805461064490612d76565b6106fb338383611c89565b6117a3848484610e97565b610f1c3385858585611d28565b606061062f82611e53565b3360009081526010602052604081205460ff16806117e35750600b546001600160a01b031633145b61182a5760405162461bcd60e51b81526020600482015260186024820152772737ba1030baba3437b934bd32b21037b933b0b734bd32b960411b6044820152606401610cc8565b4285116118795760405162461bcd60e51b815260206004820181905260248201527f4576656e742064617465206d75737420626520696e20746865206675747572656044820152606401610cc8565b600083116118d45760405162461bcd60e51b815260206004820152602260248201527f4d6178207469636b657473206d7573742062652067726561746572207468616e604482015261020360f41b6064820152608401610cc8565b601180549060006118e483612dd9565b9091555050601154604080516101608101825282815260208082018c81528284018c9052606083018b9052608083018a905260a0830189905260c08301889052600060e0840181905233610100850152600161012085018190526101408501899052868252600e90935293909320825181559251919291908201906119699082612e4e565b506040820151600282019061197e9082612e4e565b50606082015160038201906119939082612e4e565b506080820151600482015560a0820151600582015560c0820151600682015560e082015160078201556101008201516008820180546101208501511515600160a01b026001600160a81b03199091166001600160a01b03909316929092179190911790556101408201516009820190611a0c9082612e4e565b50905050336001600160a01b0316817f40fb05b814a900c99fa0a76d919dfdeaf3389540e4ca70f97ba40ca9a38f37978b604051611a4a9190612862565b60405180910390a398975050505050505050565b611a66611c0a565b6001600160a01b03166000908152601060205260409020805460ff19166001179055565b6001600160a01b03918216600090815260056020908152604080832093909416825291909152205460ff1690565b611ac0611c0a565b6001600160a01b038116611aea57604051631e4fbdf760e01b815260006004820152602401610cc8565b611af381611c37565b50565b60006001600160e01b03198216632483248360e11b148061062f575061062f82611f79565b6000818152600260205260408120546001600160a01b03168061062f57604051637e27328960e01b815260048101849052602401610cc8565b610fa28383836001611f9e565b6002600c5403611b8457604051633ee5aeb560e01b815260040160405180910390fd5b6002600c55565b6106fb8282604051806020016040528060008152506120a4565b6000828152600a60205260409020611bbd8282612e4e565b506040518281527ff8e1a15aba9398e019f0b49df1a4fde98ee17ae345cb5f6b5e2c27f5033e8ce79060200160405180910390a15050565b6000611c028484846120bc565b949350505050565b600b546001600160a01b0316331461135f5760405163118cdaa760e01b8152336004820152602401610cc8565b600b80546001600160a01b038381166001600160a01b0319831681179093556040519116919082907f8be0079c531659141344cd1fd0a4f28419497f9722a3daafe3b4186f6b6457e090600090a35050565b6001600160a01b038216611cbb57604051630b61174360e31b81526001600160a01b0383166004820152602401610cc8565b6001600160a01b03838116600081815260056020908152604080832094871680845294825291829020805460ff191686151590811790915591519182527f17307eab39ab6107e8899845ad3d59bd9653f200f220920489ca2b5937696c31910160405180910390a3505050565b6001600160a01b0383163b15611e4c57604051630a85bd0160e11b81526001600160a01b0384169063150b7a0290611d6a908890889087908790600401612f0e565b6020604051808303816000875af1925050508015611da5575060408051601f3d908101601f19168201909252611da291810190612f41565b60015b611e0e573d808015611dd3576040519150601f19603f3d011682016040523d82523d6000602084013e611dd8565b606091505b508051600003611e0657604051633250574960e11b81526001600160a01b0385166004820152602401610cc8565b805160208201fd5b6001600160e01b03198116630a85bd0160e11b14611e4a57604051633250574960e11b81526001600160a01b0385166004820152602401610cc8565b505b5050505050565b6060611e5e82611b1b565b506000828152600a602052604081208054611e7890612d76565b80601f0160208091040260200160405190810160405280929190818152602001828054611ea490612d76565b8015611ef15780601f10611ec657610100808354040283529160200191611ef1565b820191906000526020600020905b815481529060010190602001808311611ed457829003601f168201915b505050505090506000611f2c60408051808201909152601581527468747470733a2f2f697066732e696f2f697066732f60581b602082015290565b90508051600003611f3e575092915050565b815115611f70578082604051602001611f58929190612f5e565b60405160208183030381529060405292505050919050565b611c0284612189565b60006001600160e01b0319821663780e9d6360e01b148061062f575061062f8261221a565b8080611fb257506001600160a01b03821615155b15612074576000611fc284611b1b565b90506001600160a01b03831615801590611fee5750826001600160a01b0316816001600160a01b031614155b80156120015750611fff8184611a8a565b155b1561202a5760405163a9fbf51f60e01b81526001600160a01b0384166004820152602401610cc8565b81156120725783856001600160a01b0316826001600160a01b03167f8c5be1e5ebec7d5bd14f71427d1e84f3dd0314c0f7b2291e5b200ac8c7c3b92560405160405180910390a45b505b5050600090815260046020526040902080546001600160a01b0319166001600160a01b0392909216919091179055565b6120ae838361226a565b610fa2336000858585611d28565b6000806120ca8585856122cf565b90506001600160a01b0381166121275761212284600880546000838152600960205260408120829055600182018355919091527ff3f7a9fe364faab93b216da50a3214154f22a0a2b415b23a84c8169e8b636ee30155565b61214a565b846001600160a01b0316816001600160a01b03161461214a5761214a81856123c8565b6001600160a01b0385166121665761216184612449565b611c02565b846001600160a01b0316816001600160a01b031614611c0257611c0285856124f8565b606061219482611b1b565b5060006121c960408051808201909152601581527468747470733a2f2f697066732e696f2f697066732f60581b602082015290565b905060008151116121e95760405180602001604052806000815250610c5c565b806121f384612548565b604051602001612204929190612f5e565b6040516020818303038152906040529392505050565b60006001600160e01b031982166380ac58cd60e01b148061224b57506001600160e01b03198216635b5e139f60e01b145b8061062f57506301ffc9a760e01b6001600160e01b031983161461062f565b6001600160a01b03821661229457604051633250574960e11b815260006004820152602401610cc8565b60006122a283836000611bf5565b90506001600160a01b03811615610fa2576040516339e3563760e11b815260006004820152602401610cc8565b6000828152600260205260408120546001600160a01b03908116908316156122fc576122fc8184866125db565b6001600160a01b0381161561233a57612319600085600080611f9e565b6001600160a01b038116600090815260036020526040902080546000190190555b6001600160a01b03851615612369576001600160a01b0385166000908152600360205260409020805460010190555b60008481526002602052604080822080546001600160a01b0319166001600160a01b0389811691821790925591518793918516917fddf252ad1be2c89b69c2b068fc378daa952ba7f163c4a11628f55a4df523b3ef91a4949350505050565b60006123d383611305565b6000838152600760209081526040808320546001600160a01b038816845260069092529091209192509081831461242a57600083815260208281526040808320548584528184208190558352600790915290208290555b6000938452600760209081526040808620869055938552525081205550565b60085460009061245b90600190612dc6565b6000838152600960205260408120546008805493945090928490811061248357612483612df2565b9060005260206000200154905080600883815481106124a4576124a4612df2565b60009182526020808320909101929092558281526009909152604080822084905585825281205560088054806124dc576124dc612f8d565b6001900381819060005260206000200160009055905550505050565b6000600161250584611305565b61250f9190612dc6565b6001600160a01b039093166000908152600660209081526040808320868452825280832085905593825260079052919091209190915550565b606060006125558361263f565b600101905060008167ffffffffffffffff8111156125755761257561296d565b6040519080825280601f01601f19166020018201604052801561259f576020820181803683370190505b5090508181016020015b600019016f181899199a1a9b1b9c1cb0b131b232b360811b600a86061a8153600a85049450846125a957509392505050565b6125e6838383612717565b610fa2576001600160a01b03831661261457604051637e27328960e01b815260048101829052602401610cc8565b60405163177e802f60e01b81526001600160a01b038316600482015260248101829052604401610cc8565b60008072184f03e93ff9f4daa797ed6e38ed64bf6a1f0160401b831061267e5772184f03e93ff9f4daa797ed6e38ed64bf6a1f0160401b830492506040015b6d04ee2d6d415b85acef810000000083106126aa576d04ee2d6d415b85acef8100000000830492506020015b662386f26fc1000083106126c857662386f26fc10000830492506010015b6305f5e10083106126e0576305f5e100830492506008015b61271083106126f457612710830492506004015b60648310612706576064830492506002015b600a831061062f5760010192915050565b60006001600160a01b03831615801590611c025750826001600160a01b0316846001600160a01b0316148061275157506127518484611a8a565b80611c025750506000908152600460205260409020546001600160a01b03908116911614919050565b604051806101600160405280600081526020016060815260200160608152602001606081526020016000815260200160008152602001600081526020016000815260200160006001600160a01b03168152602001600015158152602001606081525090565b6001600160e01b031981168114611af357600080fd5b60006020828403121561280757600080fd5b8135610c5c816127df565b60005b8381101561282d578181015183820152602001612815565b50506000910152565b6000815180845261284e816020860160208601612812565b601f01601f19169290920160200192915050565b602081526000610c5c6020830184612836565b60006020828403121561288757600080fd5b5035919050565b80356001600160a01b03811681146128a557600080fd5b919050565b600080604083850312156128bd57600080fd5b6128c68361288e565b946020939093013593505050565b60006101608d83528060208401526128ee8184018e612836565b90508281036040840152612902818d612836565b90508281036060840152612916818c612836565b90508960808401528860a08401528760c08401528660e084015260018060a01b03861661010084015284151561012084015282810361014084015261295b8185612836565b9e9d5050505050505050505050505050565b634e487b7160e01b600052604160045260246000fd5b600067ffffffffffffffff8084111561299e5761299e61296d565b604051601f8501601f19908116603f011681019082821181831017156129c6576129c661296d565b816040528093508581528686860111156129df57600080fd5b858560208301376000602087830101525050509392505050565b600082601f830112612a0a57600080fd5b610c5c83833560208501612983565b60008060408385031215612a2c57600080fd5b82359150602083013567ffffffffffffffff811115612a4a57600080fd5b612a56858286016129f9565b9150509250929050565b600080600060608486031215612a7557600080fd5b612a7e8461288e565b9250612a8c6020850161288e565b9150604084013590509250925092565b600060208284031215612aae57600080fd5b610c5c8261288e565b602081528151602082015260006020830151610160806040850152612ae0610180850183612836565b91506040850151601f1980868503016060870152612afe8483612836565b93506060870151915080868503016080870152612b1b8483612836565b9350608087015160a087015260a087015160c087015260c087015160e087015260e08701519150610100828188015280880151925050610120612b68818801846001600160a01b03169052565b8701519150610140612b7d8782018415159052565b870151868503909101838701529050612b968382612836565b9695505050505050565b803580151581146128a557600080fd5b60008060408385031215612bc357600080fd5b82359150612bd360208401612ba0565b90509250929050565b60008060408385031215612bef57600080fd5b612bf88361288e565b9150612bd360208401612ba0565b60008060008060808587031215612c1c57600080fd5b612c258561288e565b9350612c336020860161288e565b925060408501359150606085013567ffffffffffffffff811115612c5657600080fd5b8501601f81018713612c6757600080fd5b612c7687823560208401612983565b91505092959194509250565b600080600080600080600060e0888a031215612c9d57600080fd5b873567ffffffffffffffff80821115612cb557600080fd5b612cc18b838c016129f9565b985060208a0135915080821115612cd757600080fd5b612ce38b838c016129f9565b975060408a0135915080821115612cf957600080fd5b612d058b838c016129f9565b965060608a0135955060808a0135945060a08a0135935060c08a0135915080821115612d3057600080fd5b50612d3d8a828b016129f9565b91505092959891949750929550565b60008060408385031215612d5f57600080fd5b612d688361288e565b9150612bd36020840161288e565b600181811c90821680612d8a57607f821691505b602082108103612daa57634e487b7160e01b600052602260045260246000fd5b50919050565b634e487b7160e01b600052601160045260246000fd5b8181038181111561062f5761062f612db0565b600060018201612deb57612deb612db0565b5060010190565b634e487b7160e01b600052603260045260246000fd5b601f821115610fa257600081815260208120601f850160051c81016020861015612e2f5750805b601f850160051c820191505b81811015611e4a57828155600101612e3b565b815167ffffffffffffffff811115612e6857612e6861296d565b612e7c81612e768454612d76565b84612e08565b602080601f831160018114612eb15760008415612e995750858301515b600019600386901b1c1916600185901b178555611e4a565b600085815260208120601f198616915b82811015612ee057888601518255948401946001909101908401612ec1565b5085821015612efe5787850151600019600388901b60f8161c191681555b5050505050600190811b01905550565b6001600160a01b0385811682528416602082015260408101839052608060608201819052600090612b9690830184612836565b600060208284031215612f5357600080fd5b8151610c5c816127df565b60008351612f70818460208801612812565b835190830190612f84818360208801612812565b01949350505050565b634e487b7160e01b600052603160045260246000fdfea26469706673582212204db755dfe1ec0032d5d23fc3b297269224e1d5149fb43ea9b8d786242c2542b664736f6c63430008140033",
  "linkReferences": {},
  "deployedLinkReferences": {}
}