{
  "_format": "hh-sol-artifact-1",
  "contractName": "SE2NFT",
  "sourceName": "contracts/SE2NFT.sol",
  "abi": [
    {
      "inputs": [],
      "stateMutability": "nonpayable",
      "type": "constructor"
    },
    {
      "inputs": [],
      "name": "ERC721EnumerableForbiddenBatchMint",
      "type": "error"
    },
    {
      "inputs": [
        {
          "internalType": "address",
          "name": "sender",
          "type": "address"
        },
        {
          "internalType": "uint256",
          "name": "tokenId",
          "type": "uint256"
        },
        {
          "internalType": "address",
          "name": "owner",
          "type": "address"
        }
      ],
      "name": "ERC721IncorrectOwner",
      "type": "error"
    },
    {
      "inputs": [
        {
          "internalType": "address",
          "name": "operator",
          "type": "address"
        },
        {
          "internalType": "uint256",
          "name": "tokenId",
          "type": "uint256"
        }
      ],
      "name": "ERC721InsufficientApproval",
      "type": "error"
    },
    {
      "inputs": [
        {
          "internalType": "address",
          "name": "approver",
          "type": "address"
        }
      ],
      "name": "ERC721InvalidApprover",
      "type": "error"
    },
    {
      "inputs": [
        {
          "internalType": "address",
          "name": "operator",
          "type": "address"
        }
      ],
      "name": "ERC721InvalidOperator",
      "type": "error"
    },
    {
      "inputs": [
        {
          "internalType": "address",
          "name": "owner",
          "type": "address"
        }
      ],
      "name": "ERC721InvalidOwner",
      "type": "error"
    },
    {
      "inputs": [
        {
          "internalType": "address",
          "name": "receiver",
          "type": "address"
        }
      ],
      "name": "ERC721InvalidReceiver",
      "type": "error"
    },
    {
      "inputs": [
        {
          "internalType": "address",
          "name": "sender",
          "type": "address"
        }
      ],
      "name": "ERC721InvalidSender",
      "type": "error"
    },
    {
      "inputs": [
        {
          "internalType": "uint256",
          "name": "tokenId",
          "type": "uint256"
        }
      ],
      "name": "ERC721NonexistentToken",
      "type": "error"
    },
    {
      "inputs": [
        {
          "internalType": "address",
          "name": "owner",
          "type": "address"
        },
        {
          "internalType": "uint256",
          "name": "index",
          "type": "uint256"
        }
      ],
      "name": "ERC721OutOfBoundsIndex",
      "type": "error"
    },
    {
      "anonymous": false,
      "inputs": [
        {
          "indexed": true,
          "internalType": "address",
          "name": "owner",
          "type": "address"
        },
        {
          "indexed": true,
          "internalType": "address",
          "name": "approved",
          "type": "address"
        },
        {
          "indexed": true,
          "internalType": "uint256",
          "name": "tokenId",
          "type": "uint256"
        }
      ],
      "name": "Approval",
      "type": "event"
    },
    {
      "anonymous": false,
      "inputs": [
        {
          "indexed": true,
          "internalType": "address",
          "name": "owner",
          "type": "address"
        },
        {
          "indexed": true,
          "internalType": "address",
          "name": "operator",
          "type": "address"
        },
        {
          "indexed": false,
          "internalType": "bool",
          "name": "approved",
          "type": "bool"
        }
      ],
      "name": "ApprovalForAll",
      "type": "event"
    },
    {
      "anonymous": false,
      "inputs": [
        {
          "indexed": true,
          "internalType": "address",
          "name": "from",
          "type": "address"
        },
        {
          "indexed": true,
          "internalType": "address",
          "name": "to",
          "type": "address"
        },
        {
          "indexed": true,
          "internalType": "uint256",
          "name": "tokenId",
          "type": "uint256"
        }
      ],
      "name": "Transfer",
      "type": "event"
    },
    {
      "inputs": [
        {
          "internalType": "address",
          "name": "to",
          "type": "address"
        },
        {
          "internalType": "uint256",
          "name": "tokenId",
          "type": "uint256"
        }
      ],
      "name": "approve",
      "outputs": [],
      "stateMutability": "nonpayable",
      "type": "function"
    },
    {
      "inputs": [
        {
          "internalType": "address",
          "name": "owner",
          "type": "address"
        }
      ],
      "name": "balanceOf",
      "outputs": [
        {
          "internalType": "uint256",
          "name": "",
          "type": "uint256"
        }
      ],
      "stateMutability": "view",
      "type": "function"
    },
    {
      "inputs": [
        {
          "internalType": "uint256",
          "name": "tokenId",
          "type": "uint256"
        }
      ],
      "name": "getApproved",
      "outputs": [
        {
          "internalType": "address",
          "name": "",
          "type": "address"
        }
      ],
      "stateMutability": "view",
      "type": "function"
    },
    {
      "inputs": [
        {
          "internalType": "address",
          "name": "owner",
          "type": "address"
        },
        {
          "internalType": "address",
          "name": "operator",
          "type": "address"
        }
      ],
      "name": "isApprovedForAll",
      "outputs": [
        {
          "internalType": "bool",
          "name": "",
          "type": "bool"
        }
      ],
      "stateMutability": "view",
      "type": "function"
    },
    {
      "inputs": [
        {
          "internalType": "address",
          "name": "to",
          "type": "address"
        }
      ],
      "name": "mintItem",
      "outputs": [
        {
          "internalType": "uint256",
          "name": "",
          "type": "uint256"
        }
      ],
      "stateMutability": "nonpayable",
      "type": "function"
    },
    {
      "inputs": [],
      "name": "name",
      "outputs": [
        {
          "internalType": "string",
          "name": "",
          "type": "string"
        }
      ],
      "stateMutability": "view",
      "type": "function"
    },
    {
      "inputs": [
        {
          "internalType": "uint256",
          "name": "tokenId",
          "type": "uint256"
        }
      ],
      "name": "ownerOf",
      "outputs": [
        {
          "internalType": "address",
          "name": "",
          "type": "address"
        }
      ],
      "stateMutability": "view",
      "type": "function"
    },
    {
      "inputs": [
        {
          "internalType": "address",
          "name": "from",
          "type": "address"
        },
        {
          "internalType": "address",
          "name": "to",
          "type": "address"
        },
        {
          "internalType": "uint256",
          "name": "tokenId",
          "type": "uint256"
        }
      ],
      "name": "safeTransferFrom",
      "outputs": [],
      "stateMutability": "nonpayable",
      "type": "function"
    },
    {
      "inputs": [
        {
          "internalType": "address",
          "name": "from",
          "type": "address"
        },
        {
          "internalType": "address",
          "name": "to",
          "type": "address"
        },
        {
          "internalType": "uint256",
          "name": "tokenId",
          "type": "uint256"
        },
        {
          "internalType": "bytes",
          "name": "data",
          "type": "bytes"
        }
      ],
      "name": "safeTransferFrom",
      "outputs": [],
      "stateMutability": "nonpayable",
      "type": "function"
    },
    {
      "inputs": [
        {
          "internalType": "address",
          "name": "operator",
          "type": "address"
        },
        {
          "internalType": "bool",
          "name": "approved",
          "type": "bool"
        }
      ],
      "name": "setApprovalForAll",
      "outputs": [],
      "stateMutability": "nonpayable",
      "type": "function"
    },
    {
      "inputs": [
        {
          "internalType": "bytes4",
          "name": "interfaceId",
          "type": "bytes4"
        }
      ],
      "name": "supportsInterface",
      "outputs": [
        {
          "internalType": "bool",
          "name": "",
          "type": "bool"
        }
      ],
      "stateMutability": "view",
      "type": "function"
    },
    {
      "inputs": [],
      "name": "symbol",
      "outputs": [
        {
          "internalType": "string",
          "name": "",
          "type": "string"
        }
      ],
      "stateMutability": "view",
      "type": "function"
    },
    {
      "inputs": [
        {
          "internalType": "uint256",
          "name": "index",
          "type": "uint256"
        }
      ],
      "name": "tokenByIndex",
      "outputs": [
        {
          "internalType": "uint256",
          "name": "",
          "type": "uint256"
        }
      ],
      "stateMutability": "view",
      "type": "function"
    },
    {
      "inputs": [],
      "name": "tokenIdCounter",
      "outputs": [
        {
          "internalType": "uint256",
          "name": "",
          "type": "uint256"
        }
      ],
      "stateMutability": "view",
      "type": "function"
    },
    {
      "inputs": [
        {
          "internalType": "address",
          "name": "owner",
          "type": "address"
        },
        {
          "internalType": "uint256",
          "name": "index",
          "type": "uint256"
        }
      ],
      "name": "tokenOfOwnerByIndex",
      "outputs": [
        {
          "internalType": "uint256",
          "name": "",
          "type": "uint256"
        }
      ],
      "stateMutability": "view",
      "type": "function"
    },
    {
      "inputs": [
        {
          "internalType": "uint256",
          "name": "tokenId",
          "type": "uint256"
        }
      ],
      "name": "tokenURI",
      "outputs": [
        {
          "internalType": "string",
          "name": "",
          "type": "string"
        }
      ],
      "stateMutability": "view",
      "type": "function"
    },
    {
      "inputs": [
        {
          "internalType": "uint256",
          "name": "tokenId",
          "type": "uint256"
        }
      ],
      "name": "tokenURIs",
      "outputs": [
        {
          "internalType": "string",
          "name": "",
          "type": "string"
        }
      ],
      "stateMutability": "view",
      "type": "function"
    },
    {
      "inputs": [],
      "name": "totalSupply",
      "outputs": [
        {
          "internalType": "uint256",
          "name": "",
          "type": "uint256"
        }
      ],
      "stateMutability": "view",
      "type": "function"
    },
    {
      "inputs": [
        {
          "internalType": "address",
          "name": "from",
          "type": "address"
        },
        {
          "internalType": "address",
          "name": "to",
          "type": "address"
        },
        {
          "internalType": "uint256",
          "name": "tokenId",
          "type": "uint256"
        }
      ],
      "name": "transferFrom",
      "outputs": [],
      "stateMutability": "nonpayable",
      "type": "function"
    },
    {
      "inputs": [
        {
          "internalType": "uint256",
          "name": "",
          "type": "uint256"
        }
      ],
      "name": "uris",
      "outputs": [
        {
          "internalType": "string",
          "name": "",
          "type": "string"
        }
      ],
      "stateMutability": "view",
      "type": "function"
    }
  ],
  "bytecode": "0x610140604052602e60e0818152608091829190620019756101003981526020016040518060600160405280602e815260200162001947602e913981526020016040518060600160405280602e8152602001620019a3602e913990526200006a90600c906003620000e8565b503480156200007857600080fd5b506040518060400160405280600e81526020016d14d14c8b515490cdcc8c4b53919560921b8152506040518060400160405280600681526020016514d14c93919560d21b8152508160009081620000d0919062000264565b506001620000df828262000264565b50505062000330565b82805482825590600052602060002090810192821562000133579160200282015b8281111562000133578251829062000122908262000264565b509160200191906001019062000109565b506200014192915062000145565b5090565b80821115620001415760006200015c828262000166565b5060010162000145565b5080546200017490620001d5565b6000825580601f1062000185575050565b601f016020900490600052602060002090810190620001a59190620001a8565b50565b5b80821115620001415760008155600101620001a9565b634e487b7160e01b600052604160045260246000fd5b600181811c90821680620001ea57607f821691505b6020821081036200020b57634e487b7160e01b600052602260045260246000fd5b50919050565b601f8211156200025f57600081815260208120601f850160051c810160208610156200023a5750805b601f850160051c820191505b818110156200025b5782815560010162000246565b5050505b505050565b81516001600160401b03811115620002805762000280620001bf565b6200029881620002918454620001d5565b8462000211565b602080601f831160018114620002d05760008415620002b75750858301515b600019600386901b1c1916600185901b1785556200025b565b600085815260208120601f198616915b828110156200030157888601518255948401946001909101908401620002e0565b5085821015620003205787850151600019600388901b60f8161c191681555b5050505050600190811b01905550565b61160780620003406000396000f3fe608060405234801561001057600080fd5b506004361061012c5760003560e01c80636352211e116100ad57806398bdf6f51161007157806398bdf6f514610273578063a22cb4651461027c578063b88d4fde1461028f578063c87b56dd146102a2578063e985e9c5146102b557600080fd5b80636352211e1461021f578063691c65d4146102325780636c8b703f1461024557806370a082311461025857806395d89b411461026b57600080fd5b806318160ddd116100f457806318160ddd146101c157806323b872dd146101d35780632f745c59146101e657806342842e0e146101f95780634f6ccce71461020c57600080fd5b806301ffc9a71461013157806306fdde0314610159578063081812fc1461016e578063095ea7b3146101995780631253c546146101ae575b600080fd5b61014461013f3660046110b5565b6102c8565b60405190151581526020015b60405180910390f35b6101616102f3565b6040516101509190611129565b61018161017c36600461113c565b610385565b6040516001600160a01b039091168152602001610150565b6101ac6101a7366004611171565b6103ae565b005b6101616101bc36600461113c565b6103bd565b6008545b604051908152602001610150565b6101ac6101e136600461119b565b610469565b6101c56101f4366004611171565b6104f9565b6101ac61020736600461119b565b61055e565b6101c561021a36600461113c565b61057e565b61018161022d36600461113c565b6105d7565b6101c56102403660046111d7565b6105e2565b61016161025336600461113c565b6106b7565b6101c56102663660046111d7565b6106d0565b610161610718565b6101c5600a5481565b6101ac61028a3660046111f2565b610727565b6101ac61029d366004611244565b610732565b6101616102b036600461113c565b610749565b6101446102c3366004611320565b61084f565b60006001600160e01b0319821663780e9d6360e01b14806102ed57506102ed8261087d565b92915050565b60606000805461030290611353565b80601f016020809104026020016040519081016040528092919081815260200182805461032e90611353565b801561037b5780601f106103505761010080835404028352916020019161037b565b820191906000526020600020905b81548152906001019060200180831161035e57829003601f168201915b5050505050905090565b6000610390826108cd565b506000828152600460205260409020546001600160a01b03166102ed565b6103b9828233610906565b5050565b600c81815481106103cd57600080fd5b9060005260206000200160009150905080546103e890611353565b80601f016020809104026020016040519081016040528092919081815260200182805461041490611353565b80156104615780601f1061043657610100808354040283529160200191610461565b820191906000526020600020905b81548152906001019060200180831161044457829003601f168201915b505050505081565b6001600160a01b03821661049857604051633250574960e11b8152600060048201526024015b60405180910390fd5b60006104a5838333610913565b9050836001600160a01b0316816001600160a01b0316146104f3576040516364283d7b60e01b81526001600160a01b038086166004830152602482018490528216604482015260640161048f565b50505050565b6000610504836106d0565b82106105355760405163295f44f760e21b81526001600160a01b03841660048201526024810183905260440161048f565b506001600160a01b03919091166000908152600660209081526040808320938352929052205490565b61057983838360405180602001604052806000815250610732565b505050565b600061058960085490565b82106105b25760405163295f44f760e21b8152600060048201526024810183905260440161048f565b600882815481106105c5576105c561138d565b90600052602060002001549050919050565b60006102ed826108cd565b600a8054600091826105f3836113b9565b919050555061060482600a546109e8565b600a546000906106156001436113d2565b6040805160208101939093529040908201526bffffffffffffffffffffffff1933606090811b82168184015230901b16607482015260880160408051601f198184030181529190528051602090910120600c80549192509061067790836113e5565b815481106106875761068761138d565b60009182526020808320600a548452600b9091526040909220916106ac910182611455565b5050600a5492915050565b600b60205260009081526040902080546103e890611353565b60006001600160a01b0382166106fc576040516322718ad960e21b81526000600482015260240161048f565b506001600160a01b031660009081526003602052604090205490565b60606001805461030290611353565b6103b9338383610a02565b61073d848484610469565b6104f384848484610aa1565b6060610754826108cd565b506000828152600b60205260408120805461076e90611353565b80601f016020809104026020016040519081016040528092919081815260200182805461079a90611353565b80156107e75780601f106107bc576101008083540402835291602001916107e7565b820191906000526020600020905b8154815290600101906020018083116107ca57829003601f168201915b50505050509050600061082260408051808201909152601581527468747470733a2f2f697066732e696f2f697066732f60581b602082015290565b90508082604051602001610837929190611532565b60405160208183030381529060405292505050919050565b6001600160a01b03918216600090815260056020908152604080832093909416825291909152205460ff1690565b60006001600160e01b031982166380ac58cd60e01b14806108ae57506001600160e01b03198216635b5e139f60e01b145b806102ed57506301ffc9a760e01b6001600160e01b03198316146102ed565b6000818152600260205260408120546001600160a01b0316806102ed57604051637e27328960e01b81526004810184905260240161048f565b6105798383836001610bca565b600080610921858585610cd0565b90506001600160a01b03811661097e5761097984600880546000838152600960205260408120829055600182018355919091527ff3f7a9fe364faab93b216da50a3214154f22a0a2b415b23a84c8169e8b636ee30155565b6109a1565b846001600160a01b0316816001600160a01b0316146109a1576109a18185610dc9565b6001600160a01b0385166109bd576109b884610e5a565b6109e0565b846001600160a01b0316816001600160a01b0316146109e0576109e08585610f09565b949350505050565b6103b9828260405180602001604052806000815250610f59565b6001600160a01b038216610a3457604051630b61174360e31b81526001600160a01b038316600482015260240161048f565b6001600160a01b03838116600081815260056020908152604080832094871680845294825291829020805460ff191686151590811790915591519182527f17307eab39ab6107e8899845ad3d59bd9653f200f220920489ca2b5937696c31910160405180910390a3505050565b6001600160a01b0383163b156104f357604051630a85bd0160e11b81526001600160a01b0384169063150b7a0290610ae3903390889087908790600401611561565b6020604051808303816000875af1925050508015610b1e575060408051601f3d908101601f19168201909252610b1b9181019061159e565b60015b610b87573d808015610b4c576040519150601f19603f3d011682016040523d82523d6000602084013e610b51565b606091505b508051600003610b7f57604051633250574960e11b81526001600160a01b038516600482015260240161048f565b805181602001fd5b6001600160e01b03198116630a85bd0160e11b14610bc357604051633250574960e11b81526001600160a01b038516600482015260240161048f565b5050505050565b8080610bde57506001600160a01b03821615155b15610ca0576000610bee846108cd565b90506001600160a01b03831615801590610c1a5750826001600160a01b0316816001600160a01b031614155b8015610c2d5750610c2b818461084f565b155b15610c565760405163a9fbf51f60e01b81526001600160a01b038416600482015260240161048f565b8115610c9e5783856001600160a01b0316826001600160a01b03167f8c5be1e5ebec7d5bd14f71427d1e84f3dd0314c0f7b2291e5b200ac8c7c3b92560405160405180910390a45b505b5050600090815260046020526040902080546001600160a01b0319166001600160a01b0392909216919091179055565b6000828152600260205260408120546001600160a01b0390811690831615610cfd57610cfd818486610f70565b6001600160a01b03811615610d3b57610d1a600085600080610bca565b6001600160a01b038116600090815260036020526040902080546000190190555b6001600160a01b03851615610d6a576001600160a01b0385166000908152600360205260409020805460010190555b60008481526002602052604080822080546001600160a01b0319166001600160a01b0389811691821790925591518793918516917fddf252ad1be2c89b69c2b068fc378daa952ba7f163c4a11628f55a4df523b3ef91a4949350505050565b6000610dd4836106d0565b600083815260076020526040902054909150808214610e27576001600160a01b03841660009081526006602090815260408083208584528252808320548484528184208190558352600790915290208190555b5060009182526007602090815260408084208490556001600160a01b039094168352600681528383209183525290812055565b600854600090610e6c906001906113d2565b60008381526009602052604081205460088054939450909284908110610e9457610e9461138d565b906000526020600020015490508060088381548110610eb557610eb561138d565b6000918252602080832090910192909255828152600990915260408082208490558582528120556008805480610eed57610eed6115bb565b6001900381819060005260206000200160009055905550505050565b60006001610f16846106d0565b610f2091906113d2565b6001600160a01b039093166000908152600660209081526040808320868452825280832085905593825260079052919091209190915550565b610f638383610fd4565b6105796000848484610aa1565b610f7b838383611039565b610579576001600160a01b038316610fa957604051637e27328960e01b81526004810182905260240161048f565b60405163177e802f60e01b81526001600160a01b03831660048201526024810182905260440161048f565b6001600160a01b038216610ffe57604051633250574960e11b81526000600482015260240161048f565b600061100c83836000610913565b90506001600160a01b03811615610579576040516339e3563760e11b81526000600482015260240161048f565b60006001600160a01b038316158015906109e05750826001600160a01b0316846001600160a01b031614806110735750611073848461084f565b806109e05750506000908152600460205260409020546001600160a01b03908116911614919050565b6001600160e01b0319811681146110b257600080fd5b50565b6000602082840312156110c757600080fd5b81356110d28161109c565b9392505050565b60005b838110156110f45781810151838201526020016110dc565b50506000910152565b600081518084526111158160208601602086016110d9565b601f01601f19169290920160200192915050565b6020815260006110d260208301846110fd565b60006020828403121561114e57600080fd5b5035919050565b80356001600160a01b038116811461116c57600080fd5b919050565b6000806040838503121561118457600080fd5b61118d83611155565b946020939093013593505050565b6000806000606084860312156111b057600080fd5b6111b984611155565b92506111c760208501611155565b9150604084013590509250925092565b6000602082840312156111e957600080fd5b6110d282611155565b6000806040838503121561120557600080fd5b61120e83611155565b91506020830135801515811461122357600080fd5b809150509250929050565b634e487b7160e01b600052604160045260246000fd5b6000806000806080858703121561125a57600080fd5b61126385611155565b935061127160208601611155565b925060408501359150606085013567ffffffffffffffff8082111561129557600080fd5b818701915087601f8301126112a957600080fd5b8135818111156112bb576112bb61122e565b604051601f8201601f19908116603f011681019083821181831017156112e3576112e361122e565b816040528281528a60208487010111156112fc57600080fd5b82602086016020830137600060208483010152809550505050505092959194509250565b6000806040838503121561133357600080fd5b61133c83611155565b915061134a60208401611155565b90509250929050565b600181811c9082168061136757607f821691505b60208210810361138757634e487b7160e01b600052602260045260246000fd5b50919050565b634e487b7160e01b600052603260045260246000fd5b634e487b7160e01b600052601160045260246000fd5b6000600182016113cb576113cb6113a3565b5060010190565b818103818111156102ed576102ed6113a3565b60008261140257634e487b7160e01b600052601260045260246000fd5b500690565b601f82111561057957600081815260208120601f850160051c8101602086101561142e5750805b601f850160051c820191505b8181101561144d5782815560010161143a565b505050505050565b818103611460575050565b61146a8254611353565b67ffffffffffffffff8111156114825761148261122e565b611496816114908454611353565b84611407565b6000601f8211600181146114ca57600083156114b25750848201545b600019600385901b1c1916600184901b178455610bc3565b600085815260209020601f19841690600086815260209020845b8381101561150457828601548255600195860195909101906020016114e4565b50858310156115225781850154600019600388901b60f8161c191681555b5050505050600190811b01905550565b600083516115448184602088016110d9565b8351908301906115588183602088016110d9565b01949350505050565b6001600160a01b0385811682528416602082015260408101839052608060608201819052600090611594908301846110fd565b9695505050505050565b6000602082840312156115b057600080fd5b81516110d28161109c565b634e487b7160e01b600052603160045260246000fdfea2646970667358221220b18005773be5bce7f17c39cf3adbaa97fdfe78d231c182ba596482770b83895e64736f6c63430008140033516d66564d416d4e4d316b4445425972433254507a51446f4352464836463574453165394d7234466b6b52355872516d564869336334716b5a634833634a796e7a4458526d356e37647a633952395455745563666e57517668646377516d63766355614b66364a794358684c4431627936684a584e727550514773336b6b4c673257317872376e46316a",
  "linkReferences": {},
  "deployedLinkReferences": {}
}