{
  "address": "0x61dbBaAa8bAaC27a4c36DDC406542DC790028910",
  "abi": [
    {
      "inputs": [],
      "name": "ReentrancyGuardReentrantCall",
      "type": "error"
    },
    {
      "anonymous": false,
      "inputs": [
        {
          "indexed": true,
          "internalType": "uint256",
          "name": "listingId",
          "type": "uint256"
        },
        {
          "indexed": true,
          "internalType": "address",
          "name": "nftContract",
          "type": "address"
        },
        {
          "indexed": true,
          "internalType": "uint256",
          "name": "tokenId",
          "type": "uint256"
        }
      ],
      "name": "ListingCancelled",
      "type": "event"
    },
    {
      "anonymous": false,
      "inputs": [
        {
          "indexed": true,
          "internalType": "uint256",
          "name": "listingId",
          "type": "uint256"
        },
        {
          "indexed": true,
          "internalType": "address",
          "name": "nftContract",
          "type": "address"
        },
        {
          "indexed": true,
          "internalType": "uint256",
          "name": "tokenId",
          "type": "uint256"
        },
        {
          "indexed": false,
          "internalType": "address",
          "name": "seller",
          "type": "address"
        },
        {
          "indexed": false,
          "internalType": "uint256",
          "name": "price",
          "type": "uint256"
        }
      ],
      "name": "TicketListed",
      "type": "event"
    },
    {
      "anonymous": false,
      "inputs": [
        {
          "indexed": true,
          "internalType": "uint256",
          "name": "listingId",
          "type": "uint256"
        },
        {
          "indexed": true,
          "internalType": "address",
          "name": "nftContract",
          "type": "address"
        },
        {
          "indexed": true,
          "internalType": "uint256",
          "name": "tokenId",
          "type": "uint256"
        },
        {
          "indexed": false,
          "internalType": "address",
          "name": "seller",
          "type": "address"
        },
        {
          "indexed": false,
          "internalType": "address",
          "name": "buyer",
          "type": "address"
        },
        {
          "indexed": false,
          "internalType": "uint256",
          "name": "price",
          "type": "uint256"
        }
      ],
      "name": "TicketSold",
      "type": "event"
    },
    {
      "inputs": [
        {
          "internalType": "uint256",
          "name": "listingId",
          "type": "uint256"
        }
      ],
      "name": "buyTicket",
      "outputs": [],
      "stateMutability": "payable",
      "type": "function"
    },
    {
      "inputs": [
        {
          "internalType": "uint256",
          "name": "listingId",
          "type": "uint256"
        }
      ],
      "name": "cancelListing",
      "outputs": [],
      "stateMutability": "nonpayable",
      "type": "function"
    },
    {
      "inputs": [],
      "name": "getActiveListings",
      "outputs": [
        {
          "components": [
            {
              "internalType": "uint256",
              "name": "listingId",
              "type": "uint256"
            },
            {
              "internalType": "address",
              "name": "nftContract",
              "type": "address"
            },
            {
              "internalType": "uint256",
              "name": "tokenId",
              "type": "uint256"
            },
            {
              "internalType": "address",
              "name": "seller",
              "type": "address"
            },
            {
              "internalType": "uint256",
              "name": "price",
              "type": "uint256"
            },
            {
              "internalType": "bool",
              "name": "isActive",
              "type": "bool"
            },
            {
              "internalType": "uint256",
              "name": "createdAt",
              "type": "uint256"
            }
          ],
          "internalType": "struct NFTMarketplace.Listing[]",
          "name": "",
          "type": "tuple[]"
        }
      ],
      "stateMutability": "view",
      "type": "function"
    },
    {
      "inputs": [
        {
          "internalType": "uint256",
          "name": "listingId",
          "type": "uint256"
        }
      ],
      "name": "getListing",
      "outputs": [
        {
          "components": [
            {
              "internalType": "uint256",
              "name": "listingId",
              "type": "uint256"
            },
            {
              "internalType": "address",
              "name": "nftContract",
              "type": "address"
            },
            {
              "internalType": "uint256",
              "name": "tokenId",
              "type": "uint256"
            },
            {
              "internalType": "address",
              "name": "seller",
              "type": "address"
            },
            {
              "internalType": "uint256",
              "name": "price",
              "type": "uint256"
            },
            {
              "internalType": "bool",
              "name": "isActive",
              "type": "bool"
            },
            {
              "internalType": "uint256",
              "name": "createdAt",
              "type": "uint256"
            }
          ],
          "internalType": "struct NFTMarketplace.Listing",
          "name": "",
          "type": "tuple"
        }
      ],
      "stateMutability": "view",
      "type": "function"
    },
    {
      "inputs": [
        {
          "internalType": "address",
          "name": "nftContract",
          "type": "address"
        },
        {
          "internalType": "uint256",
          "name": "tokenId",
          "type": "uint256"
        },
        {
          "internalType": "uint256",
          "name": "price",
          "type": "uint256"
        }
      ],
      "name": "listTicket",
      "outputs": [],
      "stateMutability": "nonpayable",
      "type": "function"
    },
    {
      "inputs": [
        {
          "internalType": "uint256",
          "name": "",
          "type": "uint256"
        }
      ],
      "name": "listings",
      "outputs": [
        {
          "internalType": "uint256",
          "name": "listingId",
          "type": "uint256"
        },
        {
          "internalType": "address",
          "name": "nftContract",
          "type": "address"
        },
        {
          "internalType": "uint256",
          "name": "tokenId",
          "type": "uint256"
        },
        {
          "internalType": "address",
          "name": "seller",
          "type": "address"
        },
        {
          "internalType": "uint256",
          "name": "price",
          "type": "uint256"
        },
        {
          "internalType": "bool",
          "name": "isActive",
          "type": "bool"
        },
        {
          "internalType": "uint256",
          "name": "createdAt",
          "type": "uint256"
        }
      ],
      "stateMutability": "view",
      "type": "function"
    }
  ],
  "transactionHash": "0xb97bc51d2f471f372160f2954f36d6ebfff707bb582d5db1e127da9bcb87b881",
  "args": [],
  "numDeployments": 1,
  "solcInputHash": "94f24041666a4a41ffa8323468974320",
  "bytecode": "0x608060405234801561001057600080fd5b506001600055610ca8806100256000396000f3fe6080604052600436106100555760003560e01c8063107a274a1461005a5780631d66b15c14610090578063305a67a8146100b257806367dd74ca146100d257806387c35bc0146100e5578063de74e57b14610107575b600080fd5b34801561006657600080fd5b5061007a610075366004610ae2565b6101b1565b6040516100879190610b4f565b60405180910390f35b34801561009c57600080fd5b506100b06100ab366004610b78565b61022c565b005b3480156100be57600080fd5b506100b06100cd366004610ae2565b61051c565b6100b06100e0366004610ae2565b610635565b3480156100f157600080fd5b506100fa6108e4565b6040516100879190610bad565b34801561011357600080fd5b50610171610122366004610ae2565b6002602081905260009182526040909120805460018201549282015460038301546004840154600585015460069095015493956001600160a01b03908116959394921692909160ff9091169087565b604080519788526001600160a01b039687166020890152870194909452939091166060850152608084015290151560a083015260c082015260e001610087565b6101b9610a91565b50600090815260026020818152604092839020835160e0810185528154815260018201546001600160a01b03908116938201939093529281015493830193909352600383015416606082015260048201546080820152600582015460ff16151560a082015260069091015460c082015290565b610234610a67565b600081116102895760405162461bcd60e51b815260206004820152601c60248201527f5072696365206d7573742062652067726561746572207468616e20300000000060448201526064015b60405180910390fd5b6040516331a9108f60e11b81526004810183905233906001600160a01b03851690636352211e90602401602060405180830381865afa1580156102d0573d6000803e3d6000fd5b505050506040513d601f19601f820116820180604052508101906102f49190610bfb565b6001600160a01b0316146103405760405162461bcd60e51b81526020600482015260136024820152722737ba103a3432903a37b5b2b71037bbb732b960691b6044820152606401610280565b60405163020604bf60e21b81526004810183905230906001600160a01b0385169063081812fc90602401602060405180830381865afa158015610387573d6000803e3d6000fd5b505050506040513d601f19601f820116820180604052508101906103ab9190610bfb565b6001600160a01b0316146104015760405162461bcd60e51b815260206004820152601860248201527f4d61726b6574706c616365206e6f7420617070726f76656400000000000000006044820152606401610280565b600060016000815461041290610c1f565b91829055506040805160e0810182528281526001600160a01b0387811660208084018281528486018a81523360608701818152608088018c8152600160a08a018181524260c08c0190815260008e81526002808b52908e90209c518d559751928c0180546001600160a01b0319908116948d169490941790559551968b0196909655915160038a018054909316981697909717905594516004870155905160058601805460ff19169115159190911790555160069094019390935583519182529181018690529293508592909184917fe7b6079b3fec7378b0bef81b86ac6e407751822cae070308d6a57172fdf116da910160405180910390a4506105176001600055565b505050565b610524610a67565b6000818152600260205260409020600581015460ff1661057e5760405162461bcd60e51b81526020600482015260156024820152744c697374696e67206973206e6f742061637469766560581b6044820152606401610280565b60038101546001600160a01b031633146105da5760405162461bcd60e51b815260206004820152601e60248201527f4f6e6c792073656c6c65722063616e2063616e63656c206c697374696e6700006044820152606401610280565b60058101805460ff19169055600281015460018201546040516001600160a01b039091169084907fffadd0f4e7d64abb82ef3d770cd739a881c221c0b5b162238659e6567216abe290600090a4506106326001600055565b50565b61063d610a67565b6000818152600260205260409020600581015460ff166106975760405162461bcd60e51b81526020600482015260156024820152744c697374696e67206973206e6f742061637469766560581b6044820152606401610280565b806004015434146106ea5760405162461bcd60e51b815260206004820152601860248201527f496e636f7272656374207061796d656e7420616d6f756e7400000000000000006044820152606401610280565b60038101546001600160a01b031633036107525760405162461bcd60e51b815260206004820152602360248201527f53656c6c65722063616e6e6f7420627579207468656972206f776e206c697374604482015262696e6760e81b6064820152608401610280565b60058101805460ff1916905560038101546040516000916001600160a01b03169034908381818185875af1925050503d80600081146107ad576040519150601f19603f3d011682016040523d82523d6000602084013e6107b2565b606091505b50509050806107fc5760405162461bcd60e51b815260206004820152601660248201527511985a5b1959081d1bc81cd95b99081c185e5b595b9d60521b6044820152606401610280565b600182015460038301546002840154604051632142170760e11b81526001600160a01b03928316600482015233602482015260448101919091529116906342842e0e90606401600060405180830381600087803b15801561085c57600080fd5b505af1158015610870573d6000803e3d6000fd5b505050506002820154600183015460038401546004850154604080516001600160a01b0393841681523360208201529081019190915291169085907f09c89789d7751db4a57a94a01764f1678800b8494ec51c00e7e6f16916c592b49060600160405180910390a450506106326001600055565b600180546060916000905b8281116109305760008181526002602052604090206005015460ff161561091e578161091a81610c1f565b9250505b8061092881610c1f565b9150506108ef565b5060008167ffffffffffffffff81111561094c5761094c610c46565b60405190808252806020026020018201604052801561098557816020015b610972610a91565b81526020019060019003908161096a5790505b509050600060015b848111610a5d5760008181526002602052604090206005015460ff1615610a4b57600081815260026020818152604092839020835160e0810185528154815260018201546001600160a01b03908116938201939093529281015493830193909352600383015416606082015260048201546080820152600582015460ff16151560a082015260069091015460c08201528351849084908110610a3157610a31610c5c565b60200260200101819052508180610a4790610c1f565b9250505b80610a5581610c1f565b91505061098d565b5090949350505050565b600260005403610a8a57604051633ee5aeb560e01b815260040160405180910390fd5b6002600055565b6040518060e001604052806000815260200160006001600160a01b031681526020016000815260200160006001600160a01b0316815260200160008152602001600015158152602001600081525090565b600060208284031215610af457600080fd5b5035919050565b80518252602081015160018060a01b0380821660208501526040830151604085015280606084015116606085015250506080810151608083015260a0810151151560a083015260c081015160c08301525050565b60e08101610b5d8284610afb565b92915050565b6001600160a01b038116811461063257600080fd5b600080600060608486031215610b8d57600080fd5b8335610b9881610b63565b95602085013595506040909401359392505050565b6020808252825182820181905260009190848201906040850190845b81811015610bef57610bdc838551610afb565b9284019260e09290920191600101610bc9565b50909695505050505050565b600060208284031215610c0d57600080fd5b8151610c1881610b63565b9392505050565b600060018201610c3f57634e487b7160e01b600052601160045260246000fd5b5060010190565b634e487b7160e01b600052604160045260246000fd5b634e487b7160e01b600052603260045260246000fdfea2646970667358221220aad7b28cebf32e47da546117de53f30e3e3dfc1ba449d05e115516385d16448564736f6c63430008140033",
  "devdoc": {
    "details": "A marketplace for trading NFT event tickets",
    "errors": {
      "ReentrancyGuardReentrantCall()": [
        {
          "details": "Unauthorized reentrant call."
        }
      ]
    },
    "kind": "dev",
    "methods": {
      "buyTicket(uint256)": {
        "details": "Buys a listed NFT ticket",
        "params": {
          "listingId": "The ID of the listing to buy"
        }
      },
      "cancelListing(uint256)": {
        "details": "Cancels a listing",
        "params": {
          "listingId": "The ID of the listing to cancel"
        }
      },
      "getActiveListings()": {
        "details": "Gets all active listings",
        "returns": {
          "_0": "Array of active listings"
        }
      },
      "getListing(uint256)": {
        "details": "Gets a specific listing",
        "params": {
          "listingId": "The ID of the listing to fetch"
        }
      },
      "listTicket(address,uint256,uint256)": {
        "details": "Lists an NFT ticket for sale",
        "params": {
          "nftContract": "The address of the NFT contract",
          "price": "The price in wei",
          "tokenId": "The ID of the token to list"
        }
      }
    },
    "title": "NFTMarketplace",
    "version": 1
  },
  "userdoc": {
    "kind": "user",
    "methods": {},
    "version": 1
  },
  "storageLayout": {
    "storage": [
      {
        "astId": 2152,
        "contract": "contracts/NFTMarketplace.sol:NFTMarketplace",
        "label": "_status",
        "offset": 0,
        "slot": "0",
        "type": "t_uint256"
      },
      {
        "astId": 7671,
        "contract": "contracts/NFTMarketplace.sol:NFTMarketplace",
        "label": "nextListingId",
        "offset": 0,
        "slot": "1",
        "type": "t_uint256"
      },
      {
        "astId": 7691,
        "contract": "contracts/NFTMarketplace.sol:NFTMarketplace",
        "label": "listings",
        "offset": 0,
        "slot": "2",
        "type": "t_mapping(t_uint256,t_struct(Listing)7686_storage)"
      }
    ],
    "types": {
      "t_address": {
        "encoding": "inplace",
        "label": "address",
        "numberOfBytes": "20"
      },
      "t_bool": {
        "encoding": "inplace",
        "label": "bool",
        "numberOfBytes": "1"
      },
      "t_mapping(t_uint256,t_struct(Listing)7686_storage)": {
        "encoding": "mapping",
        "key": "t_uint256",
        "label": "mapping(uint256 => struct NFTMarketplace.Listing)",
        "numberOfBytes": "32",
        "value": "t_struct(Listing)7686_storage"
      },
      "t_struct(Listing)7686_storage": {
        "encoding": "inplace",
        "label": "struct NFTMarketplace.Listing",
        "members": [
          {
            "astId": 7673,
            "contract": "contracts/NFTMarketplace.sol:NFTMarketplace",
            "label": "listingId",
            "offset": 0,
            "slot": "0",
            "type": "t_uint256"
          },
          {
            "astId": 7675,
            "contract": "contracts/NFTMarketplace.sol:NFTMarketplace",
            "label": "nftContract",
            "offset": 0,
            "slot": "1",
            "type": "t_address"
          },
          {
            "astId": 7677,
            "contract": "contracts/NFTMarketplace.sol:NFTMarketplace",
            "label": "tokenId",
            "offset": 0,
            "slot": "2",
            "type": "t_uint256"
          },
          {
            "astId": 7679,
            "contract": "contracts/NFTMarketplace.sol:NFTMarketplace",
            "label": "seller",
            "offset": 0,
            "slot": "3",
            "type": "t_address"
          },
          {
            "astId": 7681,
            "contract": "contracts/NFTMarketplace.sol:NFTMarketplace",
            "label": "price",
            "offset": 0,
            "slot": "4",
            "type": "t_uint256"
          },
          {
            "astId": 7683,
            "contract": "contracts/NFTMarketplace.sol:NFTMarketplace",
            "label": "isActive",
            "offset": 0,
            "slot": "5",
            "type": "t_bool"
          },
          {
            "astId": 7685,
            "contract": "contracts/NFTMarketplace.sol:NFTMarketplace",
            "label": "createdAt",
            "offset": 0,
            "slot": "6",
            "type": "t_uint256"
          }
        ],
        "numberOfBytes": "224"
      },
      "t_uint256": {
        "encoding": "inplace",
        "label": "uint256",
        "numberOfBytes": "32"
      }
    }
  }
}