{
  "_format": "hh-sol-artifact-1",
  "contractName": "EventTicketNFT",
  "sourceName": "contracts/EventTicketNFT.sol",
  "abi": [
    {
      "inputs": [],
      "stateMutability": "nonpayable",
      "type": "constructor"
    },
    {
      "inputs": [],
      "name": "ERC721EnumerableForbiddenBatchMint",
      "type": "error"
    },
    {
      "inputs": [
        {
          "internalType": "address",
          "name": "sender",
          "type": "address"
        },
        {
          "internalType": "uint256",
          "name": "tokenId",
          "type": "uint256"
        },
        {
          "internalType": "address",
          "name": "owner",
          "type": "address"
        }
      ],
      "name": "ERC721IncorrectOwner",
      "type": "error"
    },
    {
      "inputs": [
        {
          "internalType": "address",
          "name": "operator",
          "type": "address"
        },
        {
          "internalType": "uint256",
          "name": "tokenId",
          "type": "uint256"
        }
      ],
      "name": "ERC721InsufficientApproval",
      "type": "error"
    },
    {
      "inputs": [
        {
          "internalType": "address",
          "name": "approver",
          "type": "address"
        }
      ],
      "name": "ERC721InvalidApprover",
      "type": "error"
    },
    {
      "inputs": [
        {
          "internalType": "address",
          "name": "operator",
          "type": "address"
        }
      ],
      "name": "ERC721InvalidOperator",
      "type": "error"
    },
    {
      "inputs": [
        {
          "internalType": "address",
          "name": "owner",
          "type": "address"
        }
      ],
      "name": "ERC721InvalidOwner",
      "type": "error"
    },
    {
      "inputs": [
        {
          "internalType": "address",
          "name": "receiver",
          "type": "address"
        }
      ],
      "name": "ERC721InvalidReceiver",
      "type": "error"
    },
    {
      "inputs": [
        {
          "internalType": "address",
          "name": "sender",
          "type": "address"
        }
      ],
      "name": "ERC721InvalidSender",
      "type": "error"
    },
    {
      "inputs": [
        {
          "internalType": "uint256",
          "name": "tokenId",
          "type": "uint256"
        }
      ],
      "name": "ERC721NonexistentToken",
      "type": "error"
    },
    {
      "inputs": [
        {
          "internalType": "address",
          "name": "owner",
          "type": "address"
        },
        {
          "internalType": "uint256",
          "name": "index",
          "type": "uint256"
        }
      ],
      "name": "ERC721OutOfBoundsIndex",
      "type": "error"
    },
    {
      "inputs": [
        {
          "internalType": "address",
          "name": "owner",
          "type": "address"
        }
      ],
      "name": "OwnableInvalidOwner",
      "type": "error"
    },
    {
      "inputs": [
        {
          "internalType": "address",
          "name": "account",
          "type": "address"
        }
      ],
      "name": "OwnableUnauthorizedAccount",
      "type": "error"
    },
    {
      "inputs": [],
      "name": "ReentrancyGuardReentrantCall",
      "type": "error"
    },
    {
      "anonymous": false,
      "inputs": [
        {
          "indexed": true,
          "internalType": "address",
          "name": "owner",
          "type": "address"
        },
        {
          "indexed": true,
          "internalType": "address",
          "name": "approved",
          "type": "address"
        },
        {
          "indexed": true,
          "internalType": "uint256",
          "name": "tokenId",
          "type": "uint256"
        }
      ],
      "name": "Approval",
      "type": "event"
    },
    {
      "anonymous": false,
      "inputs": [
        {
          "indexed": true,
          "internalType": "address",
          "name": "owner",
          "type": "address"
        },
        {
          "indexed": true,
          "internalType": "address",
          "name": "operator",
          "type": "address"
        },
        {
          "indexed": false,
          "internalType": "bool",
          "name": "approved",
          "type": "bool"
        }
      ],
      "name": "ApprovalForAll",
      "type": "event"
    },
    {
      "anonymous": false,
      "inputs": [
        {
          "indexed": true,
          "internalType": "uint256",
          "name": "eventId",
          "type": "uint256"
        },
        {
          "indexed": false,
          "internalType": "string",
          "name": "name",
          "type": "string"
        },
        {
          "indexed": true,
          "internalType": "address",
          "name": "organizer",
          "type": "address"
        },
        {
          "indexed": false,
          "internalType": "uint256",
          "name": "ticketPrice",
          "type": "uint256"
        },
        {
          "indexed": false,
          "internalType": "uint256",
          "name": "maxSupply",
          "type": "uint256"
        }
      ],
      "name": "EventCreated",
      "type": "event"
    },
    {
      "anonymous": false,
      "inputs": [
        {
          "indexed": true,
          "internalType": "address",
          "name": "previousOwner",
          "type": "address"
        },
        {
          "indexed": true,
          "internalType": "address",
          "name": "newOwner",
          "type": "address"
        }
      ],
      "name": "OwnershipTransferred",
      "type": "event"
    },
    {
      "anonymous": false,
      "inputs": [
        {
          "indexed": true,
          "internalType": "uint256",
          "name": "ticketId",
          "type": "uint256"
        },
        {
          "indexed": true,
          "internalType": "address",
          "name": "seller",
          "type": "address"
        },
        {
          "indexed": false,
          "internalType": "uint256",
          "name": "price",
          "type": "uint256"
        }
      ],
      "name": "TicketListed",
      "type": "event"
    },
    {
      "anonymous": false,
      "inputs": [
        {
          "indexed": true,
          "internalType": "uint256",
          "name": "ticketId",
          "type": "uint256"
        },
        {
          "indexed": true,
          "internalType": "address",
          "name": "seller",
          "type": "address"
        }
      ],
      "name": "TicketListingCancelled",
      "type": "event"
    },
    {
      "anonymous": false,
      "inputs": [
        {
          "indexed": true,
          "internalType": "uint256",
          "name": "ticketId",
          "type": "uint256"
        },
        {
          "indexed": true,
          "internalType": "uint256",
          "name": "eventId",
          "type": "uint256"
        },
        {
          "indexed": true,
          "internalType": "address",
          "name": "buyer",
          "type": "address"
        },
        {
          "indexed": false,
          "internalType": "uint256",
          "name": "ticketNumber",
          "type": "uint256"
        }
      ],
      "name": "TicketMinted",
      "type": "event"
    },
    {
      "anonymous": false,
      "inputs": [
        {
          "indexed": true,
          "internalType": "uint256",
          "name": "ticketId",
          "type": "uint256"
        },
        {
          "indexed": true,
          "internalType": "address",
          "name": "seller",
          "type": "address"
        },
        {
          "indexed": true,
          "internalType": "address",
          "name": "buyer",
          "type": "address"
        },
        {
          "indexed": false,
          "internalType": "uint256",
          "name": "price",
          "type": "uint256"
        }
      ],
      "name": "TicketSold",
      "type": "event"
    },
    {
      "anonymous": false,
      "inputs": [
        {
          "indexed": true,
          "internalType": "address",
          "name": "from",
          "type": "address"
        },
        {
          "indexed": true,
          "internalType": "address",
          "name": "to",
          "type": "address"
        },
        {
          "indexed": true,
          "internalType": "uint256",
          "name": "tokenId",
          "type": "uint256"
        }
      ],
      "name": "Transfer",
      "type": "event"
    },
    {
      "inputs": [
        {
          "internalType": "address",
          "name": "to",
          "type": "address"
        },
        {
          "internalType": "uint256",
          "name": "tokenId",
          "type": "uint256"
        }
      ],
      "name": "approve",
      "outputs": [],
      "stateMutability": "nonpayable",
      "type": "function"
    },
    {
      "inputs": [
        {
          "internalType": "address",
          "name": "owner",
          "type": "address"
        }
      ],
      "name": "balanceOf",
      "outputs": [
        {
          "internalType": "uint256",
          "name": "",
          "type": "uint256"
        }
      ],
      "stateMutability": "view",
      "type": "function"
    },
    {
      "inputs": [
        {
          "internalType": "uint256",
          "name": "_ticketId",
          "type": "uint256"
        }
      ],
      "name": "buyListedTicket",
      "outputs": [],
      "stateMutability": "payable",
      "type": "function"
    },
    {
      "inputs": [
        {
          "internalType": "uint256",
          "name": "_eventId",
          "type": "uint256"
        }
      ],
      "name": "buyTicket",
      "outputs": [
        {
          "internalType": "uint256",
          "name": "",
          "type": "uint256"
        }
      ],
      "stateMutability": "payable",
      "type": "function"
    },
    {
      "inputs": [
        {
          "internalType": "uint256",
          "name": "_ticketId",
          "type": "uint256"
        }
      ],
      "name": "cancelListing",
      "outputs": [],
      "stateMutability": "nonpayable",
      "type": "function"
    },
    {
      "inputs": [
        {
          "internalType": "string",
          "name": "_name",
          "type": "string"
        },
        {
          "internalType": "string",
          "name": "_description",
          "type": "string"
        },
        {
          "internalType": "uint256",
          "name": "_eventDate",
          "type": "uint256"
        },
        {
          "internalType": "uint256",
          "name": "_ticketPrice",
          "type": "uint256"
        },
        {
          "internalType": "uint256",
          "name": "_maxSupply",
          "type": "uint256"
        }
      ],
      "name": "createEvent",
      "outputs": [
        {
          "internalType": "uint256",
          "name": "",
          "type": "uint256"
        }
      ],
      "stateMutability": "nonpayable",
      "type": "function"
    },
    {
      "inputs": [
        {
          "internalType": "uint256",
          "name": "_eventId",
          "type": "uint256"
        }
      ],
      "name": "deactivateEvent",
      "outputs": [],
      "stateMutability": "nonpayable",
      "type": "function"
    },
    {
      "inputs": [],
      "name": "eventIdCounter",
      "outputs": [
        {
          "internalType": "uint256",
          "name": "",
          "type": "uint256"
        }
      ],
      "stateMutability": "view",
      "type": "function"
    },
    {
      "inputs": [
        {
          "internalType": "uint256",
          "name": "",
          "type": "uint256"
        }
      ],
      "name": "events",
      "outputs": [
        {
          "internalType": "uint256",
          "name": "id",
          "type": "uint256"
        },
        {
          "internalType": "string",
          "name": "name",
          "type": "string"
        },
        {
          "internalType": "string",
          "name": "description",
          "type": "string"
        },
        {
          "internalType": "uint256",
          "name": "eventDate",
          "type": "uint256"
        },
        {
          "internalType": "uint256",
          "name": "ticketPrice",
          "type": "uint256"
        },
        {
          "internalType": "uint256",
          "name": "maxSupply",
          "type": "uint256"
        },
        {
          "internalType": "uint256",
          "name": "soldTickets",
          "type": "uint256"
        },
        {
          "internalType": "address",
          "name": "organizer",
          "type": "address"
        },
        {
          "internalType": "bool",
          "name": "isActive",
          "type": "bool"
        }
      ],
      "stateMutability": "view",
      "type": "function"
    },
    {
      "inputs": [],
      "name": "getActiveListings",
      "outputs": [
        {
          "internalType": "uint256[]",
          "name": "",
          "type": "uint256[]"
        }
      ],
      "stateMutability": "view",
      "type": "function"
    },
    {
      "inputs": [],
      "name": "getAllEvents",
      "outputs": [
        {
          "components": [
            {
              "internalType": "uint256",
              "name": "id",
              "type": "uint256"
            },
            {
              "internalType": "string",
              "name": "name",
              "type": "string"
            },
            {
              "internalType": "string",
              "name": "description",
              "type": "string"
            },
            {
              "internalType": "uint256",
              "name": "eventDate",
              "type": "uint256"
            },
            {
              "internalType": "uint256",
              "name": "ticketPrice",
              "type": "uint256"
            },
            {
              "internalType": "uint256",
              "name": "maxSupply",
              "type": "uint256"
            },
            {
              "internalType": "uint256",
              "name": "soldTickets",
              "type": "uint256"
            },
            {
              "internalType": "address",
              "name": "organizer",
              "type": "address"
            },
            {
              "internalType": "bool",
              "name": "isActive",
              "type": "bool"
            }
          ],
          "internalType": "struct EventTicketNFT.Event[]",
          "name": "",
          "type": "tuple[]"
        }
      ],
      "stateMutability": "view",
      "type": "function"
    },
    {
      "inputs": [
        {
          "internalType": "uint256",
          "name": "tokenId",
          "type": "uint256"
        }
      ],
      "name": "getApproved",
      "outputs": [
        {
          "internalType": "address",
          "name": "",
          "type": "address"
        }
      ],
      "stateMutability": "view",
      "type": "function"
    },
    {
      "inputs": [
        {
          "internalType": "uint256",
          "name": "_eventId",
          "type": "uint256"
        }
      ],
      "name": "getEvent",
      "outputs": [
        {
          "components": [
            {
              "internalType": "uint256",
              "name": "id",
              "type": "uint256"
            },
            {
              "internalType": "string",
              "name": "name",
              "type": "string"
            },
            {
              "internalType": "string",
              "name": "description",
              "type": "string"
            },
            {
              "internalType": "uint256",
              "name": "eventDate",
              "type": "uint256"
            },
            {
              "internalType": "uint256",
              "name": "ticketPrice",
              "type": "uint256"
            },
            {
              "internalType": "uint256",
              "name": "maxSupply",
              "type": "uint256"
            },
            {
              "internalType": "uint256",
              "name": "soldTickets",
              "type": "uint256"
            },
            {
              "internalType": "address",
              "name": "organizer",
              "type": "address"
            },
            {
              "internalType": "bool",
              "name": "isActive",
              "type": "bool"
            }
          ],
          "internalType": "struct EventTicketNFT.Event",
          "name": "",
          "type": "tuple"
        }
      ],
      "stateMutability": "view",
      "type": "function"
    },
    {
      "inputs": [
        {
          "internalType": "uint256",
          "name": "_ticketId",
          "type": "uint256"
        }
      ],
      "name": "getMarketplaceListing",
      "outputs": [
        {
          "components": [
            {
              "internalType": "uint256",
              "name": "ticketId",
              "type": "uint256"
            },
            {
              "internalType": "address",
              "name": "seller",
              "type": "address"
            },
            {
              "internalType": "uint256",
              "name": "price",
              "type": "uint256"
            },
            {
              "internalType": "bool",
              "name": "isActive",
              "type": "bool"
            }
          ],
          "internalType": "struct EventTicketNFT.MarketplaceListing",
          "name": "",
          "type": "tuple"
        }
      ],
      "stateMutability": "view",
      "type": "function"
    },
    {
      "inputs": [
        {
          "internalType": "uint256",
          "name": "_ticketId",
          "type": "uint256"
        }
      ],
      "name": "getTicket",
      "outputs": [
        {
          "components": [
            {
              "internalType": "uint256",
              "name": "id",
              "type": "uint256"
            },
            {
              "internalType": "uint256",
              "name": "eventId",
              "type": "uint256"
            },
            {
              "internalType": "uint256",
              "name": "ticketNumber",
              "type": "uint256"
            },
            {
              "internalType": "string",
              "name": "metadataURI",
              "type": "string"
            }
          ],
          "internalType": "struct EventTicketNFT.Ticket",
          "name": "",
          "type": "tuple"
        }
      ],
      "stateMutability": "view",
      "type": "function"
    },
    {
      "inputs": [
        {
          "internalType": "uint256",
          "name": "_eventId",
          "type": "uint256"
        },
        {
          "internalType": "address",
          "name": "_owner",
          "type": "address"
        }
      ],
      "name": "getTicketsByEventAndOwner",
      "outputs": [
        {
          "internalType": "uint256[]",
          "name": "",
          "type": "uint256[]"
        }
      ],
      "stateMutability": "view",
      "type": "function"
    },
    {
      "inputs": [
        {
          "internalType": "address",
          "name": "owner",
          "type": "address"
        },
        {
          "internalType": "address",
          "name": "operator",
          "type": "address"
        }
      ],
      "name": "isApprovedForAll",
      "outputs": [
        {
          "internalType": "bool",
          "name": "",
          "type": "bool"
        }
      ],
      "stateMutability": "view",
      "type": "function"
    },
    {
      "inputs": [
        {
          "internalType": "uint256",
          "name": "_ticketId",
          "type": "uint256"
        },
        {
          "internalType": "uint256",
          "name": "_price",
          "type": "uint256"
        }
      ],
      "name": "listTicket",
      "outputs": [],
      "stateMutability": "nonpayable",
      "type": "function"
    },
    {
      "inputs": [
        {
          "internalType": "uint256",
          "name": "",
          "type": "uint256"
        }
      ],
      "name": "marketplaceListings",
      "outputs": [
        {
          "internalType": "uint256",
          "name": "ticketId",
          "type": "uint256"
        },
        {
          "internalType": "address",
          "name": "seller",
          "type": "address"
        },
        {
          "internalType": "uint256",
          "name": "price",
          "type": "uint256"
        },
        {
          "internalType": "bool",
          "name": "isActive",
          "type": "bool"
        }
      ],
      "stateMutability": "view",
      "type": "function"
    },
    {
      "inputs": [],
      "name": "name",
      "outputs": [
        {
          "internalType": "string",
          "name": "",
          "type": "string"
        }
      ],
      "stateMutability": "view",
      "type": "function"
    },
    {
      "inputs": [],
      "name": "owner",
      "outputs": [
        {
          "internalType": "address",
          "name": "",
          "type": "address"
        }
      ],
      "stateMutability": "view",
      "type": "function"
    },
    {
      "inputs": [
        {
          "internalType": "uint256",
          "name": "tokenId",
          "type": "uint256"
        }
      ],
      "name": "ownerOf",
      "outputs": [
        {
          "internalType": "address",
          "name": "",
          "type": "address"
        }
      ],
      "stateMutability": "view",
      "type": "function"
    },
    {
      "inputs": [],
      "name": "renounceOwnership",
      "outputs": [],
      "stateMutability": "nonpayable",
      "type": "function"
    },
    {
      "inputs": [
        {
          "internalType": "address",
          "name": "from",
          "type": "address"
        },
        {
          "internalType": "address",
          "name": "to",
          "type": "address"
        },
        {
          "internalType": "uint256",
          "name": "tokenId",
          "type": "uint256"
        }
      ],
      "name": "safeTransferFrom",
      "outputs": [],
      "stateMutability": "nonpayable",
      "type": "function"
    },
    {
      "inputs": [
        {
          "internalType": "address",
          "name": "from",
          "type": "address"
        },
        {
          "internalType": "address",
          "name": "to",
          "type": "address"
        },
        {
          "internalType": "uint256",
          "name": "tokenId",
          "type": "uint256"
        },
        {
          "internalType": "bytes",
          "name": "data",
          "type": "bytes"
        }
      ],
      "name": "safeTransferFrom",
      "outputs": [],
      "stateMutability": "nonpayable",
      "type": "function"
    },
    {
      "inputs": [
        {
          "internalType": "address",
          "name": "operator",
          "type": "address"
        },
        {
          "internalType": "bool",
          "name": "approved",
          "type": "bool"
        }
      ],
      "name": "setApprovalForAll",
      "outputs": [],
      "stateMutability": "nonpayable",
      "type": "function"
    },
    {
      "inputs": [
        {
          "internalType": "bytes4",
          "name": "interfaceId",
          "type": "bytes4"
        }
      ],
      "name": "supportsInterface",
      "outputs": [
        {
          "internalType": "bool",
          "name": "",
          "type": "bool"
        }
      ],
      "stateMutability": "view",
      "type": "function"
    },
    {
      "inputs": [],
      "name": "symbol",
      "outputs": [
        {
          "internalType": "string",
          "name": "",
          "type": "string"
        }
      ],
      "stateMutability": "view",
      "type": "function"
    },
    {
      "inputs": [],
      "name": "ticketIdCounter",
      "outputs": [
        {
          "internalType": "uint256",
          "name": "",
          "type": "uint256"
        }
      ],
      "stateMutability": "view",
      "type": "function"
    },
    {
      "inputs": [
        {
          "internalType": "uint256",
          "name": "",
          "type": "uint256"
        }
      ],
      "name": "ticketToEvent",
      "outputs": [
        {
          "internalType": "uint256",
          "name": "",
          "type": "uint256"
        }
      ],
      "stateMutability": "view",
      "type": "function"
    },
    {
      "inputs": [
        {
          "internalType": "uint256",
          "name": "",
          "type": "uint256"
        }
      ],
      "name": "tickets",
      "outputs": [
        {
          "internalType": "uint256",
          "name": "id",
          "type": "uint256"
        },
        {
          "internalType": "uint256",
          "name": "eventId",
          "type": "uint256"
        },
        {
          "internalType": "uint256",
          "name": "ticketNumber",
          "type": "uint256"
        },
        {
          "internalType": "string",
          "name": "metadataURI",
          "type": "string"
        }
      ],
      "stateMutability": "view",
      "type": "function"
    },
    {
      "inputs": [
        {
          "internalType": "uint256",
          "name": "index",
          "type": "uint256"
        }
      ],
      "name": "tokenByIndex",
      "outputs": [
        {
          "internalType": "uint256",
          "name": "",
          "type": "uint256"
        }
      ],
      "stateMutability": "view",
      "type": "function"
    },
    {
      "inputs": [
        {
          "internalType": "address",
          "name": "owner",
          "type": "address"
        },
        {
          "internalType": "uint256",
          "name": "index",
          "type": "uint256"
        }
      ],
      "name": "tokenOfOwnerByIndex",
      "outputs": [
        {
          "internalType": "uint256",
          "name": "",
          "type": "uint256"
        }
      ],
      "stateMutability": "view",
      "type": "function"
    },
    {
      "inputs": [
        {
          "internalType": "uint256",
          "name": "tokenId",
          "type": "uint256"
        }
      ],
      "name": "tokenURI",
      "outputs": [
        {
          "internalType": "string",
          "name": "",
          "type": "string"
        }
      ],
      "stateMutability": "view",
      "type": "function"
    },
    {
      "inputs": [],
      "name": "totalSupply",
      "outputs": [
        {
          "internalType": "uint256",
          "name": "",
          "type": "uint256"
        }
      ],
      "stateMutability": "view",
      "type": "function"
    },
    {
      "inputs": [
        {
          "internalType": "address",
          "name": "from",
          "type": "address"
        },
        {
          "internalType": "address",
          "name": "to",
          "type": "address"
        },
        {
          "internalType": "uint256",
          "name": "tokenId",
          "type": "uint256"
        }
      ],
      "name": "transferFrom",
      "outputs": [],
      "stateMutability": "nonpayable",
      "type": "function"
    },
    {
      "inputs": [
        {
          "internalType": "address",
          "name": "newOwner",
          "type": "address"
        }
      ],
      "name": "transferOwnership",
      "outputs": [],
      "stateMutability": "nonpayable",
      "type": "function"
    }
  ],
  "bytecode": "0x60806040523480156200001157600080fd5b50336040518060400160405280600e81526020016d115d995b9d151a58dad95d13919560921b81525060405180604001604052806005815260200164115513919560da1b8152508160009081620000699190620001b8565b506001620000788282620001b8565b5050506001600160a01b038116620000aa57604051631e4fbdf760e01b81526000600482015260240160405180910390fd5b620000b581620000c1565b506001600b5562000284565b600a80546001600160a01b038381166001600160a01b0319831681179093556040519116919082907f8be0079c531659141344cd1fd0a4f28419497f9722a3daafe3b4186f6b6457e090600090a35050565b634e487b7160e01b600052604160045260246000fd5b600181811c908216806200013e57607f821691505b6020821081036200015f57634e487b7160e01b600052602260045260246000fd5b50919050565b601f821115620001b357600081815260208120601f850160051c810160208610156200018e5750805b601f850160051c820191505b81811015620001af578281556001016200019a565b5050505b505050565b81516001600160401b03811115620001d457620001d462000113565b620001ec81620001e5845462000129565b8462000165565b602080601f8311600181146200022457600084156200020b5750858301515b600019600386901b1c1916600185901b178555620001af565b600085815260208120601f198616915b82811015620002555788860151825594840194600190910190840162000234565b5085821015620002745787850151600019600388901b60f8161c191681555b5050505050600190811b01905550565b6135c580620002946000396000f3fe60806040526004361061021a5760003560e01c806367dd74ca1161012357806395d89b41116100ab578063d5a87ecb1161006f578063d5a87ecb146106af578063e01a0ebe14610779578063e985e9c51461078f578063f2fde38b146107af578063f6ac04da146107cf57600080fd5b806395d89b4114610618578063a22cb4651461062d578063b88d4fde1461064d578063c27a500d1461066d578063c87b56dd1461068f57600080fd5b80637dc379fa116100f25780637dc379fa1461058257806387c35bc0146105af5780638802255f146105c45780638da5cb5b146105da578063957a632e146105f857600080fd5b806367dd74ca1461050d5780636d1884e01461052057806370a082311461054d578063715018a61461056d57600080fd5b8063305a905a116101a65780634f6ccce7116101755780634f6ccce71461045d578063502488531461047d57806350b44712146104905780636352211e146104c057806365ec74b0146104e057600080fd5b8063305a905a146103845780633c2fc56c146103a457806342842e0e146103c457806348c32093146103e457600080fd5b80630b791430116101ed5780630b791430146102d057806318160ddd1461030557806323b872dd146103245780632f745c5914610344578063305a67a81461036457600080fd5b806301ffc9a71461021f57806306fdde0314610254578063081812fc14610276578063095ea7b3146102ae575b600080fd5b34801561022b57600080fd5b5061023f61023a366004612cd7565b6107fc565b60405190151581526020015b60405180910390f35b34801561026057600080fd5b50610269610827565b60405161024b9190612d4b565b34801561028257600080fd5b50610296610291366004612d5e565b6108b9565b6040516001600160a01b03909116815260200161024b565b3480156102ba57600080fd5b506102ce6102c9366004612d8e565b6108e2565b005b3480156102dc57600080fd5b506102f06102eb366004612d5e565b6108f1565b60405161024b99989796959493929190612db8565b34801561031157600080fd5b506008545b60405190815260200161024b565b34801561033057600080fd5b506102ce61033f366004612e26565b610a59565b34801561035057600080fd5b5061031661035f366004612d8e565b610ae9565b34801561037057600080fd5b506102ce61037f366004612d5e565b610b4e565b34801561039057600080fd5b506102ce61039f366004612e62565b610c3a565b3480156103b057600080fd5b506103166103bf366004612f30565b610e72565b3480156103d057600080fd5b506102ce6103df366004612e26565b611113565b3480156103f057600080fd5b506104336103ff366004612d5e565b601060205260009081526040902080546001820154600283015460039093015491926001600160a01b039091169160ff1684565b604080519485526001600160a01b039093166020850152918301521515606082015260800161024b565b34801561046957600080fd5b50610316610478366004612d5e565b611133565b6102ce61048b366004612d5e565b61118c565b34801561049c57600080fd5b506104b06104ab366004612d5e565b611452565b60405161024b9493929190612faf565b3480156104cc57600080fd5b506102966104db366004612d5e565b611505565b3480156104ec57600080fd5b506105006104fb366004612fde565b611510565b60405161024b919061300a565b61031661051b366004612d5e565b61167d565b34801561052c57600080fd5b5061054061053b366004612d5e565b61198f565b60405161024b91906130e4565b34801561055957600080fd5b506103166105683660046130f7565b611b38565b34801561057957600080fd5b506102ce611b80565b34801561058e57600080fd5b506105a261059d366004612d5e565b611b94565b60405161024b9190613112565b3480156105bb57600080fd5b50610500611c94565b3480156105d057600080fd5b50610316600d5481565b3480156105e657600080fd5b50600a546001600160a01b0316610296565b34801561060457600080fd5b506102ce610613366004612d5e565b611d95565b34801561062457600080fd5b50610269611dbb565b34801561063957600080fd5b506102ce61064836600461314b565b611dca565b34801561065957600080fd5b506102ce610668366004613187565b611dd5565b34801561067957600080fd5b50610682611dec565b60405161024b9190613203565b34801561069b57600080fd5b506102696106aa366004612d5e565b61202e565b3480156106bb57600080fd5b5061073b6106ca366004612d5e565b604080516080808201835260008083526020808401829052838501829052606093840182905294815260108552839020835191820184528054825260018101546001600160a01b03169482019490945260028401549281019290925260039092015460ff1615159181019190915290565b60405161024b9190815181526020808301516001600160a01b0316908201526040808301519082015260609182015115159181019190915260800190565b34801561078557600080fd5b50610316600c5481565b34801561079b57600080fd5b5061023f6107aa366004613265565b6120db565b3480156107bb57600080fd5b506102ce6107ca3660046130f7565b612109565b3480156107db57600080fd5b506103166107ea366004612d5e565b60116020526000908152604090205481565b60006001600160e01b0319821663780e9d6360e01b1480610821575061082182612144565b92915050565b6060600080546108369061328f565b80601f01602080910402602001604051908101604052809291908181526020018280546108629061328f565b80156108af5780601f10610884576101008083540402835291602001916108af565b820191906000526020600020905b81548152906001019060200180831161089257829003601f168201915b5050505050905090565b60006108c482612194565b506000828152600460205260409020546001600160a01b0316610821565b6108ed8282336121cd565b5050565b600e60205260009081526040902080546001820180549192916109139061328f565b80601f016020809104026020016040519081016040528092919081815260200182805461093f9061328f565b801561098c5780601f106109615761010080835404028352916020019161098c565b820191906000526020600020905b81548152906001019060200180831161096f57829003601f168201915b5050505050908060020180546109a19061328f565b80601f01602080910402602001604051908101604052809291908181526020018280546109cd9061328f565b8015610a1a5780601f106109ef57610100808354040283529160200191610a1a565b820191906000526020600020905b8154815290600101906020018083116109fd57829003601f168201915b50505060038401546004850154600586015460068701546007909701549596929591945092506001600160a01b0381169060ff600160a01b9091041689565b6001600160a01b038216610a8857604051633250574960e11b8152600060048201526024015b60405180910390fd5b6000610a958383336121da565b9050836001600160a01b0316816001600160a01b031614610ae3576040516364283d7b60e01b81526001600160a01b0380861660048301526024820184905282166044820152606401610a7f565b50505050565b6000610af483611b38565b8210610b255760405163295f44f760e21b81526001600160a01b038416600482015260248101839052604401610a7f565b506001600160a01b03919091166000908152600660209081526040808320938352929052205490565b600081815260106020526040902060018101546001600160a01b03163314610bb15760405162461bcd60e51b81526020600482015260166024820152752cb7ba9030b932903737ba103a34329039b2b63632b960511b6044820152606401610a7f565b600381015460ff16610bfd5760405162461bcd60e51b81526020600482015260156024820152744c697374696e67206973206e6f742061637469766560581b6044820152606401610a7f565b60038101805460ff19169055604051339083907f76c5d8a17d0bee8bd0e004133353cd78ede70ac9ace2aa18bf839e748caff29090600090a35050565b33610c4483611505565b6001600160a01b031614610c9a5760405162461bcd60e51b815260206004820152601960248201527f596f7520646f6e2774206f776e2074686973207469636b6574000000000000006044820152606401610a7f565b60008111610cea5760405162461bcd60e51b815260206004820152601c60248201527f5072696365206d7573742062652067726561746572207468616e2030000000006044820152606401610a7f565b60008281526010602052604090206003015460ff1615610d4c5760405162461bcd60e51b815260206004820152601860248201527f5469636b657420697320616c7265616479206c697374656400000000000000006044820152606401610a7f565b600082815260116020908152604080832054808452600e909252909120600301544210610dc75760405162461bcd60e51b815260206004820152602360248201527f43616e6e6f742073656c6c207469636b65747320666f722070617374206576656044820152626e747360e81b6064820152608401610a7f565b6040805160808101825284815233602080830182815283850187815260016060860181815260008b81526010865288902096518755925190860180546001600160a01b0319166001600160a01b03909216919091179055516002850155516003909301805460ff191693151593909317909255915184815285917f22968ec3be3687b180f3544163a034b88d57b48159d9a7e9a1b610fdb2d05f8091015b60405180910390a3505050565b6000428411610ec35760405162461bcd60e51b815260206004820181905260248201527f4576656e742064617465206d75737420626520696e20746865206675747572656044820152606401610a7f565b60008311610f1f5760405162461bcd60e51b815260206004820152602360248201527f5469636b6574207072696365206d75737420626520677265617465722074686160448201526206e20360ec1b6064820152608401610a7f565b60008211610f795760405162461bcd60e51b815260206004820152602160248201527f4d617820737570706c79206d7573742062652067726561746572207468616e206044820152600360fc1b6064820152608401610a7f565b6000865111610fca5760405162461bcd60e51b815260206004820152601a60248201527f4576656e74206e616d652063616e6e6f7420626520656d7074790000000000006044820152606401610a7f565b600c8054906000610fda836132d9565b9091555050600c54604080516101208101825282815260208082018a81528284018a9052606083018990526080830188905260a08301879052600060c084018190523360e085015260016101008501819052868252600e909352939093208251815592519192919082019061104f9082613340565b50604082015160028201906110649082613340565b50606082015160038201556080820151600482015560a0820151600582015560c0820151600682015560e082015160079091018054610100909301511515600160a01b026001600160a81b03199093166001600160a01b0390921691909117919091179055604051339082907f81f945738beff591c3eab232e9f3265ce3f12263a2ec7acf84db8dc0fce26a2790611101908b9089908990613400565b60405180910390a39695505050505050565b61112e83838360405180602001604052806000815250611dd5565b505050565b600061113e60085490565b82106111675760405163295f44f760e21b81526000600482015260248101839052604401610a7f565b6008828154811061117a5761117a613425565b90600052602060002001549050919050565b61119461225b565b6000818152601060205260409020600381015460ff166111f65760405162461bcd60e51b815260206004820152601d60248201527f5469636b6574206973206e6f74206c697374656420666f722073616c650000006044820152606401610a7f565b80600201543410156112415760405162461bcd60e51b8152602060048201526014602482015273125b9cdd59999a58da595b9d081c185e5b595b9d60621b6044820152606401610a7f565b60018101546001600160a01b031661125883611505565b6001600160a01b0316146112ae5760405162461bcd60e51b815260206004820181905260248201527f53656c6c6572206e6f206c6f6e676572206f776e7320746865207469636b65746044820152606401610a7f565b600082815260116020908152604080832054808452600e9092529091206003015442106113285760405162461bcd60e51b815260206004820152602260248201527f43616e6e6f7420627579207469636b65747320666f722070617374206576656e604482015261747360f01b6064820152608401610a7f565b6001820154600283015460038401805460ff191690556001600160a01b0390911690611355823387612285565b6000826001600160a01b03163460405160006040518083038185875af1925050503d80600081146113a2576040519150601f19603f3d011682016040523d82523d6000602084013e6113a7565b606091505b50509050806113f25760405162461bcd60e51b815260206004820152601760248201527614185e5b595b9d081d1c985b9cd9995c8819985a5b1959604a1b6044820152606401610a7f565b336001600160a01b0316836001600160a01b0316877f2bbc64d6afd28a753f6c5e4aaa894f1d684c44a0e080167eae104ac8505cfebd8560405161143891815260200190565b60405180910390a4505050505061144f6001600b55565b50565b600f602052600090815260409020805460018201546002830154600384018054939492939192916114829061328f565b80601f01602080910402602001604051908101604052809291908181526020018280546114ae9061328f565b80156114fb5780601f106114d0576101008083540402835291602001916114fb565b820191906000526020600020905b8154815290600101906020018083116114de57829003601f168201915b5050505050905084565b600061082182612194565b6060600061151d83611b38565b905060008167ffffffffffffffff81111561153a5761153a612e84565b604051908082528060200260200182016040528015611563578160200160208202803683370190505b5090506000805b838110156115d657600061157e8783610ae9565b6000818152601160205260409020549091508890036115c357808484815181106115aa576115aa613425565b6020908102919091010152826115bf816132d9565b9350505b50806115ce816132d9565b91505061156a565b5060008167ffffffffffffffff8111156115f2576115f2612e84565b60405190808252806020026020018201604052801561161b578160200160208202803683370190505b50905060005b828110156116725783818151811061163b5761163b613425565b602002602001015182828151811061165557611655613425565b60209081029190910101528061166a816132d9565b915050611621565b509695505050505050565b600061168761225b565b6000828152600e602052604090206007810154600160a01b900460ff166116e65760405162461bcd60e51b81526020600482015260136024820152724576656e74206973206e6f742061637469766560681b6044820152606401610a7f565b80600501548160060154106117315760405162461bcd60e51b8152602060048201526011602482015270115d995b9d081a5cc81cdbdb19081bdd5d607a1b6044820152606401610a7f565b806004015434101561177c5760405162461bcd60e51b8152602060048201526014602482015273125b9cdd59999a58da595b9d081c185e5b595b9d60621b6044820152606401610a7f565b806003015442106117cf5760405162461bcd60e51b815260206004820152601860248201527f4576656e742068617320616c72656164792070617373656400000000000000006044820152606401610a7f565b600d80549060006117df836132d9565b9091555050600d5460068201546000906117fa90600161343b565b600684018054919250600061180e836132d9565b9190505550604051806080016040528083815260200186815260200182815260200161183a8784612335565b90526000838152600f602090815260409182902083518155908301516001820155908201516002820155606082015160038201906118789082613340565b50505060008281526011602052604090208590556118963383612371565b60078301546040516000916001600160a01b03169034908381818185875af1925050503d80600081146118e5576040519150601f19603f3d011682016040523d82523d6000602084013e6118ea565b606091505b50509050806119355760405162461bcd60e51b815260206004820152601760248201527614185e5b595b9d081d1c985b9cd9995c8819985a5b1959604a1b6044820152606401610a7f565b336001600160a01b031686847f4fe0f5bb11eb6ab81c428fb83261719e5b22f84b3e1942cd491c3777504bb8518560405161197291815260200190565b60405180910390a450909250505061198a6001600b55565b919050565b611997612c6a565b600e600083815260200190815260200160002060405180610120016040529081600082015481526020016001820180546119d09061328f565b80601f01602080910402602001604051908101604052809291908181526020018280546119fc9061328f565b8015611a495780601f10611a1e57610100808354040283529160200191611a49565b820191906000526020600020905b815481529060010190602001808311611a2c57829003601f168201915b50505050508152602001600282018054611a629061328f565b80601f0160208091040260200160405190810160405280929190818152602001828054611a8e9061328f565b8015611adb5780601f10611ab057610100808354040283529160200191611adb565b820191906000526020600020905b815481529060010190602001808311611abe57829003601f168201915b5050509183525050600382015460208201526004820154604082015260058201546060820152600682015460808201526007909101546001600160a01b03811660a0830152600160a01b900460ff16151560c09091015292915050565b60006001600160a01b038216611b64576040516322718ad960e21b815260006004820152602401610a7f565b506001600160a01b031660009081526003602052604090205490565b611b8861238b565b611b9260006123b8565b565b611bbf6040518060800160405280600081526020016000815260200160008152602001606081525090565b600f6000838152602001908152602001600020604051806080016040529081600082015481526020016001820154815260200160028201548152602001600382018054611c0b9061328f565b80601f0160208091040260200160405190810160405280929190818152602001828054611c379061328f565b8015611c845780601f10611c5957610100808354040283529160200191611c84565b820191906000526020600020905b815481529060010190602001808311611c6757829003601f168201915b5050505050815250509050919050565b6060600060015b600d548111611cde5760008181526010602052604090206003015460ff1615611ccc5781611cc8816132d9565b9250505b80611cd6816132d9565b915050611c9b565b5060008167ffffffffffffffff811115611cfa57611cfa612e84565b604051908082528060200260200182016040528015611d23578160200160208202803683370190505b509050600060015b600d548111611d8c5760008181526010602052604090206003015460ff1615611d7a5780838381518110611d6157611d61613425565b602090810291909101015281611d76816132d9565b9250505b80611d84816132d9565b915050611d2b565b50909392505050565b611d9d61238b565b6000908152600e60205260409020600701805460ff60a01b19169055565b6060600180546108369061328f565b6108ed33838361240a565b611de0848484610a59565b610ae3848484846124a1565b60606000600c5467ffffffffffffffff811115611e0b57611e0b612e84565b604051908082528060200260200182016040528015611e4457816020015b611e31612c6a565b815260200190600190039081611e295790505b50905060015b600c54811161202857600e60008281526020019081526020016000206040518061012001604052908160008201548152602001600182018054611e8c9061328f565b80601f0160208091040260200160405190810160405280929190818152602001828054611eb89061328f565b8015611f055780601f10611eda57610100808354040283529160200191611f05565b820191906000526020600020905b815481529060010190602001808311611ee857829003601f168201915b50505050508152602001600282018054611f1e9061328f565b80601f0160208091040260200160405190810160405280929190818152602001828054611f4a9061328f565b8015611f975780601f10611f6c57610100808354040283529160200191611f97565b820191906000526020600020905b815481529060010190602001808311611f7a57829003601f168201915b5050509183525050600382015460208201526004820154604082015260058201546060820152600682015460808201526007909101546001600160a01b03811660a0830152600160a01b900460ff16151560c09091015282611ffa60018461344e565b8151811061200a5761200a613425565b60200260200101819052508080612020906132d9565b915050611e4a565b50919050565b606061203982612194565b506000828152600f6020526040902060030180546120569061328f565b80601f01602080910402602001604051908101604052809291908181526020018280546120829061328f565b80156120cf5780601f106120a4576101008083540402835291602001916120cf565b820191906000526020600020905b8154815290600101906020018083116120b257829003601f168201915b50505050509050919050565b6001600160a01b03918216600090815260056020908152604080832093909416825291909152205460ff1690565b61211161238b565b6001600160a01b03811661213b57604051631e4fbdf760e01b815260006004820152602401610a7f565b61144f816123b8565b60006001600160e01b031982166380ac58cd60e01b148061217557506001600160e01b03198216635b5e139f60e01b145b8061082157506301ffc9a760e01b6001600160e01b0319831614610821565b6000818152600260205260408120546001600160a01b03168061082157604051637e27328960e01b815260048101849052602401610a7f565b61112e83838360016125ca565b60008281526010602052604081206003015460ff16156122485760008381526010602052604080822060038101805460ff191690556001015490516001600160a01b039091169185917f76c5d8a17d0bee8bd0e004133353cd78ede70ac9ace2aa18bf839e748caff2909190a35b6122538484846126d0565b949350505050565b6002600b540361227e57604051633ee5aeb560e01b815260040160405180910390fd5b6002600b55565b6001600160a01b0382166122af57604051633250574960e11b815260006004820152602401610a7f565b60006122bd838360006121da565b90506001600160a01b0381166122e957604051637e27328960e01b815260048101839052602401610a7f565b836001600160a01b0316816001600160a01b031614610ae3576040516364283d7b60e01b81526001600160a01b0380861660048301526024820184905282166044820152606401610a7f565b60606123408361279d565b6123498361279d565b60405160200161235a929190613461565b604051602081830303815290604052905092915050565b6108ed82826040518060200160405280600081525061289e565b600a546001600160a01b03163314611b925760405163118cdaa760e01b8152336004820152602401610a7f565b600a80546001600160a01b038381166001600160a01b0319831681179093556040519116919082907f8be0079c531659141344cd1fd0a4f28419497f9722a3daafe3b4186f6b6457e090600090a35050565b6001600160a01b03821661243c57604051630b61174360e31b81526001600160a01b0383166004820152602401610a7f565b6001600160a01b03838116600081815260056020908152604080832094871680845294825291829020805460ff191686151590811790915591519182527f17307eab39ab6107e8899845ad3d59bd9653f200f220920489ca2b5937696c319101610e65565b6001600160a01b0383163b15610ae357604051630a85bd0160e11b81526001600160a01b0384169063150b7a02906124e39033908890879087906004016134eb565b6020604051808303816000875af192505050801561251e575060408051601f3d908101601f1916820190925261251b9181019061351e565b60015b612587573d80801561254c576040519150601f19603f3d011682016040523d82523d6000602084013e612551565b606091505b50805160000361257f57604051633250574960e11b81526001600160a01b0385166004820152602401610a7f565b805181602001fd5b6001600160e01b03198116630a85bd0160e11b146125c357604051633250574960e11b81526001600160a01b0385166004820152602401610a7f565b5050505050565b80806125de57506001600160a01b03821615155b156126a05760006125ee84612194565b90506001600160a01b0383161580159061261a5750826001600160a01b0316816001600160a01b031614155b801561262d575061262b81846120db565b155b156126565760405163a9fbf51f60e01b81526001600160a01b0384166004820152602401610a7f565b811561269e5783856001600160a01b0316826001600160a01b03167f8c5be1e5ebec7d5bd14f71427d1e84f3dd0314c0f7b2291e5b200ac8c7c3b92560405160405180910390a45b505b5050600090815260046020526040902080546001600160a01b0319166001600160a01b0392909216919091179055565b6000806126de8585856128b5565b90506001600160a01b03811661273b5761273684600880546000838152600960205260408120829055600182018355919091527ff3f7a9fe364faab93b216da50a3214154f22a0a2b415b23a84c8169e8b636ee30155565b61275e565b846001600160a01b0316816001600160a01b03161461275e5761275e81856129ae565b6001600160a01b03851661277a5761277584612a3f565b612253565b846001600160a01b0316816001600160a01b031614612253576122538585612aee565b6060816000036127c45750506040805180820190915260018152600360fc1b602082015290565b8160005b81156127ee57806127d8816132d9565b91506127e79050600a83613551565b91506127c8565b60008167ffffffffffffffff81111561280957612809612e84565b6040519080825280601f01601f191660200182016040528015612833576020820181803683370190505b5090505b84156122535761284860018361344e565b9150612855600a86613565565b61286090603061343b565b60f81b81838151811061287557612875613425565b60200101906001600160f81b031916908160001a905350612897600a86613551565b9450612837565b6128a88383612b3e565b61112e60008484846124a1565b6000828152600260205260408120546001600160a01b03908116908316156128e2576128e2818486612ba3565b6001600160a01b03811615612920576128ff6000856000806125ca565b6001600160a01b038116600090815260036020526040902080546000190190555b6001600160a01b0385161561294f576001600160a01b0385166000908152600360205260409020805460010190555b60008481526002602052604080822080546001600160a01b0319166001600160a01b0389811691821790925591518793918516917fddf252ad1be2c89b69c2b068fc378daa952ba7f163c4a11628f55a4df523b3ef91a4949350505050565b60006129b983611b38565b600083815260076020526040902054909150808214612a0c576001600160a01b03841660009081526006602090815260408083208584528252808320548484528184208190558352600790915290208190555b5060009182526007602090815260408084208490556001600160a01b039094168352600681528383209183525290812055565b600854600090612a519060019061344e565b60008381526009602052604081205460088054939450909284908110612a7957612a79613425565b906000526020600020015490508060088381548110612a9a57612a9a613425565b6000918252602080832090910192909255828152600990915260408082208490558582528120556008805480612ad257612ad2613579565b6001900381819060005260206000200160009055905550505050565b60006001612afb84611b38565b612b05919061344e565b6001600160a01b039093166000908152600660209081526040808320868452825280832085905593825260079052919091209190915550565b6001600160a01b038216612b6857604051633250574960e11b815260006004820152602401610a7f565b6000612b76838360006121da565b90506001600160a01b0381161561112e576040516339e3563760e11b815260006004820152602401610a7f565b612bae838383612c07565b61112e576001600160a01b038316612bdc57604051637e27328960e01b815260048101829052602401610a7f565b60405163177e802f60e01b81526001600160a01b038316600482015260248101829052604401610a7f565b60006001600160a01b038316158015906122535750826001600160a01b0316846001600160a01b03161480612c415750612c4184846120db565b806122535750506000908152600460205260409020546001600160a01b03908116911614919050565b6040518061012001604052806000815260200160608152602001606081526020016000815260200160008152602001600081526020016000815260200160006001600160a01b031681526020016000151581525090565b6001600160e01b03198116811461144f57600080fd5b600060208284031215612ce957600080fd5b8135612cf481612cc1565b9392505050565b60005b83811015612d16578181015183820152602001612cfe565b50506000910152565b60008151808452612d37816020860160208601612cfb565b601f01601f19169290920160200192915050565b602081526000612cf46020830184612d1f565b600060208284031215612d7057600080fd5b5035919050565b80356001600160a01b038116811461198a57600080fd5b60008060408385031215612da157600080fd5b612daa83612d77565b946020939093013593505050565b60006101208b8352806020840152612dd28184018c612d1f565b90508281036040840152612de6818b612d1f565b60608401999099525050608081019590955260a085019390935260c08401919091526001600160a01b031660e08301521515610100909101529392505050565b600080600060608486031215612e3b57600080fd5b612e4484612d77565b9250612e5260208501612d77565b9150604084013590509250925092565b60008060408385031215612e7557600080fd5b50508035926020909101359150565b634e487b7160e01b600052604160045260246000fd5b600067ffffffffffffffff80841115612eb557612eb5612e84565b604051601f8501601f19908116603f01168101908282118183101715612edd57612edd612e84565b81604052809350858152868686011115612ef657600080fd5b858560208301376000602087830101525050509392505050565b600082601f830112612f2157600080fd5b612cf483833560208501612e9a565b600080600080600060a08688031215612f4857600080fd5b853567ffffffffffffffff80821115612f6057600080fd5b612f6c89838a01612f10565b96506020880135915080821115612f8257600080fd5b50612f8f88828901612f10565b959895975050505060408401359360608101359360809091013592509050565b848152836020820152826040820152608060608201526000612fd46080830184612d1f565b9695505050505050565b60008060408385031215612ff157600080fd5b8235915061300160208401612d77565b90509250929050565b6020808252825182820181905260009190848201906040850190845b8181101561304257835183529284019291840191600101613026565b50909695505050505050565b600061012082518452602083015181602086015261306e82860182612d1f565b915050604083015184820360408601526130888282612d1f565b915050606083015160608501526080830151608085015260a083015160a085015260c083015160c085015260e08301516130cd60e08601826001600160a01b03169052565b506101009283015115159390920192909252919050565b602081526000612cf4602083018461304e565b60006020828403121561310957600080fd5b612cf482612d77565b602081528151602082015260208201516040820152604082015160608201526000606083015160808084015261225360a0840182612d1f565b6000806040838503121561315e57600080fd5b61316783612d77565b91506020830135801515811461317c57600080fd5b809150509250929050565b6000806000806080858703121561319d57600080fd5b6131a685612d77565b93506131b460208601612d77565b925060408501359150606085013567ffffffffffffffff8111156131d757600080fd5b8501601f810187136131e857600080fd5b6131f787823560208401612e9a565b91505092959194509250565b6000602080830181845280855180835260408601915060408160051b870101925083870160005b8281101561325857603f1988860301845261324685835161304e565b9450928501929085019060010161322a565b5092979650505050505050565b6000806040838503121561327857600080fd5b61328183612d77565b915061300160208401612d77565b600181811c908216806132a357607f821691505b60208210810361202857634e487b7160e01b600052602260045260246000fd5b634e487b7160e01b600052601160045260246000fd5b6000600182016132eb576132eb6132c3565b5060010190565b601f82111561112e57600081815260208120601f850160051c810160208610156133195750805b601f850160051c820191505b8181101561333857828155600101613325565b505050505050565b815167ffffffffffffffff81111561335a5761335a612e84565b61336e81613368845461328f565b846132f2565b602080601f8311600181146133a3576000841561338b5750858301515b600019600386901b1c1916600185901b178555613338565b600085815260208120601f198616915b828110156133d2578886015182559484019460019091019084016133b3565b50858210156133f05787850151600019600388901b60f8161c191681555b5050505050600190811b01905550565b6060815260006134136060830186612d1f565b60208301949094525060400152919050565b634e487b7160e01b600052603260045260246000fd5b80820180821115610821576108216132c3565b81810381811115610821576108216132c3565b7f68747470733a2f2f697066732e696f2f697066732f516d5469636b65744d6574815264616461746160d81b6020820152662f6576656e742f60c81b6025820152600083516134b781602c850160208801612cfb565b672f7469636b65742f60c01b602c9184019182015283516134df816034840160208801612cfb565b01603401949350505050565b6001600160a01b0385811682528416602082015260408101839052608060608201819052600090612fd490830184612d1f565b60006020828403121561353057600080fd5b8151612cf481612cc1565b634e487b7160e01b600052601260045260246000fd5b6000826135605761356061353b565b500490565b6000826135745761357461353b565b500690565b634e487b7160e01b600052603160045260246000fdfea2646970667358221220b426628987e066075152bc81d0a1fa5fe446cf033c160bd3f40d77e1396c2d6b64736f6c63430008140033",
  "linkReferences": {},
  "deployedLinkReferences": {}
}